{
	"Logic.sol": {
		"ProxyAdmin": {
			"abi": [
				{
					"inputs": [],
					"stateMutability": "nonpayable",
					"type": "constructor"
				},
				{
					"inputs": [
						{
							"internalType": "address payable",
							"name": "proxy",
							"type": "address"
						},
						{
							"internalType": "address",
							"name": "admin",
							"type": "address"
						}
					],
					"name": "changeProxyAdmin",
					"outputs": [],
					"stateMutability": "nonpayable",
					"type": "function"
				},
				{
					"inputs": [
						{
							"internalType": "address payable",
							"name": "proxy",
							"type": "address"
						},
						{
							"internalType": "address",
							"name": "impl",
							"type": "address"
						}
					],
					"name": "changeProxyImpl",
					"outputs": [],
					"stateMutability": "nonpayable",
					"type": "function"
				},
				{
					"inputs": [
						{
							"internalType": "address",
							"name": "proxy",
							"type": "address"
						}
					],
					"name": "getProxyAdmin",
					"outputs": [
						{
							"internalType": "address",
							"name": "",
							"type": "address"
						}
					],
					"stateMutability": "view",
					"type": "function"
				},
				{
					"inputs": [
						{
							"internalType": "address",
							"name": "proxy",
							"type": "address"
						}
					],
					"name": "getProxyImpl",
					"outputs": [
						{
							"internalType": "address",
							"name": "",
							"type": "address"
						}
					],
					"stateMutability": "view",
					"type": "function"
				},
				{
					"inputs": [],
					"name": "owner",
					"outputs": [
						{
							"internalType": "address",
							"name": "",
							"type": "address"
						}
					],
					"stateMutability": "view",
					"type": "function"
				}
			],
			"devdoc": {
				"kind": "dev",
				"methods": {},
				"version": 1
			},
			"evm": {
				"assembly": "    /* \"Logic.sol\":4264:5767  contract ProxyAdmin { // ProxyAdmin contract manages upgrades and admin changes of Proxy contracts... */\n  mstore(0x40, 0x80)\n    /* \"Logic.sol\":4438:4488  constructor(){... */\n  callvalue\n  dup1\n  iszero\n  tag_1\n  jumpi\n  revert(0x00, 0x00)\ntag_1:\n  pop\n    /* \"Logic.sol\":4470:4480  msg.sender */\n  caller\n    /* \"Logic.sol\":4462:4467  owner */\n  0x00\n  0x00\n    /* \"Logic.sol\":4462:4480  owner = msg.sender */\n  0x0100\n  exp\n  dup2\n  sload\n  dup2\n  0xffffffffffffffffffffffffffffffffffffffff\n  mul\n  not\n  and\n  swap1\n  dup4\n  0xffffffffffffffffffffffffffffffffffffffff\n  and\n  mul\n  or\n  swap1\n  sstore\n  pop\n    /* \"Logic.sol\":4264:5767  contract ProxyAdmin { // ProxyAdmin contract manages upgrades and admin changes of Proxy contracts... */\n  dataSize(sub_0)\n  dup1\n  dataOffset(sub_0)\n  0x00\n  codecopy\n  0x00\n  return\nstop\n\nsub_0: assembly {\n        /* \"Logic.sol\":4264:5767  contract ProxyAdmin { // ProxyAdmin contract manages upgrades and admin changes of Proxy contracts... */\n      mstore(0x40, 0x80)\n      callvalue\n      dup1\n      iszero\n      tag_1\n      jumpi\n      revert(0x00, 0x00)\n    tag_1:\n      pop\n      jumpi(tag_2, lt(calldatasize, 0x04))\n      shr(0xe0, calldataload(0x00))\n      dup1\n      0x212af320\n      eq\n      tag_3\n      jumpi\n      dup1\n      0x2c752046\n      eq\n      tag_4\n      jumpi\n      dup1\n      0x7eff275e\n      eq\n      tag_5\n      jumpi\n      dup1\n      0x8da5cb5b\n      eq\n      tag_6\n      jumpi\n      dup1\n      0xf3b7dead\n      eq\n      tag_7\n      jumpi\n    tag_2:\n      revert(0x00, 0x00)\n        /* \"Logic.sol\":5051:5306  function getProxyImpl(address proxy) external view returns (address){... */\n    tag_3:\n      tag_8\n      0x04\n      dup1\n      calldatasize\n      sub\n      dup2\n      add\n      swap1\n      tag_9\n      swap2\n      swap1\n      tag_10\n      jump\t// in\n    tag_9:\n      tag_11\n      jump\t// in\n    tag_8:\n      mload(0x40)\n      tag_12\n      swap2\n      swap1\n      tag_13\n      jump\t// in\n    tag_12:\n      mload(0x40)\n      dup1\n      swap2\n      sub\n      swap1\n      return\n        /* \"Logic.sol\":5634:5764  function changeProxyImpl(address payable proxy, address impl) external OnlyOwner {... */\n    tag_4:\n      tag_14\n      0x04\n      dup1\n      calldatasize\n      sub\n      dup2\n      add\n      swap1\n      tag_15\n      swap2\n      swap1\n      tag_16\n      jump\t// in\n    tag_15:\n      tag_17\n      jump\t// in\n    tag_14:\n      stop\n        /* \"Logic.sol\":5397:5531  function changeProxyAdmin(address payable proxy, address admin) external OnlyOwner {... */\n    tag_5:\n      tag_18\n      0x04\n      dup1\n      calldatasize\n      sub\n      dup2\n      add\n      swap1\n      tag_19\n      swap2\n      swap1\n      tag_16\n      jump\t// in\n    tag_19:\n      tag_20\n      jump\t// in\n    tag_18:\n      stop\n        /* \"Logic.sol\":4368:4388  address public owner */\n    tag_6:\n      tag_21\n      tag_22\n      jump\t// in\n    tag_21:\n      mload(0x40)\n      tag_23\n      swap2\n      swap1\n      tag_13\n      jump\t// in\n    tag_23:\n      mload(0x40)\n      dup1\n      swap2\n      sub\n      swap1\n      return\n        /* \"Logic.sol\":4716:4973  function getProxyAdmin(address proxy) external view returns (address){... */\n    tag_7:\n      tag_24\n      0x04\n      dup1\n      calldatasize\n      sub\n      dup2\n      add\n      swap1\n      tag_25\n      swap2\n      swap1\n      tag_10\n      jump\t// in\n    tag_25:\n      tag_26\n      jump\t// in\n    tag_24:\n      mload(0x40)\n      tag_27\n      swap2\n      swap1\n      tag_13\n      jump\t// in\n    tag_27:\n      mload(0x40)\n      dup1\n      swap2\n      sub\n      swap1\n      return\n        /* \"Logic.sol\":5051:5306  function getProxyImpl(address proxy) external view returns (address){... */\n    tag_11:\n        /* \"Logic.sol\":5111:5118  address */\n      0x00\n        /* \"Logic.sol\":5131:5138  bool ok */\n      0x00\n        /* \"Logic.sol\":5140:5156  bytes memory res */\n      0x00\n        /* \"Logic.sol\":5160:5165  proxy */\n      dup4\n        /* \"Logic.sol\":5160:5176  proxy.staticcall */\n      0xffffffffffffffffffffffffffffffffffffffff\n      and\n        /* \"Logic.sol\":5177:5211  abi.encodeCall(Proxy.readImpl, ()) */\n      add(0x24, mload(0x40))\n      mload(0x40)\n      0x20\n      dup2\n      dup4\n      sub\n      sub\n      dup2\n      mstore\n      swap1\n      0x40\n      mstore\n      shl(0xe0, 0x5ec5fd19)\n      0x20\n      dup3\n      add\n      dup1\n      mload\n      0xffffffffffffffffffffffffffffffffffffffffffffffffffffffff\n      dup4\n      dup2\n      dup4\n      and\n      or\n      dup4\n      mstore\n      pop\n      pop\n      pop\n      pop\n        /* \"Logic.sol\":5160:5212  proxy.staticcall(abi.encodeCall(Proxy.readImpl, ())) */\n      mload(0x40)\n      tag_29\n      swap2\n      swap1\n      tag_30\n      jump\t// in\n    tag_29:\n      0x00\n      mload(0x40)\n      dup1\n      dup4\n      sub\n      dup2\n      dup6\n      gas\n      staticcall\n      swap2\n      pop\n      pop\n      returndatasize\n      dup1\n      0x00\n      dup2\n      eq\n      tag_33\n      jumpi\n      mload(0x40)\n      swap2\n      pop\n      and(add(returndatasize, 0x3f), not(0x1f))\n      dup3\n      add\n      0x40\n      mstore\n      returndatasize\n      dup3\n      mstore\n      returndatasize\n      0x00\n      0x20\n      dup5\n      add\n      returndatacopy\n      jump(tag_32)\n    tag_33:\n      0x60\n      swap2\n      pop\n    tag_32:\n      pop\n        /* \"Logic.sol\":5130:5212  (bool ok, bytes memory res) = proxy.staticcall(abi.encodeCall(Proxy.readImpl, ())) */\n      swap2\n      pop\n      swap2\n      pop\n        /* \"Logic.sol\":5231:5233  ok */\n      dup2\n        /* \"Logic.sol\":5223:5254  require(ok, \"Execution failed\") */\n      tag_34\n      jumpi\n      mload(0x40)\n      0x08c379a000000000000000000000000000000000000000000000000000000000\n      dup2\n      mstore\n      0x04\n      add\n      tag_35\n      swap1\n      tag_36\n      jump\t// in\n    tag_35:\n      mload(0x40)\n      dup1\n      swap2\n      sub\n      swap1\n      revert\n    tag_34:\n        /* \"Logic.sol\":5283:5286  res */\n      dup1\n        /* \"Logic.sol\":5272:5298  abi.decode(res, (address)) */\n      dup1\n      0x20\n      add\n      swap1\n      mload\n      dup2\n      add\n      swap1\n      tag_37\n      swap2\n      swap1\n      tag_38\n      jump\t// in\n    tag_37:\n        /* \"Logic.sol\":5265:5298  return abi.decode(res, (address)) */\n      swap3\n      pop\n      pop\n      pop\n        /* \"Logic.sol\":5051:5306  function getProxyImpl(address proxy) external view returns (address){... */\n      swap2\n      swap1\n      pop\n      jump\t// out\n        /* \"Logic.sol\":5634:5764  function changeProxyImpl(address payable proxy, address impl) external OnlyOwner {... */\n    tag_17:\n        /* \"Logic.sol\":4601:4606  owner */\n      0x00\n      0x00\n      swap1\n      sload\n      swap1\n      0x0100\n      exp\n      swap1\n      div\n      0xffffffffffffffffffffffffffffffffffffffff\n      and\n        /* \"Logic.sol\":4587:4606  msg.sender == owner */\n      0xffffffffffffffffffffffffffffffffffffffff\n      and\n        /* \"Logic.sol\":4587:4597  msg.sender */\n      caller\n        /* \"Logic.sol\":4587:4606  msg.sender == owner */\n      0xffffffffffffffffffffffffffffffffffffffff\n      and\n      eq\n        /* \"Logic.sol\":4579:4628  require(msg.sender == owner, \"You can't do this\") */\n      tag_40\n      jumpi\n      mload(0x40)\n      0x08c379a000000000000000000000000000000000000000000000000000000000\n      dup2\n      mstore\n      0x04\n      add\n      tag_41\n      swap1\n      tag_42\n      jump\t// in\n    tag_41:\n      mload(0x40)\n      dup1\n      swap2\n      sub\n      swap1\n      revert\n    tag_40:\n        /* \"Logic.sol\":5732:5737  proxy */\n      dup2\n        /* \"Logic.sol\":5726:5749  Proxy(proxy).updateImpl */\n      0xffffffffffffffffffffffffffffffffffffffff\n      and\n      0xfcf1e009\n        /* \"Logic.sol\":5750:5754  impl */\n      dup3\n        /* \"Logic.sol\":5726:5755  Proxy(proxy).updateImpl(impl) */\n      mload(0x40)\n      dup3\n      0xffffffff\n      and\n      0xe0\n      shl\n      dup2\n      mstore\n      0x04\n      add\n      tag_44\n      swap2\n      swap1\n      tag_13\n      jump\t// in\n    tag_44:\n      0x00\n      mload(0x40)\n      dup1\n      dup4\n      sub\n      dup2\n      0x00\n      dup8\n      dup1\n      extcodesize\n      iszero\n      dup1\n      iszero\n      tag_45\n      jumpi\n      revert(0x00, 0x00)\n    tag_45:\n      pop\n      gas\n      call\n      iszero\n      dup1\n      iszero\n      tag_47\n      jumpi\n      returndatacopy(0x00, 0x00, returndatasize)\n      revert(0x00, returndatasize)\n    tag_47:\n      pop\n      pop\n      pop\n      pop\n        /* \"Logic.sol\":5634:5764  function changeProxyImpl(address payable proxy, address impl) external OnlyOwner {... */\n      pop\n      pop\n      jump\t// out\n        /* \"Logic.sol\":5397:5531  function changeProxyAdmin(address payable proxy, address admin) external OnlyOwner {... */\n    tag_20:\n        /* \"Logic.sol\":4601:4606  owner */\n      0x00\n      0x00\n      swap1\n      sload\n      swap1\n      0x0100\n      exp\n      swap1\n      div\n      0xffffffffffffffffffffffffffffffffffffffff\n      and\n        /* \"Logic.sol\":4587:4606  msg.sender == owner */\n      0xffffffffffffffffffffffffffffffffffffffff\n      and\n        /* \"Logic.sol\":4587:4597  msg.sender */\n      caller\n        /* \"Logic.sol\":4587:4606  msg.sender == owner */\n      0xffffffffffffffffffffffffffffffffffffffff\n      and\n      eq\n        /* \"Logic.sol\":4579:4628  require(msg.sender == owner, \"You can't do this\") */\n      tag_49\n      jumpi\n      mload(0x40)\n      0x08c379a000000000000000000000000000000000000000000000000000000000\n      dup2\n      mstore\n      0x04\n      add\n      tag_50\n      swap1\n      tag_42\n      jump\t// in\n    tag_50:\n      mload(0x40)\n      dup1\n      swap2\n      sub\n      swap1\n      revert\n    tag_49:\n        /* \"Logic.sol\":5497:5502  proxy */\n      dup2\n        /* \"Logic.sol\":5491:5515  Proxy(proxy).changeAdmin */\n      0xffffffffffffffffffffffffffffffffffffffff\n      and\n      0x8f283970\n        /* \"Logic.sol\":5516:5521  admin */\n      dup3\n        /* \"Logic.sol\":5491:5522  Proxy(proxy).changeAdmin(admin) */\n      mload(0x40)\n      dup3\n      0xffffffff\n      and\n      0xe0\n      shl\n      dup2\n      mstore\n      0x04\n      add\n      tag_52\n      swap2\n      swap1\n      tag_13\n      jump\t// in\n    tag_52:\n      0x00\n      mload(0x40)\n      dup1\n      dup4\n      sub\n      dup2\n      0x00\n      dup8\n      dup1\n      extcodesize\n      iszero\n      dup1\n      iszero\n      tag_53\n      jumpi\n      revert(0x00, 0x00)\n    tag_53:\n      pop\n      gas\n      call\n      iszero\n      dup1\n      iszero\n      tag_55\n      jumpi\n      returndatacopy(0x00, 0x00, returndatasize)\n      revert(0x00, returndatasize)\n    tag_55:\n      pop\n      pop\n      pop\n      pop\n        /* \"Logic.sol\":5397:5531  function changeProxyAdmin(address payable proxy, address admin) external OnlyOwner {... */\n      pop\n      pop\n      jump\t// out\n        /* \"Logic.sol\":4368:4388  address public owner */\n    tag_22:\n      0x00\n      0x00\n      swap1\n      sload\n      swap1\n      0x0100\n      exp\n      swap1\n      div\n      0xffffffffffffffffffffffffffffffffffffffff\n      and\n      dup2\n      jump\t// out\n        /* \"Logic.sol\":4716:4973  function getProxyAdmin(address proxy) external view returns (address){... */\n    tag_26:\n        /* \"Logic.sol\":4777:4784  address */\n      0x00\n        /* \"Logic.sol\":4797:4804  bool ok */\n      0x00\n        /* \"Logic.sol\":4806:4822  bytes memory res */\n      0x00\n        /* \"Logic.sol\":4826:4831  proxy */\n      dup4\n        /* \"Logic.sol\":4826:4842  proxy.staticcall */\n      0xffffffffffffffffffffffffffffffffffffffff\n      and\n        /* \"Logic.sol\":4843:4878  abi.encodeCall(Proxy.readAdmin, ()) */\n      add(0x24, mload(0x40))\n      mload(0x40)\n      0x20\n      dup2\n      dup4\n      sub\n      sub\n      dup2\n      mstore\n      swap1\n      0x40\n      mstore\n      shl(0xe0, 0x2865667f)\n      0x20\n      dup3\n      add\n      dup1\n      mload\n      0xffffffffffffffffffffffffffffffffffffffffffffffffffffffff\n      dup4\n      dup2\n      dup4\n      and\n      or\n      dup4\n      mstore\n      pop\n      pop\n      pop\n      pop\n        /* \"Logic.sol\":4826:4879  proxy.staticcall(abi.encodeCall(Proxy.readAdmin, ())) */\n      mload(0x40)\n      tag_57\n      swap2\n      swap1\n      tag_30\n      jump\t// in\n    tag_57:\n      0x00\n      mload(0x40)\n      dup1\n      dup4\n      sub\n      dup2\n      dup6\n      gas\n      staticcall\n      swap2\n      pop\n      pop\n      returndatasize\n      dup1\n      0x00\n      dup2\n      eq\n      tag_60\n      jumpi\n      mload(0x40)\n      swap2\n      pop\n      and(add(returndatasize, 0x3f), not(0x1f))\n      dup3\n      add\n      0x40\n      mstore\n      returndatasize\n      dup3\n      mstore\n      returndatasize\n      0x00\n      0x20\n      dup5\n      add\n      returndatacopy\n      jump(tag_59)\n    tag_60:\n      0x60\n      swap2\n      pop\n    tag_59:\n      pop\n        /* \"Logic.sol\":4796:4879  (bool ok, bytes memory res) = proxy.staticcall(abi.encodeCall(Proxy.readAdmin, ())) */\n      swap2\n      pop\n      swap2\n      pop\n        /* \"Logic.sol\":4898:4900  ok */\n      dup2\n        /* \"Logic.sol\":4890:4921  require(ok, \"Execution failed\") */\n      tag_61\n      jumpi\n      mload(0x40)\n      0x08c379a000000000000000000000000000000000000000000000000000000000\n      dup2\n      mstore\n      0x04\n      add\n      tag_62\n      swap1\n      tag_36\n      jump\t// in\n    tag_62:\n      mload(0x40)\n      dup1\n      swap2\n      sub\n      swap1\n      revert\n    tag_61:\n        /* \"Logic.sol\":4950:4953  res */\n      dup1\n        /* \"Logic.sol\":4939:4965  abi.decode(res, (address)) */\n      dup1\n      0x20\n      add\n      swap1\n      mload\n      dup2\n      add\n      swap1\n      tag_63\n      swap2\n      swap1\n      tag_38\n      jump\t// in\n    tag_63:\n        /* \"Logic.sol\":4932:4965  return abi.decode(res, (address)) */\n      swap3\n      pop\n      pop\n      pop\n        /* \"Logic.sol\":4716:4973  function getProxyAdmin(address proxy) external view returns (address){... */\n      swap2\n      swap1\n      pop\n      jump\t// out\n        /* \"#utility.yul\":88:205   */\n    tag_65:\n        /* \"#utility.yul\":197:198   */\n      0x00\n        /* \"#utility.yul\":194:195   */\n      0x00\n        /* \"#utility.yul\":187:199   */\n      revert\n        /* \"#utility.yul\":334:460   */\n    tag_67:\n        /* \"#utility.yul\":371:378   */\n      0x00\n        /* \"#utility.yul\":411:453   */\n      0xffffffffffffffffffffffffffffffffffffffff\n        /* \"#utility.yul\":404:409   */\n      dup3\n        /* \"#utility.yul\":400:454   */\n      and\n        /* \"#utility.yul\":389:454   */\n      swap1\n      pop\n        /* \"#utility.yul\":334:460   */\n      swap2\n      swap1\n      pop\n      jump\t// out\n        /* \"#utility.yul\":466:562   */\n    tag_68:\n        /* \"#utility.yul\":503:510   */\n      0x00\n        /* \"#utility.yul\":532:556   */\n      tag_91\n        /* \"#utility.yul\":550:555   */\n      dup3\n        /* \"#utility.yul\":532:556   */\n      tag_67\n      jump\t// in\n    tag_91:\n        /* \"#utility.yul\":521:556   */\n      swap1\n      pop\n        /* \"#utility.yul\":466:562   */\n      swap2\n      swap1\n      pop\n      jump\t// out\n        /* \"#utility.yul\":568:690   */\n    tag_69:\n        /* \"#utility.yul\":641:665   */\n      tag_93\n        /* \"#utility.yul\":659:664   */\n      dup2\n        /* \"#utility.yul\":641:665   */\n      tag_68\n      jump\t// in\n    tag_93:\n        /* \"#utility.yul\":634:639   */\n      dup2\n        /* \"#utility.yul\":631:666   */\n      eq\n        /* \"#utility.yul\":621:684   */\n      tag_94\n      jumpi\n        /* \"#utility.yul\":680:681   */\n      0x00\n        /* \"#utility.yul\":677:678   */\n      0x00\n        /* \"#utility.yul\":670:682   */\n      revert\n        /* \"#utility.yul\":621:684   */\n    tag_94:\n        /* \"#utility.yul\":568:690   */\n      pop\n      jump\t// out\n        /* \"#utility.yul\":696:835   */\n    tag_70:\n        /* \"#utility.yul\":742:747   */\n      0x00\n        /* \"#utility.yul\":780:786   */\n      dup2\n        /* \"#utility.yul\":767:787   */\n      calldataload\n        /* \"#utility.yul\":758:787   */\n      swap1\n      pop\n        /* \"#utility.yul\":796:829   */\n      tag_96\n        /* \"#utility.yul\":823:828   */\n      dup2\n        /* \"#utility.yul\":796:829   */\n      tag_69\n      jump\t// in\n    tag_96:\n        /* \"#utility.yul\":696:835   */\n      swap3\n      swap2\n      pop\n      pop\n      jump\t// out\n        /* \"#utility.yul\":841:1170   */\n    tag_10:\n        /* \"#utility.yul\":900:906   */\n      0x00\n        /* \"#utility.yul\":949:951   */\n      0x20\n        /* \"#utility.yul\":937:946   */\n      dup3\n        /* \"#utility.yul\":928:935   */\n      dup5\n        /* \"#utility.yul\":924:947   */\n      sub\n        /* \"#utility.yul\":920:952   */\n      slt\n        /* \"#utility.yul\":917:1036   */\n      iszero\n      tag_98\n      jumpi\n        /* \"#utility.yul\":955:1034   */\n      tag_99\n      tag_65\n      jump\t// in\n    tag_99:\n        /* \"#utility.yul\":917:1036   */\n    tag_98:\n        /* \"#utility.yul\":1075:1076   */\n      0x00\n        /* \"#utility.yul\":1100:1153   */\n      tag_100\n        /* \"#utility.yul\":1145:1152   */\n      dup5\n        /* \"#utility.yul\":1136:1142   */\n      dup3\n        /* \"#utility.yul\":1125:1134   */\n      dup6\n        /* \"#utility.yul\":1121:1143   */\n      add\n        /* \"#utility.yul\":1100:1153   */\n      tag_70\n      jump\t// in\n    tag_100:\n        /* \"#utility.yul\":1090:1153   */\n      swap2\n      pop\n        /* \"#utility.yul\":1046:1163   */\n      pop\n        /* \"#utility.yul\":841:1170   */\n      swap3\n      swap2\n      pop\n      pop\n      jump\t// out\n        /* \"#utility.yul\":1176:1294   */\n    tag_71:\n        /* \"#utility.yul\":1263:1287   */\n      tag_102\n        /* \"#utility.yul\":1281:1286   */\n      dup2\n        /* \"#utility.yul\":1263:1287   */\n      tag_68\n      jump\t// in\n    tag_102:\n        /* \"#utility.yul\":1258:1261   */\n      dup3\n        /* \"#utility.yul\":1251:1288   */\n      mstore\n        /* \"#utility.yul\":1176:1294   */\n      pop\n      pop\n      jump\t// out\n        /* \"#utility.yul\":1300:1522   */\n    tag_13:\n        /* \"#utility.yul\":1393:1397   */\n      0x00\n        /* \"#utility.yul\":1431:1433   */\n      0x20\n        /* \"#utility.yul\":1420:1429   */\n      dup3\n        /* \"#utility.yul\":1416:1434   */\n      add\n        /* \"#utility.yul\":1408:1434   */\n      swap1\n      pop\n        /* \"#utility.yul\":1444:1515   */\n      tag_104\n        /* \"#utility.yul\":1512:1513   */\n      0x00\n        /* \"#utility.yul\":1501:1510   */\n      dup4\n        /* \"#utility.yul\":1497:1514   */\n      add\n        /* \"#utility.yul\":1488:1494   */\n      dup5\n        /* \"#utility.yul\":1444:1515   */\n      tag_71\n      jump\t// in\n    tag_104:\n        /* \"#utility.yul\":1300:1522   */\n      swap3\n      swap2\n      pop\n      pop\n      jump\t// out\n        /* \"#utility.yul\":1528:1632   */\n    tag_72:\n        /* \"#utility.yul\":1573:1580   */\n      0x00\n        /* \"#utility.yul\":1602:1626   */\n      tag_106\n        /* \"#utility.yul\":1620:1625   */\n      dup3\n        /* \"#utility.yul\":1602:1626   */\n      tag_67\n      jump\t// in\n    tag_106:\n        /* \"#utility.yul\":1591:1626   */\n      swap1\n      pop\n        /* \"#utility.yul\":1528:1632   */\n      swap2\n      swap1\n      pop\n      jump\t// out\n        /* \"#utility.yul\":1638:1776   */\n    tag_73:\n        /* \"#utility.yul\":1719:1751   */\n      tag_108\n        /* \"#utility.yul\":1745:1750   */\n      dup2\n        /* \"#utility.yul\":1719:1751   */\n      tag_72\n      jump\t// in\n    tag_108:\n        /* \"#utility.yul\":1712:1717   */\n      dup2\n        /* \"#utility.yul\":1709:1752   */\n      eq\n        /* \"#utility.yul\":1699:1770   */\n      tag_109\n      jumpi\n        /* \"#utility.yul\":1766:1767   */\n      0x00\n        /* \"#utility.yul\":1763:1764   */\n      0x00\n        /* \"#utility.yul\":1756:1768   */\n      revert\n        /* \"#utility.yul\":1699:1770   */\n    tag_109:\n        /* \"#utility.yul\":1638:1776   */\n      pop\n      jump\t// out\n        /* \"#utility.yul\":1782:1937   */\n    tag_74:\n        /* \"#utility.yul\":1836:1841   */\n      0x00\n        /* \"#utility.yul\":1874:1880   */\n      dup2\n        /* \"#utility.yul\":1861:1881   */\n      calldataload\n        /* \"#utility.yul\":1852:1881   */\n      swap1\n      pop\n        /* \"#utility.yul\":1890:1931   */\n      tag_111\n        /* \"#utility.yul\":1925:1930   */\n      dup2\n        /* \"#utility.yul\":1890:1931   */\n      tag_73\n      jump\t// in\n    tag_111:\n        /* \"#utility.yul\":1782:1937   */\n      swap3\n      swap2\n      pop\n      pop\n      jump\t// out\n        /* \"#utility.yul\":1943:2433   */\n    tag_16:\n        /* \"#utility.yul\":2019:2025   */\n      0x00\n        /* \"#utility.yul\":2027:2033   */\n      0x00\n        /* \"#utility.yul\":2076:2078   */\n      0x40\n        /* \"#utility.yul\":2064:2073   */\n      dup4\n        /* \"#utility.yul\":2055:2062   */\n      dup6\n        /* \"#utility.yul\":2051:2074   */\n      sub\n        /* \"#utility.yul\":2047:2079   */\n      slt\n        /* \"#utility.yul\":2044:2163   */\n      iszero\n      tag_113\n      jumpi\n        /* \"#utility.yul\":2082:2161   */\n      tag_114\n      tag_65\n      jump\t// in\n    tag_114:\n        /* \"#utility.yul\":2044:2163   */\n    tag_113:\n        /* \"#utility.yul\":2202:2203   */\n      0x00\n        /* \"#utility.yul\":2227:2288   */\n      tag_115\n        /* \"#utility.yul\":2280:2287   */\n      dup6\n        /* \"#utility.yul\":2271:2277   */\n      dup3\n        /* \"#utility.yul\":2260:2269   */\n      dup7\n        /* \"#utility.yul\":2256:2278   */\n      add\n        /* \"#utility.yul\":2227:2288   */\n      tag_74\n      jump\t// in\n    tag_115:\n        /* \"#utility.yul\":2217:2288   */\n      swap3\n      pop\n        /* \"#utility.yul\":2173:2298   */\n      pop\n        /* \"#utility.yul\":2337:2339   */\n      0x20\n        /* \"#utility.yul\":2363:2416   */\n      tag_116\n        /* \"#utility.yul\":2408:2415   */\n      dup6\n        /* \"#utility.yul\":2399:2405   */\n      dup3\n        /* \"#utility.yul\":2388:2397   */\n      dup7\n        /* \"#utility.yul\":2384:2406   */\n      add\n        /* \"#utility.yul\":2363:2416   */\n      tag_70\n      jump\t// in\n    tag_116:\n        /* \"#utility.yul\":2353:2416   */\n      swap2\n      pop\n        /* \"#utility.yul\":2308:2426   */\n      pop\n        /* \"#utility.yul\":1943:2433   */\n      swap3\n      pop\n      swap3\n      swap1\n      pop\n      jump\t// out\n        /* \"#utility.yul\":2439:2537   */\n    tag_75:\n        /* \"#utility.yul\":2490:2496   */\n      0x00\n        /* \"#utility.yul\":2524:2529   */\n      dup2\n        /* \"#utility.yul\":2518:2530   */\n      mload\n        /* \"#utility.yul\":2508:2530   */\n      swap1\n      pop\n        /* \"#utility.yul\":2439:2537   */\n      swap2\n      swap1\n      pop\n      jump\t// out\n        /* \"#utility.yul\":2543:2690   */\n    tag_76:\n        /* \"#utility.yul\":2644:2655   */\n      0x00\n        /* \"#utility.yul\":2681:2684   */\n      dup2\n        /* \"#utility.yul\":2666:2684   */\n      swap1\n      pop\n        /* \"#utility.yul\":2543:2690   */\n      swap3\n      swap2\n      pop\n      pop\n      jump\t// out\n        /* \"#utility.yul\":2696:2835   */\n    tag_77:\n        /* \"#utility.yul\":2785:2791   */\n      dup3\n        /* \"#utility.yul\":2780:2783   */\n      dup2\n        /* \"#utility.yul\":2775:2778   */\n      dup4\n        /* \"#utility.yul\":2769:2792   */\n      mcopy\n        /* \"#utility.yul\":2826:2827   */\n      0x00\n        /* \"#utility.yul\":2817:2823   */\n      dup4\n        /* \"#utility.yul\":2812:2815   */\n      dup4\n        /* \"#utility.yul\":2808:2824   */\n      add\n        /* \"#utility.yul\":2801:2828   */\n      mstore\n        /* \"#utility.yul\":2696:2835   */\n      pop\n      pop\n      pop\n      jump\t// out\n        /* \"#utility.yul\":2841:3227   */\n    tag_78:\n        /* \"#utility.yul\":2945:2948   */\n      0x00\n        /* \"#utility.yul\":2973:3011   */\n      tag_121\n        /* \"#utility.yul\":3005:3010   */\n      dup3\n        /* \"#utility.yul\":2973:3011   */\n      tag_75\n      jump\t// in\n    tag_121:\n        /* \"#utility.yul\":3027:3115   */\n      tag_122\n        /* \"#utility.yul\":3108:3114   */\n      dup2\n        /* \"#utility.yul\":3103:3106   */\n      dup6\n        /* \"#utility.yul\":3027:3115   */\n      tag_76\n      jump\t// in\n    tag_122:\n        /* \"#utility.yul\":3020:3115   */\n      swap4\n      pop\n        /* \"#utility.yul\":3124:3189   */\n      tag_123\n        /* \"#utility.yul\":3182:3188   */\n      dup2\n        /* \"#utility.yul\":3177:3180   */\n      dup6\n        /* \"#utility.yul\":3170:3174   */\n      0x20\n        /* \"#utility.yul\":3163:3168   */\n      dup7\n        /* \"#utility.yul\":3159:3175   */\n      add\n        /* \"#utility.yul\":3124:3189   */\n      tag_77\n      jump\t// in\n    tag_123:\n        /* \"#utility.yul\":3214:3220   */\n      dup1\n        /* \"#utility.yul\":3209:3212   */\n      dup5\n        /* \"#utility.yul\":3205:3221   */\n      add\n        /* \"#utility.yul\":3198:3221   */\n      swap2\n      pop\n        /* \"#utility.yul\":2949:3227   */\n      pop\n        /* \"#utility.yul\":2841:3227   */\n      swap3\n      swap2\n      pop\n      pop\n      jump\t// out\n        /* \"#utility.yul\":3233:3504   */\n    tag_30:\n        /* \"#utility.yul\":3363:3366   */\n      0x00\n        /* \"#utility.yul\":3385:3478   */\n      tag_125\n        /* \"#utility.yul\":3474:3477   */\n      dup3\n        /* \"#utility.yul\":3465:3471   */\n      dup5\n        /* \"#utility.yul\":3385:3478   */\n      tag_78\n      jump\t// in\n    tag_125:\n        /* \"#utility.yul\":3378:3478   */\n      swap2\n      pop\n        /* \"#utility.yul\":3495:3498   */\n      dup2\n        /* \"#utility.yul\":3488:3498   */\n      swap1\n      pop\n        /* \"#utility.yul\":3233:3504   */\n      swap3\n      swap2\n      pop\n      pop\n      jump\t// out\n        /* \"#utility.yul\":3510:3679   */\n    tag_79:\n        /* \"#utility.yul\":3594:3605   */\n      0x00\n        /* \"#utility.yul\":3628:3634   */\n      dup3\n        /* \"#utility.yul\":3623:3626   */\n      dup3\n        /* \"#utility.yul\":3616:3635   */\n      mstore\n        /* \"#utility.yul\":3668:3672   */\n      0x20\n        /* \"#utility.yul\":3663:3666   */\n      dup3\n        /* \"#utility.yul\":3659:3673   */\n      add\n        /* \"#utility.yul\":3644:3673   */\n      swap1\n      pop\n        /* \"#utility.yul\":3510:3679   */\n      swap3\n      swap2\n      pop\n      pop\n      jump\t// out\n        /* \"#utility.yul\":3685:3851   */\n    tag_80:\n        /* \"#utility.yul\":3825:3843   */\n      0x457865637574696f6e206661696c656400000000000000000000000000000000\n        /* \"#utility.yul\":3821:3822   */\n      0x00\n        /* \"#utility.yul\":3813:3819   */\n      dup3\n        /* \"#utility.yul\":3809:3823   */\n      add\n        /* \"#utility.yul\":3802:3844   */\n      mstore\n        /* \"#utility.yul\":3685:3851   */\n      pop\n      jump\t// out\n        /* \"#utility.yul\":3857:4223   */\n    tag_81:\n        /* \"#utility.yul\":3999:4002   */\n      0x00\n        /* \"#utility.yul\":4020:4087   */\n      tag_129\n        /* \"#utility.yul\":4084:4086   */\n      0x10\n        /* \"#utility.yul\":4079:4082   */\n      dup4\n        /* \"#utility.yul\":4020:4087   */\n      tag_79\n      jump\t// in\n    tag_129:\n        /* \"#utility.yul\":4013:4087   */\n      swap2\n      pop\n        /* \"#utility.yul\":4096:4189   */\n      tag_130\n        /* \"#utility.yul\":4185:4188   */\n      dup3\n        /* \"#utility.yul\":4096:4189   */\n      tag_80\n      jump\t// in\n    tag_130:\n        /* \"#utility.yul\":4214:4216   */\n      0x20\n        /* \"#utility.yul\":4209:4212   */\n      dup3\n        /* \"#utility.yul\":4205:4217   */\n      add\n        /* \"#utility.yul\":4198:4217   */\n      swap1\n      pop\n        /* \"#utility.yul\":3857:4223   */\n      swap2\n      swap1\n      pop\n      jump\t// out\n        /* \"#utility.yul\":4229:4648   */\n    tag_36:\n        /* \"#utility.yul\":4395:4399   */\n      0x00\n        /* \"#utility.yul\":4433:4435   */\n      0x20\n        /* \"#utility.yul\":4422:4431   */\n      dup3\n        /* \"#utility.yul\":4418:4436   */\n      add\n        /* \"#utility.yul\":4410:4436   */\n      swap1\n      pop\n        /* \"#utility.yul\":4482:4491   */\n      dup2\n        /* \"#utility.yul\":4476:4480   */\n      dup2\n        /* \"#utility.yul\":4472:4492   */\n      sub\n        /* \"#utility.yul\":4468:4469   */\n      0x00\n        /* \"#utility.yul\":4457:4466   */\n      dup4\n        /* \"#utility.yul\":4453:4470   */\n      add\n        /* \"#utility.yul\":4446:4493   */\n      mstore\n        /* \"#utility.yul\":4510:4641   */\n      tag_132\n        /* \"#utility.yul\":4636:4640   */\n      dup2\n        /* \"#utility.yul\":4510:4641   */\n      tag_81\n      jump\t// in\n    tag_132:\n        /* \"#utility.yul\":4502:4641   */\n      swap1\n      pop\n        /* \"#utility.yul\":4229:4648   */\n      swap2\n      swap1\n      pop\n      jump\t// out\n        /* \"#utility.yul\":4654:4813   */\n    tag_82:\n        /* \"#utility.yul\":4719:4724   */\n      0x00\n        /* \"#utility.yul\":4750:4756   */\n      dup2\n        /* \"#utility.yul\":4744:4757   */\n      mload\n        /* \"#utility.yul\":4735:4757   */\n      swap1\n      pop\n        /* \"#utility.yul\":4766:4807   */\n      tag_134\n        /* \"#utility.yul\":4801:4806   */\n      dup2\n        /* \"#utility.yul\":4766:4807   */\n      tag_73\n      jump\t// in\n    tag_134:\n        /* \"#utility.yul\":4654:4813   */\n      swap3\n      swap2\n      pop\n      pop\n      jump\t// out\n        /* \"#utility.yul\":4819:5186   */\n    tag_38:\n        /* \"#utility.yul\":4897:4903   */\n      0x00\n        /* \"#utility.yul\":4946:4948   */\n      0x20\n        /* \"#utility.yul\":4934:4943   */\n      dup3\n        /* \"#utility.yul\":4925:4932   */\n      dup5\n        /* \"#utility.yul\":4921:4944   */\n      sub\n        /* \"#utility.yul\":4917:4949   */\n      slt\n        /* \"#utility.yul\":4914:5033   */\n      iszero\n      tag_136\n      jumpi\n        /* \"#utility.yul\":4952:5031   */\n      tag_137\n      tag_65\n      jump\t// in\n    tag_137:\n        /* \"#utility.yul\":4914:5033   */\n    tag_136:\n        /* \"#utility.yul\":5072:5073   */\n      0x00\n        /* \"#utility.yul\":5097:5169   */\n      tag_138\n        /* \"#utility.yul\":5161:5168   */\n      dup5\n        /* \"#utility.yul\":5152:5158   */\n      dup3\n        /* \"#utility.yul\":5141:5150   */\n      dup6\n        /* \"#utility.yul\":5137:5159   */\n      add\n        /* \"#utility.yul\":5097:5169   */\n      tag_82\n      jump\t// in\n    tag_138:\n        /* \"#utility.yul\":5087:5169   */\n      swap2\n      pop\n        /* \"#utility.yul\":5043:5179   */\n      pop\n        /* \"#utility.yul\":4819:5186   */\n      swap3\n      swap2\n      pop\n      pop\n      jump\t// out\n        /* \"#utility.yul\":5192:5359   */\n    tag_83:\n        /* \"#utility.yul\":5332:5351   */\n      0x596f752063616e277420646f2074686973000000000000000000000000000000\n        /* \"#utility.yul\":5328:5329   */\n      0x00\n        /* \"#utility.yul\":5320:5326   */\n      dup3\n        /* \"#utility.yul\":5316:5330   */\n      add\n        /* \"#utility.yul\":5309:5352   */\n      mstore\n        /* \"#utility.yul\":5192:5359   */\n      pop\n      jump\t// out\n        /* \"#utility.yul\":5365:5731   */\n    tag_84:\n        /* \"#utility.yul\":5507:5510   */\n      0x00\n        /* \"#utility.yul\":5528:5595   */\n      tag_141\n        /* \"#utility.yul\":5592:5594   */\n      0x11\n        /* \"#utility.yul\":5587:5590   */\n      dup4\n        /* \"#utility.yul\":5528:5595   */\n      tag_79\n      jump\t// in\n    tag_141:\n        /* \"#utility.yul\":5521:5595   */\n      swap2\n      pop\n        /* \"#utility.yul\":5604:5697   */\n      tag_142\n        /* \"#utility.yul\":5693:5696   */\n      dup3\n        /* \"#utility.yul\":5604:5697   */\n      tag_83\n      jump\t// in\n    tag_142:\n        /* \"#utility.yul\":5722:5724   */\n      0x20\n        /* \"#utility.yul\":5717:5720   */\n      dup3\n        /* \"#utility.yul\":5713:5725   */\n      add\n        /* \"#utility.yul\":5706:5725   */\n      swap1\n      pop\n        /* \"#utility.yul\":5365:5731   */\n      swap2\n      swap1\n      pop\n      jump\t// out\n        /* \"#utility.yul\":5737:6156   */\n    tag_42:\n        /* \"#utility.yul\":5903:5907   */\n      0x00\n        /* \"#utility.yul\":5941:5943   */\n      0x20\n        /* \"#utility.yul\":5930:5939   */\n      dup3\n        /* \"#utility.yul\":5926:5944   */\n      add\n        /* \"#utility.yul\":5918:5944   */\n      swap1\n      pop\n        /* \"#utility.yul\":5990:5999   */\n      dup2\n        /* \"#utility.yul\":5984:5988   */\n      dup2\n        /* \"#utility.yul\":5980:6000   */\n      sub\n        /* \"#utility.yul\":5976:5977   */\n      0x00\n        /* \"#utility.yul\":5965:5974   */\n      dup4\n        /* \"#utility.yul\":5961:5978   */\n      add\n        /* \"#utility.yul\":5954:6001   */\n      mstore\n        /* \"#utility.yul\":6018:6149   */\n      tag_144\n        /* \"#utility.yul\":6144:6148   */\n      dup2\n        /* \"#utility.yul\":6018:6149   */\n      tag_84\n      jump\t// in\n    tag_144:\n        /* \"#utility.yul\":6010:6149   */\n      swap1\n      pop\n        /* \"#utility.yul\":5737:6156   */\n      swap2\n      swap1\n      pop\n      jump\t// out\n\n    auxdata: 0xa2646970667358221220e6cffbb77e7d833fb07735eb45c02fad029c648ad9aa7361fbec48e1241c103264736f6c634300081e0033\n}\n",
				"bytecode": {
					"linkReferences": {},
					"object": "6080604052348015600e575f5ffd5b50335f5f6101000a81548173ffffffffffffffffffffffffffffffffffffffff021916908373ffffffffffffffffffffffffffffffffffffffff16021790555061082c8061005b5f395ff3fe608060405234801561000f575f5ffd5b5060043610610055575f3560e01c8063212af320146100595780632c752046146100895780637eff275e146100a55780638da5cb5b146100c1578063f3b7dead146100df575b5f5ffd5b610073600480360381019061006e91906105a3565b61010f565b60405161008091906105dd565b60405180910390f35b6100a3600480360381019061009e9190610631565b610220565b005b6100bf60048036038101906100ba9190610631565b610318565b005b6100c9610410565b6040516100d691906105dd565b60405180910390f35b6100f960048036038101906100f491906105a3565b610434565b60405161010691906105dd565b60405180910390f35b5f5f5f8373ffffffffffffffffffffffffffffffffffffffff16604051602401604051602081830303815290604052635ec5fd1960e01b6020820180517bffffffffffffffffffffffffffffffffffffffffffffffffffffffff838183161783525050505060405161018191906106c1565b5f60405180830381855afa9150503d805f81146101b9576040519150601f19603f3d011682016040523d82523d5f602084013e6101be565b606091505b509150915081610203576040517f08c379a00000000000000000000000000000000000000000000000000000000081526004016101fa90610731565b60405180910390fd5b808060200190518101906102179190610763565b92505050919050565b5f5f9054906101000a900473ffffffffffffffffffffffffffffffffffffffff1673ffffffffffffffffffffffffffffffffffffffff163373ffffffffffffffffffffffffffffffffffffffff16146102ae576040517f08c379a00000000000000000000000000000000000000000000000000000000081526004016102a5906107d8565b60405180910390fd5b8173ffffffffffffffffffffffffffffffffffffffff1663fcf1e009826040518263ffffffff1660e01b81526004016102e791906105dd565b5f604051808303815f87803b1580156102fe575f5ffd5b505af1158015610310573d5f5f3e3d5ffd5b505050505050565b5f5f9054906101000a900473ffffffffffffffffffffffffffffffffffffffff1673ffffffffffffffffffffffffffffffffffffffff163373ffffffffffffffffffffffffffffffffffffffff16146103a6576040517f08c379a000000000000000000000000000000000000000000000000000000000815260040161039d906107d8565b60405180910390fd5b8173ffffffffffffffffffffffffffffffffffffffff16638f283970826040518263ffffffff1660e01b81526004016103df91906105dd565b5f604051808303815f87803b1580156103f6575f5ffd5b505af1158015610408573d5f5f3e3d5ffd5b505050505050565b5f5f9054906101000a900473ffffffffffffffffffffffffffffffffffffffff1681565b5f5f5f8373ffffffffffffffffffffffffffffffffffffffff16604051602401604051602081830303815290604052632865667f60e01b6020820180517bffffffffffffffffffffffffffffffffffffffffffffffffffffffff83818316178352505050506040516104a691906106c1565b5f60405180830381855afa9150503d805f81146104de576040519150601f19603f3d011682016040523d82523d5f602084013e6104e3565b606091505b509150915081610528576040517f08c379a000000000000000000000000000000000000000000000000000000000815260040161051f90610731565b60405180910390fd5b8080602001905181019061053c9190610763565b92505050919050565b5f5ffd5b5f73ffffffffffffffffffffffffffffffffffffffff82169050919050565b5f61057282610549565b9050919050565b61058281610568565b811461058c575f5ffd5b50565b5f8135905061059d81610579565b92915050565b5f602082840312156105b8576105b7610545565b5b5f6105c58482850161058f565b91505092915050565b6105d781610568565b82525050565b5f6020820190506105f05f8301846105ce565b92915050565b5f61060082610549565b9050919050565b610610816105f6565b811461061a575f5ffd5b50565b5f8135905061062b81610607565b92915050565b5f5f6040838503121561064757610646610545565b5b5f6106548582860161061d565b92505060206106658582860161058f565b9150509250929050565b5f81519050919050565b5f81905092915050565b8281835e5f83830152505050565b5f61069b8261066f565b6106a58185610679565b93506106b5818560208601610683565b80840191505092915050565b5f6106cc8284610691565b915081905092915050565b5f82825260208201905092915050565b7f457865637574696f6e206661696c6564000000000000000000000000000000005f82015250565b5f61071b6010836106d7565b9150610726826106e7565b602082019050919050565b5f6020820190508181035f8301526107488161070f565b9050919050565b5f8151905061075d81610607565b92915050565b5f6020828403121561077857610777610545565b5b5f6107858482850161074f565b91505092915050565b7f596f752063616e277420646f20746869730000000000000000000000000000005f82015250565b5f6107c26011836106d7565b91506107cd8261078e565b602082019050919050565b5f6020820190508181035f8301526107ef816107b6565b905091905056fea2646970667358221220e6cffbb77e7d833fb07735eb45c02fad029c648ad9aa7361fbec48e1241c103264736f6c634300081e0033",
					"opcodes": "PUSH1 0x80 PUSH1 0x40 MSTORE CALLVALUE DUP1 ISZERO PUSH1 0xE JUMPI PUSH0 PUSH0 REVERT JUMPDEST POP CALLER PUSH0 PUSH0 PUSH2 0x100 EXP DUP2 SLOAD DUP2 PUSH20 0xFFFFFFFFFFFFFFFFFFFFFFFFFFFFFFFFFFFFFFFF MUL NOT AND SWAP1 DUP4 PUSH20 0xFFFFFFFFFFFFFFFFFFFFFFFFFFFFFFFFFFFFFFFF AND MUL OR SWAP1 SSTORE POP PUSH2 0x82C DUP1 PUSH2 0x5B PUSH0 CODECOPY PUSH0 RETURN INVALID PUSH1 0x80 PUSH1 0x40 MSTORE CALLVALUE DUP1 ISZERO PUSH2 0xF JUMPI PUSH0 PUSH0 REVERT JUMPDEST POP PUSH1 0x4 CALLDATASIZE LT PUSH2 0x55 JUMPI PUSH0 CALLDATALOAD PUSH1 0xE0 SHR DUP1 PUSH4 0x212AF320 EQ PUSH2 0x59 JUMPI DUP1 PUSH4 0x2C752046 EQ PUSH2 0x89 JUMPI DUP1 PUSH4 0x7EFF275E EQ PUSH2 0xA5 JUMPI DUP1 PUSH4 0x8DA5CB5B EQ PUSH2 0xC1 JUMPI DUP1 PUSH4 0xF3B7DEAD EQ PUSH2 0xDF JUMPI JUMPDEST PUSH0 PUSH0 REVERT JUMPDEST PUSH2 0x73 PUSH1 0x4 DUP1 CALLDATASIZE SUB DUP2 ADD SWAP1 PUSH2 0x6E SWAP2 SWAP1 PUSH2 0x5A3 JUMP JUMPDEST PUSH2 0x10F JUMP JUMPDEST PUSH1 0x40 MLOAD PUSH2 0x80 SWAP2 SWAP1 PUSH2 0x5DD JUMP JUMPDEST PUSH1 0x40 MLOAD DUP1 SWAP2 SUB SWAP1 RETURN JUMPDEST PUSH2 0xA3 PUSH1 0x4 DUP1 CALLDATASIZE SUB DUP2 ADD SWAP1 PUSH2 0x9E SWAP2 SWAP1 PUSH2 0x631 JUMP JUMPDEST PUSH2 0x220 JUMP JUMPDEST STOP JUMPDEST PUSH2 0xBF PUSH1 0x4 DUP1 CALLDATASIZE SUB DUP2 ADD SWAP1 PUSH2 0xBA SWAP2 SWAP1 PUSH2 0x631 JUMP JUMPDEST PUSH2 0x318 JUMP JUMPDEST STOP JUMPDEST PUSH2 0xC9 PUSH2 0x410 JUMP JUMPDEST PUSH1 0x40 MLOAD PUSH2 0xD6 SWAP2 SWAP1 PUSH2 0x5DD JUMP JUMPDEST PUSH1 0x40 MLOAD DUP1 SWAP2 SUB SWAP1 RETURN JUMPDEST PUSH2 0xF9 PUSH1 0x4 DUP1 CALLDATASIZE SUB DUP2 ADD SWAP1 PUSH2 0xF4 SWAP2 SWAP1 PUSH2 0x5A3 JUMP JUMPDEST PUSH2 0x434 JUMP JUMPDEST PUSH1 0x40 MLOAD PUSH2 0x106 SWAP2 SWAP1 PUSH2 0x5DD JUMP JUMPDEST PUSH1 0x40 MLOAD DUP1 SWAP2 SUB SWAP1 RETURN JUMPDEST PUSH0 PUSH0 PUSH0 DUP4 PUSH20 0xFFFFFFFFFFFFFFFFFFFFFFFFFFFFFFFFFFFFFFFF AND PUSH1 0x40 MLOAD PUSH1 0x24 ADD PUSH1 0x40 MLOAD PUSH1 0x20 DUP2 DUP4 SUB SUB DUP2 MSTORE SWAP1 PUSH1 0x40 MSTORE PUSH4 0x5EC5FD19 PUSH1 0xE0 SHL PUSH1 0x20 DUP3 ADD DUP1 MLOAD PUSH28 0xFFFFFFFFFFFFFFFFFFFFFFFFFFFFFFFFFFFFFFFFFFFFFFFFFFFFFFFF DUP4 DUP2 DUP4 AND OR DUP4 MSTORE POP POP POP POP PUSH1 0x40 MLOAD PUSH2 0x181 SWAP2 SWAP1 PUSH2 0x6C1 JUMP JUMPDEST PUSH0 PUSH1 0x40 MLOAD DUP1 DUP4 SUB DUP2 DUP6 GAS STATICCALL SWAP2 POP POP RETURNDATASIZE DUP1 PUSH0 DUP2 EQ PUSH2 0x1B9 JUMPI PUSH1 0x40 MLOAD SWAP2 POP PUSH1 0x1F NOT PUSH1 0x3F RETURNDATASIZE ADD AND DUP3 ADD PUSH1 0x40 MSTORE RETURNDATASIZE DUP3 MSTORE RETURNDATASIZE PUSH0 PUSH1 0x20 DUP5 ADD RETURNDATACOPY PUSH2 0x1BE JUMP JUMPDEST PUSH1 0x60 SWAP2 POP JUMPDEST POP SWAP2 POP SWAP2 POP DUP2 PUSH2 0x203 JUMPI PUSH1 0x40 MLOAD PUSH32 0x8C379A000000000000000000000000000000000000000000000000000000000 DUP2 MSTORE PUSH1 0x4 ADD PUSH2 0x1FA SWAP1 PUSH2 0x731 JUMP JUMPDEST PUSH1 0x40 MLOAD DUP1 SWAP2 SUB SWAP1 REVERT JUMPDEST DUP1 DUP1 PUSH1 0x20 ADD SWAP1 MLOAD DUP2 ADD SWAP1 PUSH2 0x217 SWAP2 SWAP1 PUSH2 0x763 JUMP JUMPDEST SWAP3 POP POP POP SWAP2 SWAP1 POP JUMP JUMPDEST PUSH0 PUSH0 SWAP1 SLOAD SWAP1 PUSH2 0x100 EXP SWAP1 DIV PUSH20 0xFFFFFFFFFFFFFFFFFFFFFFFFFFFFFFFFFFFFFFFF AND PUSH20 0xFFFFFFFFFFFFFFFFFFFFFFFFFFFFFFFFFFFFFFFF AND CALLER PUSH20 0xFFFFFFFFFFFFFFFFFFFFFFFFFFFFFFFFFFFFFFFF AND EQ PUSH2 0x2AE JUMPI PUSH1 0x40 MLOAD PUSH32 0x8C379A000000000000000000000000000000000000000000000000000000000 DUP2 MSTORE PUSH1 0x4 ADD PUSH2 0x2A5 SWAP1 PUSH2 0x7D8 JUMP JUMPDEST PUSH1 0x40 MLOAD DUP1 SWAP2 SUB SWAP1 REVERT JUMPDEST DUP2 PUSH20 0xFFFFFFFFFFFFFFFFFFFFFFFFFFFFFFFFFFFFFFFF AND PUSH4 0xFCF1E009 DUP3 PUSH1 0x40 MLOAD DUP3 PUSH4 0xFFFFFFFF AND PUSH1 0xE0 SHL DUP2 MSTORE PUSH1 0x4 ADD PUSH2 0x2E7 SWAP2 SWAP1 PUSH2 0x5DD JUMP JUMPDEST PUSH0 PUSH1 0x40 MLOAD DUP1 DUP4 SUB DUP2 PUSH0 DUP8 DUP1 EXTCODESIZE ISZERO DUP1 ISZERO PUSH2 0x2FE JUMPI PUSH0 PUSH0 REVERT JUMPDEST POP GAS CALL ISZERO DUP1 ISZERO PUSH2 0x310 JUMPI RETURNDATASIZE PUSH0 PUSH0 RETURNDATACOPY RETURNDATASIZE PUSH0 REVERT JUMPDEST POP POP POP POP POP POP JUMP JUMPDEST PUSH0 PUSH0 SWAP1 SLOAD SWAP1 PUSH2 0x100 EXP SWAP1 DIV PUSH20 0xFFFFFFFFFFFFFFFFFFFFFFFFFFFFFFFFFFFFFFFF AND PUSH20 0xFFFFFFFFFFFFFFFFFFFFFFFFFFFFFFFFFFFFFFFF AND CALLER PUSH20 0xFFFFFFFFFFFFFFFFFFFFFFFFFFFFFFFFFFFFFFFF AND EQ PUSH2 0x3A6 JUMPI PUSH1 0x40 MLOAD PUSH32 0x8C379A000000000000000000000000000000000000000000000000000000000 DUP2 MSTORE PUSH1 0x4 ADD PUSH2 0x39D SWAP1 PUSH2 0x7D8 JUMP JUMPDEST PUSH1 0x40 MLOAD DUP1 SWAP2 SUB SWAP1 REVERT JUMPDEST DUP2 PUSH20 0xFFFFFFFFFFFFFFFFFFFFFFFFFFFFFFFFFFFFFFFF AND PUSH4 0x8F283970 DUP3 PUSH1 0x40 MLOAD DUP3 PUSH4 0xFFFFFFFF AND PUSH1 0xE0 SHL DUP2 MSTORE PUSH1 0x4 ADD PUSH2 0x3DF SWAP2 SWAP1 PUSH2 0x5DD JUMP JUMPDEST PUSH0 PUSH1 0x40 MLOAD DUP1 DUP4 SUB DUP2 PUSH0 DUP8 DUP1 EXTCODESIZE ISZERO DUP1 ISZERO PUSH2 0x3F6 JUMPI PUSH0 PUSH0 REVERT JUMPDEST POP GAS CALL ISZERO DUP1 ISZERO PUSH2 0x408 JUMPI RETURNDATASIZE PUSH0 PUSH0 RETURNDATACOPY RETURNDATASIZE PUSH0 REVERT JUMPDEST POP POP POP POP POP POP JUMP JUMPDEST PUSH0 PUSH0 SWAP1 SLOAD SWAP1 PUSH2 0x100 EXP SWAP1 DIV PUSH20 0xFFFFFFFFFFFFFFFFFFFFFFFFFFFFFFFFFFFFFFFF AND DUP2 JUMP JUMPDEST PUSH0 PUSH0 PUSH0 DUP4 PUSH20 0xFFFFFFFFFFFFFFFFFFFFFFFFFFFFFFFFFFFFFFFF AND PUSH1 0x40 MLOAD PUSH1 0x24 ADD PUSH1 0x40 MLOAD PUSH1 0x20 DUP2 DUP4 SUB SUB DUP2 MSTORE SWAP1 PUSH1 0x40 MSTORE PUSH4 0x2865667F PUSH1 0xE0 SHL PUSH1 0x20 DUP3 ADD DUP1 MLOAD PUSH28 0xFFFFFFFFFFFFFFFFFFFFFFFFFFFFFFFFFFFFFFFFFFFFFFFFFFFFFFFF DUP4 DUP2 DUP4 AND OR DUP4 MSTORE POP POP POP POP PUSH1 0x40 MLOAD PUSH2 0x4A6 SWAP2 SWAP1 PUSH2 0x6C1 JUMP JUMPDEST PUSH0 PUSH1 0x40 MLOAD DUP1 DUP4 SUB DUP2 DUP6 GAS STATICCALL SWAP2 POP POP RETURNDATASIZE DUP1 PUSH0 DUP2 EQ PUSH2 0x4DE JUMPI PUSH1 0x40 MLOAD SWAP2 POP PUSH1 0x1F NOT PUSH1 0x3F RETURNDATASIZE ADD AND DUP3 ADD PUSH1 0x40 MSTORE RETURNDATASIZE DUP3 MSTORE RETURNDATASIZE PUSH0 PUSH1 0x20 DUP5 ADD RETURNDATACOPY PUSH2 0x4E3 JUMP JUMPDEST PUSH1 0x60 SWAP2 POP JUMPDEST POP SWAP2 POP SWAP2 POP DUP2 PUSH2 0x528 JUMPI PUSH1 0x40 MLOAD PUSH32 0x8C379A000000000000000000000000000000000000000000000000000000000 DUP2 MSTORE PUSH1 0x4 ADD PUSH2 0x51F SWAP1 PUSH2 0x731 JUMP JUMPDEST PUSH1 0x40 MLOAD DUP1 SWAP2 SUB SWAP1 REVERT JUMPDEST DUP1 DUP1 PUSH1 0x20 ADD SWAP1 MLOAD DUP2 ADD SWAP1 PUSH2 0x53C SWAP2 SWAP1 PUSH2 0x763 JUMP JUMPDEST SWAP3 POP POP POP SWAP2 SWAP1 POP JUMP JUMPDEST PUSH0 PUSH0 REVERT JUMPDEST PUSH0 PUSH20 0xFFFFFFFFFFFFFFFFFFFFFFFFFFFFFFFFFFFFFFFF DUP3 AND SWAP1 POP SWAP2 SWAP1 POP JUMP JUMPDEST PUSH0 PUSH2 0x572 DUP3 PUSH2 0x549 JUMP JUMPDEST SWAP1 POP SWAP2 SWAP1 POP JUMP JUMPDEST PUSH2 0x582 DUP2 PUSH2 0x568 JUMP JUMPDEST DUP2 EQ PUSH2 0x58C JUMPI PUSH0 PUSH0 REVERT JUMPDEST POP JUMP JUMPDEST PUSH0 DUP2 CALLDATALOAD SWAP1 POP PUSH2 0x59D DUP2 PUSH2 0x579 JUMP JUMPDEST SWAP3 SWAP2 POP POP JUMP JUMPDEST PUSH0 PUSH1 0x20 DUP3 DUP5 SUB SLT ISZERO PUSH2 0x5B8 JUMPI PUSH2 0x5B7 PUSH2 0x545 JUMP JUMPDEST JUMPDEST PUSH0 PUSH2 0x5C5 DUP5 DUP3 DUP6 ADD PUSH2 0x58F JUMP JUMPDEST SWAP2 POP POP SWAP3 SWAP2 POP POP JUMP JUMPDEST PUSH2 0x5D7 DUP2 PUSH2 0x568 JUMP JUMPDEST DUP3 MSTORE POP POP JUMP JUMPDEST PUSH0 PUSH1 0x20 DUP3 ADD SWAP1 POP PUSH2 0x5F0 PUSH0 DUP4 ADD DUP5 PUSH2 0x5CE JUMP JUMPDEST SWAP3 SWAP2 POP POP JUMP JUMPDEST PUSH0 PUSH2 0x600 DUP3 PUSH2 0x549 JUMP JUMPDEST SWAP1 POP SWAP2 SWAP1 POP JUMP JUMPDEST PUSH2 0x610 DUP2 PUSH2 0x5F6 JUMP JUMPDEST DUP2 EQ PUSH2 0x61A JUMPI PUSH0 PUSH0 REVERT JUMPDEST POP JUMP JUMPDEST PUSH0 DUP2 CALLDATALOAD SWAP1 POP PUSH2 0x62B DUP2 PUSH2 0x607 JUMP JUMPDEST SWAP3 SWAP2 POP POP JUMP JUMPDEST PUSH0 PUSH0 PUSH1 0x40 DUP4 DUP6 SUB SLT ISZERO PUSH2 0x647 JUMPI PUSH2 0x646 PUSH2 0x545 JUMP JUMPDEST JUMPDEST PUSH0 PUSH2 0x654 DUP6 DUP3 DUP7 ADD PUSH2 0x61D JUMP JUMPDEST SWAP3 POP POP PUSH1 0x20 PUSH2 0x665 DUP6 DUP3 DUP7 ADD PUSH2 0x58F JUMP JUMPDEST SWAP2 POP POP SWAP3 POP SWAP3 SWAP1 POP JUMP JUMPDEST PUSH0 DUP2 MLOAD SWAP1 POP SWAP2 SWAP1 POP JUMP JUMPDEST PUSH0 DUP2 SWAP1 POP SWAP3 SWAP2 POP POP JUMP JUMPDEST DUP3 DUP2 DUP4 MCOPY PUSH0 DUP4 DUP4 ADD MSTORE POP POP POP JUMP JUMPDEST PUSH0 PUSH2 0x69B DUP3 PUSH2 0x66F JUMP JUMPDEST PUSH2 0x6A5 DUP2 DUP6 PUSH2 0x679 JUMP JUMPDEST SWAP4 POP PUSH2 0x6B5 DUP2 DUP6 PUSH1 0x20 DUP7 ADD PUSH2 0x683 JUMP JUMPDEST DUP1 DUP5 ADD SWAP2 POP POP SWAP3 SWAP2 POP POP JUMP JUMPDEST PUSH0 PUSH2 0x6CC DUP3 DUP5 PUSH2 0x691 JUMP JUMPDEST SWAP2 POP DUP2 SWAP1 POP SWAP3 SWAP2 POP POP JUMP JUMPDEST PUSH0 DUP3 DUP3 MSTORE PUSH1 0x20 DUP3 ADD SWAP1 POP SWAP3 SWAP2 POP POP JUMP JUMPDEST PUSH32 0x457865637574696F6E206661696C656400000000000000000000000000000000 PUSH0 DUP3 ADD MSTORE POP JUMP JUMPDEST PUSH0 PUSH2 0x71B PUSH1 0x10 DUP4 PUSH2 0x6D7 JUMP JUMPDEST SWAP2 POP PUSH2 0x726 DUP3 PUSH2 0x6E7 JUMP JUMPDEST PUSH1 0x20 DUP3 ADD SWAP1 POP SWAP2 SWAP1 POP JUMP JUMPDEST PUSH0 PUSH1 0x20 DUP3 ADD SWAP1 POP DUP2 DUP2 SUB PUSH0 DUP4 ADD MSTORE PUSH2 0x748 DUP2 PUSH2 0x70F JUMP JUMPDEST SWAP1 POP SWAP2 SWAP1 POP JUMP JUMPDEST PUSH0 DUP2 MLOAD SWAP1 POP PUSH2 0x75D DUP2 PUSH2 0x607 JUMP JUMPDEST SWAP3 SWAP2 POP POP JUMP JUMPDEST PUSH0 PUSH1 0x20 DUP3 DUP5 SUB SLT ISZERO PUSH2 0x778 JUMPI PUSH2 0x777 PUSH2 0x545 JUMP JUMPDEST JUMPDEST PUSH0 PUSH2 0x785 DUP5 DUP3 DUP6 ADD PUSH2 0x74F JUMP JUMPDEST SWAP2 POP POP SWAP3 SWAP2 POP POP JUMP JUMPDEST PUSH32 0x596F752063616E277420646F2074686973000000000000000000000000000000 PUSH0 DUP3 ADD MSTORE POP JUMP JUMPDEST PUSH0 PUSH2 0x7C2 PUSH1 0x11 DUP4 PUSH2 0x6D7 JUMP JUMPDEST SWAP2 POP PUSH2 0x7CD DUP3 PUSH2 0x78E JUMP JUMPDEST PUSH1 0x20 DUP3 ADD SWAP1 POP SWAP2 SWAP1 POP JUMP JUMPDEST PUSH0 PUSH1 0x20 DUP3 ADD SWAP1 POP DUP2 DUP2 SUB PUSH0 DUP4 ADD MSTORE PUSH2 0x7EF DUP2 PUSH2 0x7B6 JUMP JUMPDEST SWAP1 POP SWAP2 SWAP1 POP JUMP INVALID LOG2 PUSH5 0x6970667358 0x22 SLT KECCAK256 DUPN 0xCF EXTSTATICCALL 0xB7 PUSH31 0x7D833FB07735EB45C02FAD029C648AD9AA7361FBEC48E1241C103264736F6C PUSH4 0x4300081E STOP CALLER "
				},
				"gasEstimates": {
					"creation": {
						"codeDepositCost": "418400",
						"executionCost": "24717",
						"totalCost": "443117"
					},
					"external": {
						"changeProxyAdmin(address,address)": "infinite",
						"changeProxyImpl(address,address)": "infinite",
						"getProxyAdmin(address)": "infinite",
						"getProxyImpl(address)": "infinite",
						"owner()": "2551"
					}
				},
				"methodIdentifiers": {
					"changeProxyAdmin(address,address)": "7eff275e",
					"changeProxyImpl(address,address)": "2c752046",
					"getProxyAdmin(address)": "f3b7dead",
					"getProxyImpl(address)": "212af320",
					"owner()": "8da5cb5b"
				}
			},
			"storageLayout": {
				"storage": [
					{
						"astId": 267,
						"contract": "Logic.sol:ProxyAdmin",
						"label": "owner",
						"offset": 0,
						"slot": "0",
						"type": "t_address"
					}
				],
				"types": {
					"t_address": {
						"encoding": "inplace",
						"label": "address",
						"numberOfBytes": "20"
					}
				}
			},
			"userdoc": {
				"kind": "user",
				"methods": {},
				"version": 1
			}
		}
	}
}