{
	"Logic.sol": {
		"Proxy": {
			"abi": [
				{
					"inputs": [],
					"stateMutability": "nonpayable",
					"type": "constructor"
				},
				{
					"stateMutability": "payable",
					"type": "fallback"
				},
				{
					"inputs": [
						{
							"internalType": "address",
							"name": "_admin",
							"type": "address"
						}
					],
					"name": "changeAdmin",
					"outputs": [],
					"stateMutability": "nonpayable",
					"type": "function"
				},
				{
					"inputs": [],
					"name": "readAdmin",
					"outputs": [
						{
							"internalType": "address",
							"name": "",
							"type": "address"
						}
					],
					"stateMutability": "nonpayable",
					"type": "function"
				},
				{
					"inputs": [],
					"name": "readImpl",
					"outputs": [
						{
							"internalType": "address",
							"name": "",
							"type": "address"
						}
					],
					"stateMutability": "nonpayable",
					"type": "function"
				},
				{
					"inputs": [
						{
							"internalType": "address",
							"name": "_impl",
							"type": "address"
						}
					],
					"name": "updateImpl",
					"outputs": [],
					"stateMutability": "nonpayable",
					"type": "function"
				},
				{
					"stateMutability": "payable",
					"type": "receive"
				}
			],
			"devdoc": {
				"kind": "dev",
				"methods": {},
				"version": 1
			},
			"evm": {
				"assembly": "    /* \"Logic.sol\":988:4260  contract Proxy{ // contract for proxy used to delegate calls to the implementation logic above... */\n  mstore(0x40, 0x80)\n    /* \"Logic.sol\":1488:1540  constructor(){... */\n  callvalue\n  dup1\n  iszero\n  tag_1\n  jumpi\n  revert(0x00, 0x00)\ntag_1:\n  pop\n    /* \"Logic.sol\":1512:1532  setAdmin(msg.sender) */\n  tag_4\n    /* \"Logic.sol\":1521:1531  msg.sender */\n  caller\n    /* \"Logic.sol\":1512:1520  setAdmin */\n  shl(0x20, tag_5)\n    /* \"Logic.sol\":1512:1532  setAdmin(msg.sender) */\n  0x20\n  shr\n  jump\t// in\ntag_4:\n    /* \"Logic.sol\":988:4260  contract Proxy{ // contract for proxy used to delegate calls to the implementation logic above... */\n  jump(tag_6)\n    /* \"Logic.sol\":1974:2147  function setAdmin(address _admin) private {... */\ntag_5:\n    /* \"Logic.sol\":2053:2054  0 */\n  0x00\n    /* \"Logic.sol\":2035:2055  _admin != address(0) */\n  0xffffffffffffffffffffffffffffffffffffffff\n  and\n    /* \"Logic.sol\":2035:2041  _admin */\n  dup2\n    /* \"Logic.sol\":2035:2055  _admin != address(0) */\n  0xffffffffffffffffffffffffffffffffffffffff\n  and\n  sub\n    /* \"Logic.sol\":2027:2075  require(_admin != address(0), \"Invalid address\") */\n  tag_8\n  jumpi\n  mload(0x40)\n  0x08c379a000000000000000000000000000000000000000000000000000000000\n  dup2\n  mstore\n  0x04\n  add\n  tag_9\n  swap1\n  tag_10\n  jump\t// in\ntag_9:\n  mload(0x40)\n  dup1\n  swap2\n  sub\n  swap1\n  revert\ntag_8:\n    /* \"Logic.sol\":2133:2139  _admin */\n  dup1\n    /* \"Logic.sol\":2086:2124  StorageSlot.getAddressSlot(ADMIN_SLOT) */\n  tag_11\n    /* \"Logic.sol\":1432:1433  1 */\n  0x01\n    /* \"Logic.sol\":1396:1428  keccak256(\"eip1967.proxy.admin\") */\n  0xb53127684a568b3173ae13b9f8a6016e243e63b6e8ee1178d6a717850b5d6104\n    /* \"Logic.sol\":1391:1429  uint(keccak256(\"eip1967.proxy.admin\")) */\n  0x00\n  shr\n    /* \"Logic.sol\":1391:1433  uint(keccak256(\"eip1967.proxy.admin\")) - 1 */\n  tag_12\n  swap2\n  swap1\n  tag_13\n  jump\t// in\ntag_12:\n    /* \"Logic.sol\":1383:1434  bytes32(uint(keccak256(\"eip1967.proxy.admin\")) - 1) */\n  0x00\n  shl\n    /* \"Logic.sol\":2086:2112  StorageSlot.getAddressSlot */\n  shl(0x20, tag_14)\n    /* \"Logic.sol\":2086:2124  StorageSlot.getAddressSlot(ADMIN_SLOT) */\n  0x20\n  shr\n  jump\t// in\ntag_11:\n    /* \"Logic.sol\":2086:2130  StorageSlot.getAddressSlot(ADMIN_SLOT).value */\n  0x00\n  add\n  0x00\n    /* \"Logic.sol\":2086:2139  StorageSlot.getAddressSlot(ADMIN_SLOT).value = _admin */\n  0x0100\n  exp\n  dup2\n  sload\n  dup2\n  0xffffffffffffffffffffffffffffffffffffffff\n  mul\n  not\n  and\n  swap1\n  dup4\n  0xffffffffffffffffffffffffffffffffffffffff\n  and\n  mul\n  or\n  swap1\n  sstore\n  pop\n    /* \"Logic.sol\":1974:2147  function setAdmin(address _admin) private {... */\n  pop\n  jump\t// out\n    /* \"Logic.sol\":6061:6211  function getAddressSlot(bytes32 slot) internal pure returns (AddressSlot storage r){... */\ntag_14:\n    /* \"Logic.sol\":6122:6143  AddressSlot storage r */\n  0x00\n    /* \"Logic.sol\":6189:6193  slot */\n  dup2\n    /* \"Logic.sol\":6179:6193  r.slot := slot */\n  swap1\n  pop\n    /* \"Logic.sol\":6061:6211  function getAddressSlot(bytes32 slot) internal pure returns (AddressSlot storage r){... */\n  swap2\n  swap1\n  pop\n  jump\t// out\n    /* \"#utility.yul\":7:176   */\ntag_16:\n    /* \"#utility.yul\":91:102   */\n  0x00\n    /* \"#utility.yul\":125:131   */\n  dup3\n    /* \"#utility.yul\":120:123   */\n  dup3\n    /* \"#utility.yul\":113:132   */\n  mstore\n    /* \"#utility.yul\":165:169   */\n  0x20\n    /* \"#utility.yul\":160:163   */\n  dup3\n    /* \"#utility.yul\":156:170   */\n  add\n    /* \"#utility.yul\":141:170   */\n  swap1\n  pop\n    /* \"#utility.yul\":7:176   */\n  swap3\n  swap2\n  pop\n  pop\n  jump\t// out\n    /* \"#utility.yul\":182:347   */\ntag_17:\n    /* \"#utility.yul\":322:339   */\n  0x496e76616c696420616464726573730000000000000000000000000000000000\n    /* \"#utility.yul\":318:319   */\n  0x00\n    /* \"#utility.yul\":310:316   */\n  dup3\n    /* \"#utility.yul\":306:320   */\n  add\n    /* \"#utility.yul\":299:340   */\n  mstore\n    /* \"#utility.yul\":182:347   */\n  pop\n  jump\t// out\n    /* \"#utility.yul\":353:719   */\ntag_18:\n    /* \"#utility.yul\":495:498   */\n  0x00\n    /* \"#utility.yul\":516:583   */\n  tag_25\n    /* \"#utility.yul\":580:582   */\n  0x0f\n    /* \"#utility.yul\":575:578   */\n  dup4\n    /* \"#utility.yul\":516:583   */\n  tag_16\n  jump\t// in\ntag_25:\n    /* \"#utility.yul\":509:583   */\n  swap2\n  pop\n    /* \"#utility.yul\":592:685   */\n  tag_26\n    /* \"#utility.yul\":681:684   */\n  dup3\n    /* \"#utility.yul\":592:685   */\n  tag_17\n  jump\t// in\ntag_26:\n    /* \"#utility.yul\":710:712   */\n  0x20\n    /* \"#utility.yul\":705:708   */\n  dup3\n    /* \"#utility.yul\":701:713   */\n  add\n    /* \"#utility.yul\":694:713   */\n  swap1\n  pop\n    /* \"#utility.yul\":353:719   */\n  swap2\n  swap1\n  pop\n  jump\t// out\n    /* \"#utility.yul\":725:1144   */\ntag_10:\n    /* \"#utility.yul\":891:895   */\n  0x00\n    /* \"#utility.yul\":929:931   */\n  0x20\n    /* \"#utility.yul\":918:927   */\n  dup3\n    /* \"#utility.yul\":914:932   */\n  add\n    /* \"#utility.yul\":906:932   */\n  swap1\n  pop\n    /* \"#utility.yul\":978:987   */\n  dup2\n    /* \"#utility.yul\":972:976   */\n  dup2\n    /* \"#utility.yul\":968:988   */\n  sub\n    /* \"#utility.yul\":964:965   */\n  0x00\n    /* \"#utility.yul\":953:962   */\n  dup4\n    /* \"#utility.yul\":949:966   */\n  add\n    /* \"#utility.yul\":942:989   */\n  mstore\n    /* \"#utility.yul\":1006:1137   */\n  tag_28\n    /* \"#utility.yul\":1132:1136   */\n  dup2\n    /* \"#utility.yul\":1006:1137   */\n  tag_18\n  jump\t// in\ntag_28:\n    /* \"#utility.yul\":998:1137   */\n  swap1\n  pop\n    /* \"#utility.yul\":725:1144   */\n  swap2\n  swap1\n  pop\n  jump\t// out\n    /* \"#utility.yul\":1150:1227   */\ntag_19:\n    /* \"#utility.yul\":1187:1194   */\n  0x00\n    /* \"#utility.yul\":1216:1221   */\n  dup2\n    /* \"#utility.yul\":1205:1221   */\n  swap1\n  pop\n    /* \"#utility.yul\":1150:1227   */\n  swap2\n  swap1\n  pop\n  jump\t// out\n    /* \"#utility.yul\":1233:1413   */\ntag_20:\n    /* \"#utility.yul\":1281:1358   */\n  0x4e487b7100000000000000000000000000000000000000000000000000000000\n    /* \"#utility.yul\":1278:1279   */\n  0x00\n    /* \"#utility.yul\":1271:1359   */\n  mstore\n    /* \"#utility.yul\":1378:1382   */\n  0x11\n    /* \"#utility.yul\":1375:1376   */\n  0x04\n    /* \"#utility.yul\":1368:1383   */\n  mstore\n    /* \"#utility.yul\":1402:1406   */\n  0x24\n    /* \"#utility.yul\":1399:1400   */\n  0x00\n    /* \"#utility.yul\":1392:1407   */\n  revert\n    /* \"#utility.yul\":1419:1613   */\ntag_13:\n    /* \"#utility.yul\":1459:1463   */\n  0x00\n    /* \"#utility.yul\":1479:1499   */\n  tag_32\n    /* \"#utility.yul\":1497:1498   */\n  dup3\n    /* \"#utility.yul\":1479:1499   */\n  tag_19\n  jump\t// in\ntag_32:\n    /* \"#utility.yul\":1474:1499   */\n  swap2\n  pop\n    /* \"#utility.yul\":1513:1533   */\n  tag_33\n    /* \"#utility.yul\":1531:1532   */\n  dup4\n    /* \"#utility.yul\":1513:1533   */\n  tag_19\n  jump\t// in\ntag_33:\n    /* \"#utility.yul\":1508:1533   */\n  swap3\n  pop\n    /* \"#utility.yul\":1557:1558   */\n  dup3\n    /* \"#utility.yul\":1554:1555   */\n  dup3\n    /* \"#utility.yul\":1550:1559   */\n  sub\n    /* \"#utility.yul\":1542:1559   */\n  swap1\n  pop\n    /* \"#utility.yul\":1581:1582   */\n  dup2\n    /* \"#utility.yul\":1575:1579   */\n  dup2\n    /* \"#utility.yul\":1572:1583   */\n  gt\n    /* \"#utility.yul\":1569:1606   */\n  iszero\n  tag_34\n  jumpi\n    /* \"#utility.yul\":1586:1604   */\n  tag_35\n  tag_20\n  jump\t// in\ntag_35:\n    /* \"#utility.yul\":1569:1606   */\ntag_34:\n    /* \"#utility.yul\":1419:1613   */\n  swap3\n  swap2\n  pop\n  pop\n  jump\t// out\n    /* \"Logic.sol\":988:4260  contract Proxy{ // contract for proxy used to delegate calls to the implementation logic above... */\ntag_6:\n  dataSize(sub_0)\n  dup1\n  dataOffset(sub_0)\n  0x00\n  codecopy\n  0x00\n  return\nstop\n\nsub_0: assembly {\n        /* \"Logic.sol\":988:4260  contract Proxy{ // contract for proxy used to delegate calls to the implementation logic above... */\n      mstore(0x40, 0x80)\n      jumpi(tag_1, lt(calldatasize, 0x04))\n      shr(0xe0, calldataload(0x00))\n      dup1\n      0x2865667f\n      eq\n      tag_3\n      jumpi\n      dup1\n      0x5ec5fd19\n      eq\n      tag_4\n      jumpi\n      dup1\n      0x8f283970\n      eq\n      tag_5\n      jumpi\n      dup1\n      0xfcf1e009\n      eq\n      tag_6\n      jumpi\n      jump(tag_2)\n    tag_1:\n      jumpi(tag_2, calldatasize)\n        /* \"Logic.sol\":4237:4248  _fallback() */\n      tag_9\n        /* \"Logic.sol\":4237:4246  _fallback */\n      tag_10\n        /* \"Logic.sol\":4237:4248  _fallback() */\n      jump\t// in\n    tag_9:\n        /* \"Logic.sol\":988:4260  contract Proxy{ // contract for proxy used to delegate calls to the implementation logic above... */\n      stop\n    tag_2:\n        /* \"Logic.sol\":4093:4104  _fallback() */\n      tag_13\n        /* \"Logic.sol\":4093:4102  _fallback */\n      tag_10\n        /* \"Logic.sol\":4093:4104  _fallback() */\n      jump\t// in\n    tag_13:\n        /* \"Logic.sol\":988:4260  contract Proxy{ // contract for proxy used to delegate calls to the implementation logic above... */\n      stop\n        /* \"Logic.sol\":3050:3143  function readAdmin() external OnlyAdmin returns (address){... */\n    tag_3:\n      callvalue\n      dup1\n      iszero\n      tag_14\n      jumpi\n      revert(0x00, 0x00)\n    tag_14:\n      pop\n      tag_15\n      tag_16\n      jump\t// in\n    tag_15:\n      mload(0x40)\n      tag_17\n      swap2\n      swap1\n      tag_18\n      jump\t// in\n    tag_17:\n      mload(0x40)\n      dup1\n      swap2\n      sub\n      swap1\n      return\n        /* \"Logic.sol\":2909:3000  function readImpl() external OnlyAdmin returns (address){... */\n    tag_4:\n      callvalue\n      dup1\n      iszero\n      tag_19\n      jumpi\n      revert(0x00, 0x00)\n    tag_19:\n      pop\n      tag_20\n      tag_21\n      jump\t// in\n    tag_20:\n      mload(0x40)\n      tag_22\n      swap2\n      swap1\n      tag_18\n      jump\t// in\n    tag_22:\n      mload(0x40)\n      dup1\n      swap2\n      sub\n      swap1\n      return\n        /* \"Logic.sol\":2620:2707  function changeAdmin(address _admin) external OnlyAdmin{... */\n    tag_5:\n      callvalue\n      dup1\n      iszero\n      tag_23\n      jumpi\n      revert(0x00, 0x00)\n    tag_23:\n      pop\n      tag_24\n      0x04\n      dup1\n      calldatasize\n      sub\n      dup2\n      add\n      swap1\n      tag_25\n      swap2\n      swap1\n      tag_26\n      jump\t// in\n    tag_25:\n      tag_27\n      jump\t// in\n    tag_24:\n      stop\n        /* \"Logic.sol\":2774:2860  function updateImpl(address _impl) external OnlyAdmin{... */\n    tag_6:\n      callvalue\n      dup1\n      iszero\n      tag_28\n      jumpi\n      revert(0x00, 0x00)\n    tag_28:\n      pop\n      tag_29\n      0x04\n      dup1\n      calldatasize\n      sub\n      dup2\n      add\n      swap1\n      tag_30\n      swap2\n      swap1\n      tag_26\n      jump\t// in\n    tag_30:\n      tag_31\n      jump\t// in\n    tag_29:\n      stop\n        /* \"Logic.sol\":3894:3964  function _fallback() private   {... */\n    tag_10:\n        /* \"Logic.sol\":3936:3956  _delegate(getImpl()) */\n      tag_33\n        /* \"Logic.sol\":3946:3955  getImpl() */\n      tag_34\n        /* \"Logic.sol\":3946:3953  getImpl */\n      tag_35\n        /* \"Logic.sol\":3946:3955  getImpl() */\n      jump\t// in\n    tag_34:\n        /* \"Logic.sol\":3936:3945  _delegate */\n      tag_36\n        /* \"Logic.sol\":3936:3956  _delegate(getImpl()) */\n      jump\t// in\n    tag_33:\n        /* \"Logic.sol\":3894:3964  function _fallback() private   {... */\n      jump\t// out\n        /* \"Logic.sol\":3050:3143  function readAdmin() external OnlyAdmin returns (address){... */\n    tag_16:\n        /* \"Logic.sol\":3099:3106  address */\n      0x00\n        /* \"Logic.sol\":1671:1681  getAdmin() */\n      tag_38\n        /* \"Logic.sol\":1671:1679  getAdmin */\n      tag_39\n        /* \"Logic.sol\":1671:1681  getAdmin() */\n      jump\t// in\n    tag_38:\n        /* \"Logic.sol\":1657:1681  msg.sender == getAdmin() */\n      0xffffffffffffffffffffffffffffffffffffffff\n      and\n        /* \"Logic.sol\":1657:1667  msg.sender */\n      caller\n        /* \"Logic.sol\":1657:1681  msg.sender == getAdmin() */\n      0xffffffffffffffffffffffffffffffffffffffff\n      and\n      sub\n        /* \"Logic.sol\":1654:1762  if(msg.sender == getAdmin()){... */\n      tag_40\n      jumpi\n        /* \"Logic.sol\":3125:3135  getAdmin() */\n      tag_42\n        /* \"Logic.sol\":3125:3133  getAdmin */\n      tag_39\n        /* \"Logic.sol\":3125:3135  getAdmin() */\n      jump\t// in\n    tag_42:\n        /* \"Logic.sol\":3118:3135  return getAdmin() */\n      swap1\n      pop\n        /* \"Logic.sol\":1654:1762  if(msg.sender == getAdmin()){... */\n      jump(tag_43)\n    tag_40:\n        /* \"Logic.sol\":1739:1750  _fallback() */\n      tag_44\n        /* \"Logic.sol\":1739:1748  _fallback */\n      tag_10\n        /* \"Logic.sol\":1739:1750  _fallback() */\n      jump\t// in\n    tag_44:\n        /* \"Logic.sol\":1654:1762  if(msg.sender == getAdmin()){... */\n    tag_43:\n        /* \"Logic.sol\":3050:3143  function readAdmin() external OnlyAdmin returns (address){... */\n      swap1\n      jump\t// out\n        /* \"Logic.sol\":2909:3000  function readImpl() external OnlyAdmin returns (address){... */\n    tag_21:\n        /* \"Logic.sol\":2957:2964  address */\n      0x00\n        /* \"Logic.sol\":1671:1681  getAdmin() */\n      tag_46\n        /* \"Logic.sol\":1671:1679  getAdmin */\n      tag_39\n        /* \"Logic.sol\":1671:1681  getAdmin() */\n      jump\t// in\n    tag_46:\n        /* \"Logic.sol\":1657:1681  msg.sender == getAdmin() */\n      0xffffffffffffffffffffffffffffffffffffffff\n      and\n        /* \"Logic.sol\":1657:1667  msg.sender */\n      caller\n        /* \"Logic.sol\":1657:1681  msg.sender == getAdmin() */\n      0xffffffffffffffffffffffffffffffffffffffff\n      and\n      sub\n        /* \"Logic.sol\":1654:1762  if(msg.sender == getAdmin()){... */\n      tag_47\n      jumpi\n        /* \"Logic.sol\":2983:2992  getImpl() */\n      tag_49\n        /* \"Logic.sol\":2983:2990  getImpl */\n      tag_35\n        /* \"Logic.sol\":2983:2992  getImpl() */\n      jump\t// in\n    tag_49:\n        /* \"Logic.sol\":2976:2992  return getImpl() */\n      swap1\n      pop\n        /* \"Logic.sol\":1654:1762  if(msg.sender == getAdmin()){... */\n      jump(tag_50)\n    tag_47:\n        /* \"Logic.sol\":1739:1750  _fallback() */\n      tag_51\n        /* \"Logic.sol\":1739:1748  _fallback */\n      tag_10\n        /* \"Logic.sol\":1739:1750  _fallback() */\n      jump\t// in\n    tag_51:\n        /* \"Logic.sol\":1654:1762  if(msg.sender == getAdmin()){... */\n    tag_50:\n        /* \"Logic.sol\":2909:3000  function readImpl() external OnlyAdmin returns (address){... */\n      swap1\n      jump\t// out\n        /* \"Logic.sol\":2620:2707  function changeAdmin(address _admin) external OnlyAdmin{... */\n    tag_27:\n        /* \"Logic.sol\":1671:1681  getAdmin() */\n      tag_53\n        /* \"Logic.sol\":1671:1679  getAdmin */\n      tag_39\n        /* \"Logic.sol\":1671:1681  getAdmin() */\n      jump\t// in\n    tag_53:\n        /* \"Logic.sol\":1657:1681  msg.sender == getAdmin() */\n      0xffffffffffffffffffffffffffffffffffffffff\n      and\n        /* \"Logic.sol\":1657:1667  msg.sender */\n      caller\n        /* \"Logic.sol\":1657:1681  msg.sender == getAdmin() */\n      0xffffffffffffffffffffffffffffffffffffffff\n      and\n      sub\n        /* \"Logic.sol\":1654:1762  if(msg.sender == getAdmin()){... */\n      tag_54\n      jumpi\n        /* \"Logic.sol\":2683:2699  setAdmin(_admin) */\n      tag_56\n        /* \"Logic.sol\":2692:2698  _admin */\n      dup2\n        /* \"Logic.sol\":2683:2691  setAdmin */\n      tag_57\n        /* \"Logic.sol\":2683:2699  setAdmin(_admin) */\n      jump\t// in\n    tag_56:\n        /* \"Logic.sol\":1654:1762  if(msg.sender == getAdmin()){... */\n      jump(tag_58)\n    tag_54:\n        /* \"Logic.sol\":1739:1750  _fallback() */\n      tag_59\n        /* \"Logic.sol\":1739:1748  _fallback */\n      tag_10\n        /* \"Logic.sol\":1739:1750  _fallback() */\n      jump\t// in\n    tag_59:\n        /* \"Logic.sol\":1654:1762  if(msg.sender == getAdmin()){... */\n    tag_58:\n        /* \"Logic.sol\":2620:2707  function changeAdmin(address _admin) external OnlyAdmin{... */\n      pop\n      jump\t// out\n        /* \"Logic.sol\":2774:2860  function updateImpl(address _impl) external OnlyAdmin{... */\n    tag_31:\n        /* \"Logic.sol\":1671:1681  getAdmin() */\n      tag_61\n        /* \"Logic.sol\":1671:1679  getAdmin */\n      tag_39\n        /* \"Logic.sol\":1671:1681  getAdmin() */\n      jump\t// in\n    tag_61:\n        /* \"Logic.sol\":1657:1681  msg.sender == getAdmin() */\n      0xffffffffffffffffffffffffffffffffffffffff\n      and\n        /* \"Logic.sol\":1657:1667  msg.sender */\n      caller\n        /* \"Logic.sol\":1657:1681  msg.sender == getAdmin() */\n      0xffffffffffffffffffffffffffffffffffffffff\n      and\n      sub\n        /* \"Logic.sol\":1654:1762  if(msg.sender == getAdmin()){... */\n      tag_62\n      jumpi\n        /* \"Logic.sol\":2838:2852  setImpl(_impl) */\n      tag_64\n        /* \"Logic.sol\":2846:2851  _impl */\n      dup2\n        /* \"Logic.sol\":2838:2845  setImpl */\n      tag_65\n        /* \"Logic.sol\":2838:2852  setImpl(_impl) */\n      jump\t// in\n    tag_64:\n        /* \"Logic.sol\":1654:1762  if(msg.sender == getAdmin()){... */\n      jump(tag_66)\n    tag_62:\n        /* \"Logic.sol\":1739:1750  _fallback() */\n      tag_67\n        /* \"Logic.sol\":1739:1748  _fallback */\n      tag_10\n        /* \"Logic.sol\":1739:1750  _fallback() */\n      jump\t// in\n    tag_67:\n        /* \"Logic.sol\":1654:1762  if(msg.sender == getAdmin()){... */\n    tag_66:\n        /* \"Logic.sol\":2774:2860  function updateImpl(address _impl) external OnlyAdmin{... */\n      pop\n      jump\t// out\n        /* \"Logic.sol\":2198:2326  function getImpl() private view returns (address){... */\n    tag_35:\n        /* \"Logic.sol\":2239:2246  address */\n      0x00\n        /* \"Logic.sol\":2265:2312  StorageSlot.getAddressSlot(IMPLEMENTATION_SLOT) */\n      tag_69\n        /* \"Logic.sol\":1269:1270  1 */\n      0x01\n        /* \"Logic.sol\":1224:1265  keccak256(\"eip1967.proxy.implementation\") */\n      0x360894a13ba1a3210667c828492db98dca3e2076cc3735a920a3ca505d382bbd\n        /* \"Logic.sol\":1219:1266  uint(keccak256(\"eip1967.proxy.implementation\")) */\n      0x00\n      shr\n        /* \"Logic.sol\":1219:1270  uint(keccak256(\"eip1967.proxy.implementation\")) - 1 */\n      tag_70\n      swap2\n      swap1\n      tag_71\n      jump\t// in\n    tag_70:\n        /* \"Logic.sol\":1211:1271  bytes32(uint(keccak256(\"eip1967.proxy.implementation\")) - 1) */\n      0x00\n      shl\n        /* \"Logic.sol\":2265:2291  StorageSlot.getAddressSlot */\n      tag_72\n        /* \"Logic.sol\":2265:2312  StorageSlot.getAddressSlot(IMPLEMENTATION_SLOT) */\n      jump\t// in\n    tag_69:\n        /* \"Logic.sol\":2265:2318  StorageSlot.getAddressSlot(IMPLEMENTATION_SLOT).value */\n      0x00\n      add\n      0x00\n      swap1\n      sload\n      swap1\n      0x0100\n      exp\n      swap1\n      div\n      0xffffffffffffffffffffffffffffffffffffffff\n      and\n        /* \"Logic.sol\":2258:2318  return StorageSlot.getAddressSlot(IMPLEMENTATION_SLOT).value */\n      swap1\n      pop\n        /* \"Logic.sol\":2198:2326  function getImpl() private view returns (address){... */\n      swap1\n      jump\t// out\n        /* \"Logic.sol\":3234:3805  function _delegate(address _implementation) private  {... */\n    tag_36:\n        /* \"Logic.sol\":3355:3369  calldatasize() */\n      calldatasize\n        /* \"Logic.sol\":3352:3353  0 */\n      0x00\n        /* \"Logic.sol\":3349:3350  0 */\n      0x00\n        /* \"Logic.sol\":3336:3370  calldatacopy(0, 0, calldatasize()) */\n      calldatacopy\n        /* \"Logic.sol\":3476:3477  0 */\n      0x00\n        /* \"Logic.sol\":3473:3474  0 */\n      0x00\n        /* \"Logic.sol\":3457:3471  calldatasize() */\n      calldatasize\n        /* \"Logic.sol\":3454:3455  0 */\n      0x00\n        /* \"Logic.sol\":3437:3452  _implementation */\n      dup5\n        /* \"Logic.sol\":3430:3435  gas() */\n      gas\n        /* \"Logic.sol\":3417:3478  delegatecall(gas(), _implementation, 0, calldatasize(), 0, 0) */\n      delegatecall\n        /* \"Logic.sol\":3529:3545  returndatasize() */\n      returndatasize\n        /* \"Logic.sol\":3526:3527  0 */\n      0x00\n        /* \"Logic.sol\":3523:3524  0 */\n      0x00\n        /* \"Logic.sol\":3508:3546  returndatacopy(0, 0, returndatasize()) */\n      returndatacopy\n        /* \"Logic.sol\":3569:3575  result */\n      dup1\n        /* \"Logic.sol\":3608:3609  0 */\n      0x00\n        /* \"Logic.sol\":3603:3687  case 0 {... */\n      dup2\n      eq\n      tag_75\n      jumpi\n        /* \"Logic.sol\":3755:3771  returndatasize() */\n      returndatasize\n        /* \"Logic.sol\":3752:3753  0 */\n      0x00\n        /* \"Logic.sol\":3745:3772  return(0, returndatasize()) */\n      return\n        /* \"Logic.sol\":3603:3687  case 0 {... */\n    tag_75:\n        /* \"Logic.sol\":3655:3671  returndatasize() */\n      returndatasize\n        /* \"Logic.sol\":3652:3653  0 */\n      0x00\n        /* \"Logic.sol\":3645:3672  revert(0, returndatasize()) */\n      revert\n        /* \"Logic.sol\":1813:1933  function getAdmin() private view returns (address){... */\n    tag_39:\n        /* \"Logic.sol\":1855:1862  address */\n      0x00\n        /* \"Logic.sol\":1881:1919  StorageSlot.getAddressSlot(ADMIN_SLOT) */\n      tag_77\n        /* \"Logic.sol\":1432:1433  1 */\n      0x01\n        /* \"Logic.sol\":1396:1428  keccak256(\"eip1967.proxy.admin\") */\n      0xb53127684a568b3173ae13b9f8a6016e243e63b6e8ee1178d6a717850b5d6104\n        /* \"Logic.sol\":1391:1429  uint(keccak256(\"eip1967.proxy.admin\")) */\n      0x00\n      shr\n        /* \"Logic.sol\":1391:1433  uint(keccak256(\"eip1967.proxy.admin\")) - 1 */\n      tag_78\n      swap2\n      swap1\n      tag_71\n      jump\t// in\n    tag_78:\n        /* \"Logic.sol\":1383:1434  bytes32(uint(keccak256(\"eip1967.proxy.admin\")) - 1) */\n      0x00\n      shl\n        /* \"Logic.sol\":1881:1907  StorageSlot.getAddressSlot */\n      tag_72\n        /* \"Logic.sol\":1881:1919  StorageSlot.getAddressSlot(ADMIN_SLOT) */\n      jump\t// in\n    tag_77:\n        /* \"Logic.sol\":1881:1925  StorageSlot.getAddressSlot(ADMIN_SLOT).value */\n      0x00\n      add\n      0x00\n      swap1\n      sload\n      swap1\n      0x0100\n      exp\n      swap1\n      div\n      0xffffffffffffffffffffffffffffffffffffffff\n      and\n        /* \"Logic.sol\":1874:1925  return StorageSlot.getAddressSlot(ADMIN_SLOT).value */\n      swap1\n      pop\n        /* \"Logic.sol\":1813:1933  function getAdmin() private view returns (address){... */\n      swap1\n      jump\t// out\n        /* \"Logic.sol\":1974:2147  function setAdmin(address _admin) private {... */\n    tag_57:\n        /* \"Logic.sol\":2053:2054  0 */\n      0x00\n        /* \"Logic.sol\":2035:2055  _admin != address(0) */\n      0xffffffffffffffffffffffffffffffffffffffff\n      and\n        /* \"Logic.sol\":2035:2041  _admin */\n      dup2\n        /* \"Logic.sol\":2035:2055  _admin != address(0) */\n      0xffffffffffffffffffffffffffffffffffffffff\n      and\n      sub\n        /* \"Logic.sol\":2027:2075  require(_admin != address(0), \"Invalid address\") */\n      tag_80\n      jumpi\n      mload(0x40)\n      0x08c379a000000000000000000000000000000000000000000000000000000000\n      dup2\n      mstore\n      0x04\n      add\n      tag_81\n      swap1\n      tag_82\n      jump\t// in\n    tag_81:\n      mload(0x40)\n      dup1\n      swap2\n      sub\n      swap1\n      revert\n    tag_80:\n        /* \"Logic.sol\":2133:2139  _admin */\n      dup1\n        /* \"Logic.sol\":2086:2124  StorageSlot.getAddressSlot(ADMIN_SLOT) */\n      tag_83\n        /* \"Logic.sol\":1432:1433  1 */\n      0x01\n        /* \"Logic.sol\":1396:1428  keccak256(\"eip1967.proxy.admin\") */\n      0xb53127684a568b3173ae13b9f8a6016e243e63b6e8ee1178d6a717850b5d6104\n        /* \"Logic.sol\":1391:1429  uint(keccak256(\"eip1967.proxy.admin\")) */\n      0x00\n      shr\n        /* \"Logic.sol\":1391:1433  uint(keccak256(\"eip1967.proxy.admin\")) - 1 */\n      tag_84\n      swap2\n      swap1\n      tag_71\n      jump\t// in\n    tag_84:\n        /* \"Logic.sol\":1383:1434  bytes32(uint(keccak256(\"eip1967.proxy.admin\")) - 1) */\n      0x00\n      shl\n        /* \"Logic.sol\":2086:2112  StorageSlot.getAddressSlot */\n      tag_72\n        /* \"Logic.sol\":2086:2124  StorageSlot.getAddressSlot(ADMIN_SLOT) */\n      jump\t// in\n    tag_83:\n        /* \"Logic.sol\":2086:2130  StorageSlot.getAddressSlot(ADMIN_SLOT).value */\n      0x00\n      add\n      0x00\n        /* \"Logic.sol\":2086:2139  StorageSlot.getAddressSlot(ADMIN_SLOT).value = _admin */\n      0x0100\n      exp\n      dup2\n      sload\n      dup2\n      0xffffffffffffffffffffffffffffffffffffffff\n      mul\n      not\n      and\n      swap1\n      dup4\n      0xffffffffffffffffffffffffffffffffffffffff\n      and\n      mul\n      or\n      swap1\n      sstore\n      pop\n        /* \"Logic.sol\":1974:2147  function setAdmin(address _admin) private {... */\n      pop\n      jump\t// out\n        /* \"Logic.sol\":2376:2566  function setImpl(address _impl) private {... */\n    tag_65:\n        /* \"Logic.sol\":2455:2456  0 */\n      0x00\n        /* \"Logic.sol\":2435:2440  _impl */\n      dup2\n        /* \"Logic.sol\":2435:2452  _impl.code.length */\n      0xffffffffffffffffffffffffffffffffffffffff\n      and\n      extcodesize\n        /* \"Logic.sol\":2435:2456  _impl.code.length > 0 */\n      gt\n        /* \"Logic.sol\":2427:2486  require(_impl.code.length > 0, \"Address is not a contract\") */\n      tag_86\n      jumpi\n      mload(0x40)\n      0x08c379a000000000000000000000000000000000000000000000000000000000\n      dup2\n      mstore\n      0x04\n      add\n      tag_87\n      swap1\n      tag_88\n      jump\t// in\n    tag_87:\n      mload(0x40)\n      dup1\n      swap2\n      sub\n      swap1\n      revert\n    tag_86:\n        /* \"Logic.sol\":2553:2558  _impl */\n      dup1\n        /* \"Logic.sol\":2497:2544  StorageSlot.getAddressSlot(IMPLEMENTATION_SLOT) */\n      tag_89\n        /* \"Logic.sol\":1269:1270  1 */\n      0x01\n        /* \"Logic.sol\":1224:1265  keccak256(\"eip1967.proxy.implementation\") */\n      0x360894a13ba1a3210667c828492db98dca3e2076cc3735a920a3ca505d382bbd\n        /* \"Logic.sol\":1219:1266  uint(keccak256(\"eip1967.proxy.implementation\")) */\n      0x00\n      shr\n        /* \"Logic.sol\":1219:1270  uint(keccak256(\"eip1967.proxy.implementation\")) - 1 */\n      tag_90\n      swap2\n      swap1\n      tag_71\n      jump\t// in\n    tag_90:\n        /* \"Logic.sol\":1211:1271  bytes32(uint(keccak256(\"eip1967.proxy.implementation\")) - 1) */\n      0x00\n      shl\n        /* \"Logic.sol\":2497:2523  StorageSlot.getAddressSlot */\n      tag_72\n        /* \"Logic.sol\":2497:2544  StorageSlot.getAddressSlot(IMPLEMENTATION_SLOT) */\n      jump\t// in\n    tag_89:\n        /* \"Logic.sol\":2497:2550  StorageSlot.getAddressSlot(IMPLEMENTATION_SLOT).value */\n      0x00\n      add\n      0x00\n        /* \"Logic.sol\":2497:2558  StorageSlot.getAddressSlot(IMPLEMENTATION_SLOT).value = _impl */\n      0x0100\n      exp\n      dup2\n      sload\n      dup2\n      0xffffffffffffffffffffffffffffffffffffffff\n      mul\n      not\n      and\n      swap1\n      dup4\n      0xffffffffffffffffffffffffffffffffffffffff\n      and\n      mul\n      or\n      swap1\n      sstore\n      pop\n        /* \"Logic.sol\":2376:2566  function setImpl(address _impl) private {... */\n      pop\n      jump\t// out\n        /* \"Logic.sol\":6061:6211  function getAddressSlot(bytes32 slot) internal pure returns (AddressSlot storage r){... */\n    tag_72:\n        /* \"Logic.sol\":6122:6143  AddressSlot storage r */\n      0x00\n        /* \"Logic.sol\":6189:6193  slot */\n      dup2\n        /* \"Logic.sol\":6179:6193  r.slot := slot */\n      swap1\n      pop\n        /* \"Logic.sol\":6061:6211  function getAddressSlot(bytes32 slot) internal pure returns (AddressSlot storage r){... */\n      swap2\n      swap1\n      pop\n      jump\t// out\n        /* \"#utility.yul\":7:133   */\n    tag_92:\n        /* \"#utility.yul\":44:51   */\n      0x00\n        /* \"#utility.yul\":84:126   */\n      0xffffffffffffffffffffffffffffffffffffffff\n        /* \"#utility.yul\":77:82   */\n      dup3\n        /* \"#utility.yul\":73:127   */\n      and\n        /* \"#utility.yul\":62:127   */\n      swap1\n      pop\n        /* \"#utility.yul\":7:133   */\n      swap2\n      swap1\n      pop\n      jump\t// out\n        /* \"#utility.yul\":139:235   */\n    tag_93:\n        /* \"#utility.yul\":176:183   */\n      0x00\n        /* \"#utility.yul\":205:229   */\n      tag_110\n        /* \"#utility.yul\":223:228   */\n      dup3\n        /* \"#utility.yul\":205:229   */\n      tag_92\n      jump\t// in\n    tag_110:\n        /* \"#utility.yul\":194:229   */\n      swap1\n      pop\n        /* \"#utility.yul\":139:235   */\n      swap2\n      swap1\n      pop\n      jump\t// out\n        /* \"#utility.yul\":241:359   */\n    tag_94:\n        /* \"#utility.yul\":328:352   */\n      tag_112\n        /* \"#utility.yul\":346:351   */\n      dup2\n        /* \"#utility.yul\":328:352   */\n      tag_93\n      jump\t// in\n    tag_112:\n        /* \"#utility.yul\":323:326   */\n      dup3\n        /* \"#utility.yul\":316:353   */\n      mstore\n        /* \"#utility.yul\":241:359   */\n      pop\n      pop\n      jump\t// out\n        /* \"#utility.yul\":365:587   */\n    tag_18:\n        /* \"#utility.yul\":458:462   */\n      0x00\n        /* \"#utility.yul\":496:498   */\n      0x20\n        /* \"#utility.yul\":485:494   */\n      dup3\n        /* \"#utility.yul\":481:499   */\n      add\n        /* \"#utility.yul\":473:499   */\n      swap1\n      pop\n        /* \"#utility.yul\":509:580   */\n      tag_114\n        /* \"#utility.yul\":577:578   */\n      0x00\n        /* \"#utility.yul\":566:575   */\n      dup4\n        /* \"#utility.yul\":562:579   */\n      add\n        /* \"#utility.yul\":553:559   */\n      dup5\n        /* \"#utility.yul\":509:580   */\n      tag_94\n      jump\t// in\n    tag_114:\n        /* \"#utility.yul\":365:587   */\n      swap3\n      swap2\n      pop\n      pop\n      jump\t// out\n        /* \"#utility.yul\":674:791   */\n    tag_96:\n        /* \"#utility.yul\":783:784   */\n      0x00\n        /* \"#utility.yul\":780:781   */\n      0x00\n        /* \"#utility.yul\":773:785   */\n      revert\n        /* \"#utility.yul\":920:1042   */\n    tag_98:\n        /* \"#utility.yul\":993:1017   */\n      tag_119\n        /* \"#utility.yul\":1011:1016   */\n      dup2\n        /* \"#utility.yul\":993:1017   */\n      tag_93\n      jump\t// in\n    tag_119:\n        /* \"#utility.yul\":986:991   */\n      dup2\n        /* \"#utility.yul\":983:1018   */\n      eq\n        /* \"#utility.yul\":973:1036   */\n      tag_120\n      jumpi\n        /* \"#utility.yul\":1032:1033   */\n      0x00\n        /* \"#utility.yul\":1029:1030   */\n      0x00\n        /* \"#utility.yul\":1022:1034   */\n      revert\n        /* \"#utility.yul\":973:1036   */\n    tag_120:\n        /* \"#utility.yul\":920:1042   */\n      pop\n      jump\t// out\n        /* \"#utility.yul\":1048:1187   */\n    tag_99:\n        /* \"#utility.yul\":1094:1099   */\n      0x00\n        /* \"#utility.yul\":1132:1138   */\n      dup2\n        /* \"#utility.yul\":1119:1139   */\n      calldataload\n        /* \"#utility.yul\":1110:1139   */\n      swap1\n      pop\n        /* \"#utility.yul\":1148:1181   */\n      tag_122\n        /* \"#utility.yul\":1175:1180   */\n      dup2\n        /* \"#utility.yul\":1148:1181   */\n      tag_98\n      jump\t// in\n    tag_122:\n        /* \"#utility.yul\":1048:1187   */\n      swap3\n      swap2\n      pop\n      pop\n      jump\t// out\n        /* \"#utility.yul\":1193:1522   */\n    tag_26:\n        /* \"#utility.yul\":1252:1258   */\n      0x00\n        /* \"#utility.yul\":1301:1303   */\n      0x20\n        /* \"#utility.yul\":1289:1298   */\n      dup3\n        /* \"#utility.yul\":1280:1287   */\n      dup5\n        /* \"#utility.yul\":1276:1299   */\n      sub\n        /* \"#utility.yul\":1272:1304   */\n      slt\n        /* \"#utility.yul\":1269:1388   */\n      iszero\n      tag_124\n      jumpi\n        /* \"#utility.yul\":1307:1386   */\n      tag_125\n      tag_96\n      jump\t// in\n    tag_125:\n        /* \"#utility.yul\":1269:1388   */\n    tag_124:\n        /* \"#utility.yul\":1427:1428   */\n      0x00\n        /* \"#utility.yul\":1452:1505   */\n      tag_126\n        /* \"#utility.yul\":1497:1504   */\n      dup5\n        /* \"#utility.yul\":1488:1494   */\n      dup3\n        /* \"#utility.yul\":1477:1486   */\n      dup6\n        /* \"#utility.yul\":1473:1495   */\n      add\n        /* \"#utility.yul\":1452:1505   */\n      tag_99\n      jump\t// in\n    tag_126:\n        /* \"#utility.yul\":1442:1505   */\n      swap2\n      pop\n        /* \"#utility.yul\":1398:1515   */\n      pop\n        /* \"#utility.yul\":1193:1522   */\n      swap3\n      swap2\n      pop\n      pop\n      jump\t// out\n        /* \"#utility.yul\":1528:1605   */\n    tag_100:\n        /* \"#utility.yul\":1565:1572   */\n      0x00\n        /* \"#utility.yul\":1594:1599   */\n      dup2\n        /* \"#utility.yul\":1583:1599   */\n      swap1\n      pop\n        /* \"#utility.yul\":1528:1605   */\n      swap2\n      swap1\n      pop\n      jump\t// out\n        /* \"#utility.yul\":1611:1791   */\n    tag_101:\n        /* \"#utility.yul\":1659:1736   */\n      0x4e487b7100000000000000000000000000000000000000000000000000000000\n        /* \"#utility.yul\":1656:1657   */\n      0x00\n        /* \"#utility.yul\":1649:1737   */\n      mstore\n        /* \"#utility.yul\":1756:1760   */\n      0x11\n        /* \"#utility.yul\":1753:1754   */\n      0x04\n        /* \"#utility.yul\":1746:1761   */\n      mstore\n        /* \"#utility.yul\":1780:1784   */\n      0x24\n        /* \"#utility.yul\":1777:1778   */\n      0x00\n        /* \"#utility.yul\":1770:1785   */\n      revert\n        /* \"#utility.yul\":1797:1991   */\n    tag_71:\n        /* \"#utility.yul\":1837:1841   */\n      0x00\n        /* \"#utility.yul\":1857:1877   */\n      tag_130\n        /* \"#utility.yul\":1875:1876   */\n      dup3\n        /* \"#utility.yul\":1857:1877   */\n      tag_100\n      jump\t// in\n    tag_130:\n        /* \"#utility.yul\":1852:1877   */\n      swap2\n      pop\n        /* \"#utility.yul\":1891:1911   */\n      tag_131\n        /* \"#utility.yul\":1909:1910   */\n      dup4\n        /* \"#utility.yul\":1891:1911   */\n      tag_100\n      jump\t// in\n    tag_131:\n        /* \"#utility.yul\":1886:1911   */\n      swap3\n      pop\n        /* \"#utility.yul\":1935:1936   */\n      dup3\n        /* \"#utility.yul\":1932:1933   */\n      dup3\n        /* \"#utility.yul\":1928:1937   */\n      sub\n        /* \"#utility.yul\":1920:1937   */\n      swap1\n      pop\n        /* \"#utility.yul\":1959:1960   */\n      dup2\n        /* \"#utility.yul\":1953:1957   */\n      dup2\n        /* \"#utility.yul\":1950:1961   */\n      gt\n        /* \"#utility.yul\":1947:1984   */\n      iszero\n      tag_132\n      jumpi\n        /* \"#utility.yul\":1964:1982   */\n      tag_133\n      tag_101\n      jump\t// in\n    tag_133:\n        /* \"#utility.yul\":1947:1984   */\n    tag_132:\n        /* \"#utility.yul\":1797:1991   */\n      swap3\n      swap2\n      pop\n      pop\n      jump\t// out\n        /* \"#utility.yul\":1997:2166   */\n    tag_102:\n        /* \"#utility.yul\":2081:2092   */\n      0x00\n        /* \"#utility.yul\":2115:2121   */\n      dup3\n        /* \"#utility.yul\":2110:2113   */\n      dup3\n        /* \"#utility.yul\":2103:2122   */\n      mstore\n        /* \"#utility.yul\":2155:2159   */\n      0x20\n        /* \"#utility.yul\":2150:2153   */\n      dup3\n        /* \"#utility.yul\":2146:2160   */\n      add\n        /* \"#utility.yul\":2131:2160   */\n      swap1\n      pop\n        /* \"#utility.yul\":1997:2166   */\n      swap3\n      swap2\n      pop\n      pop\n      jump\t// out\n        /* \"#utility.yul\":2172:2337   */\n    tag_103:\n        /* \"#utility.yul\":2312:2329   */\n      0x496e76616c696420616464726573730000000000000000000000000000000000\n        /* \"#utility.yul\":2308:2309   */\n      0x00\n        /* \"#utility.yul\":2300:2306   */\n      dup3\n        /* \"#utility.yul\":2296:2310   */\n      add\n        /* \"#utility.yul\":2289:2330   */\n      mstore\n        /* \"#utility.yul\":2172:2337   */\n      pop\n      jump\t// out\n        /* \"#utility.yul\":2343:2709   */\n    tag_104:\n        /* \"#utility.yul\":2485:2488   */\n      0x00\n        /* \"#utility.yul\":2506:2573   */\n      tag_137\n        /* \"#utility.yul\":2570:2572   */\n      0x0f\n        /* \"#utility.yul\":2565:2568   */\n      dup4\n        /* \"#utility.yul\":2506:2573   */\n      tag_102\n      jump\t// in\n    tag_137:\n        /* \"#utility.yul\":2499:2573   */\n      swap2\n      pop\n        /* \"#utility.yul\":2582:2675   */\n      tag_138\n        /* \"#utility.yul\":2671:2674   */\n      dup3\n        /* \"#utility.yul\":2582:2675   */\n      tag_103\n      jump\t// in\n    tag_138:\n        /* \"#utility.yul\":2700:2702   */\n      0x20\n        /* \"#utility.yul\":2695:2698   */\n      dup3\n        /* \"#utility.yul\":2691:2703   */\n      add\n        /* \"#utility.yul\":2684:2703   */\n      swap1\n      pop\n        /* \"#utility.yul\":2343:2709   */\n      swap2\n      swap1\n      pop\n      jump\t// out\n        /* \"#utility.yul\":2715:3134   */\n    tag_82:\n        /* \"#utility.yul\":2881:2885   */\n      0x00\n        /* \"#utility.yul\":2919:2921   */\n      0x20\n        /* \"#utility.yul\":2908:2917   */\n      dup3\n        /* \"#utility.yul\":2904:2922   */\n      add\n        /* \"#utility.yul\":2896:2922   */\n      swap1\n      pop\n        /* \"#utility.yul\":2968:2977   */\n      dup2\n        /* \"#utility.yul\":2962:2966   */\n      dup2\n        /* \"#utility.yul\":2958:2978   */\n      sub\n        /* \"#utility.yul\":2954:2955   */\n      0x00\n        /* \"#utility.yul\":2943:2952   */\n      dup4\n        /* \"#utility.yul\":2939:2956   */\n      add\n        /* \"#utility.yul\":2932:2979   */\n      mstore\n        /* \"#utility.yul\":2996:3127   */\n      tag_140\n        /* \"#utility.yul\":3122:3126   */\n      dup2\n        /* \"#utility.yul\":2996:3127   */\n      tag_104\n      jump\t// in\n    tag_140:\n        /* \"#utility.yul\":2988:3127   */\n      swap1\n      pop\n        /* \"#utility.yul\":2715:3134   */\n      swap2\n      swap1\n      pop\n      jump\t// out\n        /* \"#utility.yul\":3140:3315   */\n    tag_105:\n        /* \"#utility.yul\":3280:3307   */\n      0x41646472657373206973206e6f74206120636f6e747261637400000000000000\n        /* \"#utility.yul\":3276:3277   */\n      0x00\n        /* \"#utility.yul\":3268:3274   */\n      dup3\n        /* \"#utility.yul\":3264:3278   */\n      add\n        /* \"#utility.yul\":3257:3308   */\n      mstore\n        /* \"#utility.yul\":3140:3315   */\n      pop\n      jump\t// out\n        /* \"#utility.yul\":3321:3687   */\n    tag_106:\n        /* \"#utility.yul\":3463:3466   */\n      0x00\n        /* \"#utility.yul\":3484:3551   */\n      tag_143\n        /* \"#utility.yul\":3548:3550   */\n      0x19\n        /* \"#utility.yul\":3543:3546   */\n      dup4\n        /* \"#utility.yul\":3484:3551   */\n      tag_102\n      jump\t// in\n    tag_143:\n        /* \"#utility.yul\":3477:3551   */\n      swap2\n      pop\n        /* \"#utility.yul\":3560:3653   */\n      tag_144\n        /* \"#utility.yul\":3649:3652   */\n      dup3\n        /* \"#utility.yul\":3560:3653   */\n      tag_105\n      jump\t// in\n    tag_144:\n        /* \"#utility.yul\":3678:3680   */\n      0x20\n        /* \"#utility.yul\":3673:3676   */\n      dup3\n        /* \"#utility.yul\":3669:3681   */\n      add\n        /* \"#utility.yul\":3662:3681   */\n      swap1\n      pop\n        /* \"#utility.yul\":3321:3687   */\n      swap2\n      swap1\n      pop\n      jump\t// out\n        /* \"#utility.yul\":3693:4112   */\n    tag_88:\n        /* \"#utility.yul\":3859:3863   */\n      0x00\n        /* \"#utility.yul\":3897:3899   */\n      0x20\n        /* \"#utility.yul\":3886:3895   */\n      dup3\n        /* \"#utility.yul\":3882:3900   */\n      add\n        /* \"#utility.yul\":3874:3900   */\n      swap1\n      pop\n        /* \"#utility.yul\":3946:3955   */\n      dup2\n        /* \"#utility.yul\":3940:3944   */\n      dup2\n        /* \"#utility.yul\":3936:3956   */\n      sub\n        /* \"#utility.yul\":3932:3933   */\n      0x00\n        /* \"#utility.yul\":3921:3930   */\n      dup4\n        /* \"#utility.yul\":3917:3934   */\n      add\n        /* \"#utility.yul\":3910:3957   */\n      mstore\n        /* \"#utility.yul\":3974:4105   */\n      tag_146\n        /* \"#utility.yul\":4100:4104   */\n      dup2\n        /* \"#utility.yul\":3974:4105   */\n      tag_106\n      jump\t// in\n    tag_146:\n        /* \"#utility.yul\":3966:4105   */\n      swap1\n      pop\n        /* \"#utility.yul\":3693:4112   */\n      swap2\n      swap1\n      pop\n      jump\t// out\n\n    auxdata: 0xa264697066735822122077dc103c47bf9e3254adee8338916fd6b8df46e2d2f257c3e4df7405029a615e64736f6c634300081e0033\n}\n",
				"bytecode": {
					"linkReferences": {},
					"object": "608060405234801561000f575f5ffd5b5061001f3361002460201b60201c565b6101fe565b5f73ffffffffffffffffffffffffffffffffffffffff168173ffffffffffffffffffffffffffffffffffffffff1603610092576040517f08c379a000000000000000000000000000000000000000000000000000000000815260040161008990610177565b60405180910390fd5b806100d260017fb53127684a568b3173ae13b9f8a6016e243e63b6e8ee1178d6a717850b5d61045f1c6100c591906101cb565b5f1b61011460201b60201c565b5f015f6101000a81548173ffffffffffffffffffffffffffffffffffffffff021916908373ffffffffffffffffffffffffffffffffffffffff16021790555050565b5f819050919050565b5f82825260208201905092915050565b7f496e76616c6964206164647265737300000000000000000000000000000000005f82015250565b5f610161600f8361011d565b915061016c8261012d565b602082019050919050565b5f6020820190508181035f83015261018e81610155565b9050919050565b5f819050919050565b7f4e487b71000000000000000000000000000000000000000000000000000000005f52601160045260245ffd5b5f6101d582610195565b91506101e083610195565b92508282039050818111156101f8576101f761019e565b5b92915050565b61073e8061020b5f395ff3fe608060405260043610610042575f3560e01c80632865667f1461005b5780635ec5fd19146100855780638f283970146100af578063fcf1e009146100d757610051565b366100515761004f6100ff565b005b6100596100ff565b005b348015610066575f5ffd5b5061006f610111565b60405161007c919061054d565b60405180910390f35b348015610090575f5ffd5b50610099610167565b6040516100a6919061054d565b60405180910390f35b3480156100ba575f5ffd5b506100d560048036038101906100d09190610594565b6101bd565b005b3480156100e2575f5ffd5b506100fd60048036038101906100f89190610594565b610211565b005b61010f61010a610265565b6102c6565b565b5f61011a6102e5565b73ffffffffffffffffffffffffffffffffffffffff163373ffffffffffffffffffffffffffffffffffffffff160361015b576101546102e5565b9050610164565b6101636100ff565b5b90565b5f6101706102e5565b73ffffffffffffffffffffffffffffffffffffffff163373ffffffffffffffffffffffffffffffffffffffff16036101b1576101aa610265565b90506101ba565b6101b96100ff565b5b90565b6101c56102e5565b73ffffffffffffffffffffffffffffffffffffffff163373ffffffffffffffffffffffffffffffffffffffff16036102055761020081610346565b61020e565b61020d6100ff565b5b50565b6102196102e5565b73ffffffffffffffffffffffffffffffffffffffff163373ffffffffffffffffffffffffffffffffffffffff16036102595761025481610430565b610262565b6102616100ff565b5b50565b5f61029f60017f360894a13ba1a3210667c828492db98dca3e2076cc3735a920a3ca505d382bbd5f1c61029891906105f5565b5f1b610505565b5f015f9054906101000a900473ffffffffffffffffffffffffffffffffffffffff16905090565b365f5f375f5f365f845af43d5f5f3e805f81146102e1573d5ff35b3d5ffd5b5f61031f60017fb53127684a568b3173ae13b9f8a6016e243e63b6e8ee1178d6a717850b5d61045f1c61031891906105f5565b5f1b610505565b5f015f9054906101000a900473ffffffffffffffffffffffffffffffffffffffff16905090565b5f73ffffffffffffffffffffffffffffffffffffffff168173ffffffffffffffffffffffffffffffffffffffff16036103b4576040517f08c379a00000000000000000000000000000000000000000000000000000000081526004016103ab90610682565b60405180910390fd5b806103ee60017fb53127684a568b3173ae13b9f8a6016e243e63b6e8ee1178d6a717850b5d61045f1c6103e791906105f5565b5f1b610505565b5f015f6101000a81548173ffffffffffffffffffffffffffffffffffffffff021916908373ffffffffffffffffffffffffffffffffffffffff16021790555050565b5f8173ffffffffffffffffffffffffffffffffffffffff163b11610489576040517f08c379a0000000000000000000000000000000000000000000000000000000008152600401610480906106ea565b60405180910390fd5b806104c360017f360894a13ba1a3210667c828492db98dca3e2076cc3735a920a3ca505d382bbd5f1c6104bc91906105f5565b5f1b610505565b5f015f6101000a81548173ffffffffffffffffffffffffffffffffffffffff021916908373ffffffffffffffffffffffffffffffffffffffff16021790555050565b5f819050919050565b5f73ffffffffffffffffffffffffffffffffffffffff82169050919050565b5f6105378261050e565b9050919050565b6105478161052d565b82525050565b5f6020820190506105605f83018461053e565b92915050565b5f5ffd5b6105738161052d565b811461057d575f5ffd5b50565b5f8135905061058e8161056a565b92915050565b5f602082840312156105a9576105a8610566565b5b5f6105b684828501610580565b91505092915050565b5f819050919050565b7f4e487b71000000000000000000000000000000000000000000000000000000005f52601160045260245ffd5b5f6105ff826105bf565b915061060a836105bf565b9250828203905081811115610622576106216105c8565b5b92915050565b5f82825260208201905092915050565b7f496e76616c6964206164647265737300000000000000000000000000000000005f82015250565b5f61066c600f83610628565b915061067782610638565b602082019050919050565b5f6020820190508181035f83015261069981610660565b9050919050565b7f41646472657373206973206e6f74206120636f6e7472616374000000000000005f82015250565b5f6106d4601983610628565b91506106df826106a0565b602082019050919050565b5f6020820190508181035f830152610701816106c8565b905091905056fea264697066735822122077dc103c47bf9e3254adee8338916fd6b8df46e2d2f257c3e4df7405029a615e64736f6c634300081e0033",
					"opcodes": "PUSH1 0x80 PUSH1 0x40 MSTORE CALLVALUE DUP1 ISZERO PUSH2 0xF JUMPI PUSH0 PUSH0 REVERT JUMPDEST POP PUSH2 0x1F CALLER PUSH2 0x24 PUSH1 0x20 SHL PUSH1 0x20 SHR JUMP JUMPDEST PUSH2 0x1FE JUMP JUMPDEST PUSH0 PUSH20 0xFFFFFFFFFFFFFFFFFFFFFFFFFFFFFFFFFFFFFFFF AND DUP2 PUSH20 0xFFFFFFFFFFFFFFFFFFFFFFFFFFFFFFFFFFFFFFFF AND SUB PUSH2 0x92 JUMPI PUSH1 0x40 MLOAD PUSH32 0x8C379A000000000000000000000000000000000000000000000000000000000 DUP2 MSTORE PUSH1 0x4 ADD PUSH2 0x89 SWAP1 PUSH2 0x177 JUMP JUMPDEST PUSH1 0x40 MLOAD DUP1 SWAP2 SUB SWAP1 REVERT JUMPDEST DUP1 PUSH2 0xD2 PUSH1 0x1 PUSH32 0xB53127684A568B3173AE13B9F8A6016E243E63B6E8EE1178D6A717850B5D6104 PUSH0 SHR PUSH2 0xC5 SWAP2 SWAP1 PUSH2 0x1CB JUMP JUMPDEST PUSH0 SHL PUSH2 0x114 PUSH1 0x20 SHL PUSH1 0x20 SHR JUMP JUMPDEST PUSH0 ADD PUSH0 PUSH2 0x100 EXP DUP2 SLOAD DUP2 PUSH20 0xFFFFFFFFFFFFFFFFFFFFFFFFFFFFFFFFFFFFFFFF MUL NOT AND SWAP1 DUP4 PUSH20 0xFFFFFFFFFFFFFFFFFFFFFFFFFFFFFFFFFFFFFFFF AND MUL OR SWAP1 SSTORE POP POP JUMP JUMPDEST PUSH0 DUP2 SWAP1 POP SWAP2 SWAP1 POP JUMP JUMPDEST PUSH0 DUP3 DUP3 MSTORE PUSH1 0x20 DUP3 ADD SWAP1 POP SWAP3 SWAP2 POP POP JUMP JUMPDEST PUSH32 0x496E76616C696420616464726573730000000000000000000000000000000000 PUSH0 DUP3 ADD MSTORE POP JUMP JUMPDEST PUSH0 PUSH2 0x161 PUSH1 0xF DUP4 PUSH2 0x11D JUMP JUMPDEST SWAP2 POP PUSH2 0x16C DUP3 PUSH2 0x12D JUMP JUMPDEST PUSH1 0x20 DUP3 ADD SWAP1 POP SWAP2 SWAP1 POP JUMP JUMPDEST PUSH0 PUSH1 0x20 DUP3 ADD SWAP1 POP DUP2 DUP2 SUB PUSH0 DUP4 ADD MSTORE PUSH2 0x18E DUP2 PUSH2 0x155 JUMP JUMPDEST SWAP1 POP SWAP2 SWAP1 POP JUMP JUMPDEST PUSH0 DUP2 SWAP1 POP SWAP2 SWAP1 POP JUMP JUMPDEST PUSH32 0x4E487B7100000000000000000000000000000000000000000000000000000000 PUSH0 MSTORE PUSH1 0x11 PUSH1 0x4 MSTORE PUSH1 0x24 PUSH0 REVERT JUMPDEST PUSH0 PUSH2 0x1D5 DUP3 PUSH2 0x195 JUMP JUMPDEST SWAP2 POP PUSH2 0x1E0 DUP4 PUSH2 0x195 JUMP JUMPDEST SWAP3 POP DUP3 DUP3 SUB SWAP1 POP DUP2 DUP2 GT ISZERO PUSH2 0x1F8 JUMPI PUSH2 0x1F7 PUSH2 0x19E JUMP JUMPDEST JUMPDEST SWAP3 SWAP2 POP POP JUMP JUMPDEST PUSH2 0x73E DUP1 PUSH2 0x20B PUSH0 CODECOPY PUSH0 RETURN INVALID PUSH1 0x80 PUSH1 0x40 MSTORE PUSH1 0x4 CALLDATASIZE LT PUSH2 0x42 JUMPI PUSH0 CALLDATALOAD PUSH1 0xE0 SHR DUP1 PUSH4 0x2865667F EQ PUSH2 0x5B JUMPI DUP1 PUSH4 0x5EC5FD19 EQ PUSH2 0x85 JUMPI DUP1 PUSH4 0x8F283970 EQ PUSH2 0xAF JUMPI DUP1 PUSH4 0xFCF1E009 EQ PUSH2 0xD7 JUMPI PUSH2 0x51 JUMP JUMPDEST CALLDATASIZE PUSH2 0x51 JUMPI PUSH2 0x4F PUSH2 0xFF JUMP JUMPDEST STOP JUMPDEST PUSH2 0x59 PUSH2 0xFF JUMP JUMPDEST STOP JUMPDEST CALLVALUE DUP1 ISZERO PUSH2 0x66 JUMPI PUSH0 PUSH0 REVERT JUMPDEST POP PUSH2 0x6F PUSH2 0x111 JUMP JUMPDEST PUSH1 0x40 MLOAD PUSH2 0x7C SWAP2 SWAP1 PUSH2 0x54D JUMP JUMPDEST PUSH1 0x40 MLOAD DUP1 SWAP2 SUB SWAP1 RETURN JUMPDEST CALLVALUE DUP1 ISZERO PUSH2 0x90 JUMPI PUSH0 PUSH0 REVERT JUMPDEST POP PUSH2 0x99 PUSH2 0x167 JUMP JUMPDEST PUSH1 0x40 MLOAD PUSH2 0xA6 SWAP2 SWAP1 PUSH2 0x54D JUMP JUMPDEST PUSH1 0x40 MLOAD DUP1 SWAP2 SUB SWAP1 RETURN JUMPDEST CALLVALUE DUP1 ISZERO PUSH2 0xBA JUMPI PUSH0 PUSH0 REVERT JUMPDEST POP PUSH2 0xD5 PUSH1 0x4 DUP1 CALLDATASIZE SUB DUP2 ADD SWAP1 PUSH2 0xD0 SWAP2 SWAP1 PUSH2 0x594 JUMP JUMPDEST PUSH2 0x1BD JUMP JUMPDEST STOP JUMPDEST CALLVALUE DUP1 ISZERO PUSH2 0xE2 JUMPI PUSH0 PUSH0 REVERT JUMPDEST POP PUSH2 0xFD PUSH1 0x4 DUP1 CALLDATASIZE SUB DUP2 ADD SWAP1 PUSH2 0xF8 SWAP2 SWAP1 PUSH2 0x594 JUMP JUMPDEST PUSH2 0x211 JUMP JUMPDEST STOP JUMPDEST PUSH2 0x10F PUSH2 0x10A PUSH2 0x265 JUMP JUMPDEST PUSH2 0x2C6 JUMP JUMPDEST JUMP JUMPDEST PUSH0 PUSH2 0x11A PUSH2 0x2E5 JUMP JUMPDEST PUSH20 0xFFFFFFFFFFFFFFFFFFFFFFFFFFFFFFFFFFFFFFFF AND CALLER PUSH20 0xFFFFFFFFFFFFFFFFFFFFFFFFFFFFFFFFFFFFFFFF AND SUB PUSH2 0x15B JUMPI PUSH2 0x154 PUSH2 0x2E5 JUMP JUMPDEST SWAP1 POP PUSH2 0x164 JUMP JUMPDEST PUSH2 0x163 PUSH2 0xFF JUMP JUMPDEST JUMPDEST SWAP1 JUMP JUMPDEST PUSH0 PUSH2 0x170 PUSH2 0x2E5 JUMP JUMPDEST PUSH20 0xFFFFFFFFFFFFFFFFFFFFFFFFFFFFFFFFFFFFFFFF AND CALLER PUSH20 0xFFFFFFFFFFFFFFFFFFFFFFFFFFFFFFFFFFFFFFFF AND SUB PUSH2 0x1B1 JUMPI PUSH2 0x1AA PUSH2 0x265 JUMP JUMPDEST SWAP1 POP PUSH2 0x1BA JUMP JUMPDEST PUSH2 0x1B9 PUSH2 0xFF JUMP JUMPDEST JUMPDEST SWAP1 JUMP JUMPDEST PUSH2 0x1C5 PUSH2 0x2E5 JUMP JUMPDEST PUSH20 0xFFFFFFFFFFFFFFFFFFFFFFFFFFFFFFFFFFFFFFFF AND CALLER PUSH20 0xFFFFFFFFFFFFFFFFFFFFFFFFFFFFFFFFFFFFFFFF AND SUB PUSH2 0x205 JUMPI PUSH2 0x200 DUP2 PUSH2 0x346 JUMP JUMPDEST PUSH2 0x20E JUMP JUMPDEST PUSH2 0x20D PUSH2 0xFF JUMP JUMPDEST JUMPDEST POP JUMP JUMPDEST PUSH2 0x219 PUSH2 0x2E5 JUMP JUMPDEST PUSH20 0xFFFFFFFFFFFFFFFFFFFFFFFFFFFFFFFFFFFFFFFF AND CALLER PUSH20 0xFFFFFFFFFFFFFFFFFFFFFFFFFFFFFFFFFFFFFFFF AND SUB PUSH2 0x259 JUMPI PUSH2 0x254 DUP2 PUSH2 0x430 JUMP JUMPDEST PUSH2 0x262 JUMP JUMPDEST PUSH2 0x261 PUSH2 0xFF JUMP JUMPDEST JUMPDEST POP JUMP JUMPDEST PUSH0 PUSH2 0x29F PUSH1 0x1 PUSH32 0x360894A13BA1A3210667C828492DB98DCA3E2076CC3735A920A3CA505D382BBD PUSH0 SHR PUSH2 0x298 SWAP2 SWAP1 PUSH2 0x5F5 JUMP JUMPDEST PUSH0 SHL PUSH2 0x505 JUMP JUMPDEST PUSH0 ADD PUSH0 SWAP1 SLOAD SWAP1 PUSH2 0x100 EXP SWAP1 DIV PUSH20 0xFFFFFFFFFFFFFFFFFFFFFFFFFFFFFFFFFFFFFFFF AND SWAP1 POP SWAP1 JUMP JUMPDEST CALLDATASIZE PUSH0 PUSH0 CALLDATACOPY PUSH0 PUSH0 CALLDATASIZE PUSH0 DUP5 GAS DELEGATECALL RETURNDATASIZE PUSH0 PUSH0 RETURNDATACOPY DUP1 PUSH0 DUP2 EQ PUSH2 0x2E1 JUMPI RETURNDATASIZE PUSH0 RETURN JUMPDEST RETURNDATASIZE PUSH0 REVERT JUMPDEST PUSH0 PUSH2 0x31F PUSH1 0x1 PUSH32 0xB53127684A568B3173AE13B9F8A6016E243E63B6E8EE1178D6A717850B5D6104 PUSH0 SHR PUSH2 0x318 SWAP2 SWAP1 PUSH2 0x5F5 JUMP JUMPDEST PUSH0 SHL PUSH2 0x505 JUMP JUMPDEST PUSH0 ADD PUSH0 SWAP1 SLOAD SWAP1 PUSH2 0x100 EXP SWAP1 DIV PUSH20 0xFFFFFFFFFFFFFFFFFFFFFFFFFFFFFFFFFFFFFFFF AND SWAP1 POP SWAP1 JUMP JUMPDEST PUSH0 PUSH20 0xFFFFFFFFFFFFFFFFFFFFFFFFFFFFFFFFFFFFFFFF AND DUP2 PUSH20 0xFFFFFFFFFFFFFFFFFFFFFFFFFFFFFFFFFFFFFFFF AND SUB PUSH2 0x3B4 JUMPI PUSH1 0x40 MLOAD PUSH32 0x8C379A000000000000000000000000000000000000000000000000000000000 DUP2 MSTORE PUSH1 0x4 ADD PUSH2 0x3AB SWAP1 PUSH2 0x682 JUMP JUMPDEST PUSH1 0x40 MLOAD DUP1 SWAP2 SUB SWAP1 REVERT JUMPDEST DUP1 PUSH2 0x3EE PUSH1 0x1 PUSH32 0xB53127684A568B3173AE13B9F8A6016E243E63B6E8EE1178D6A717850B5D6104 PUSH0 SHR PUSH2 0x3E7 SWAP2 SWAP1 PUSH2 0x5F5 JUMP JUMPDEST PUSH0 SHL PUSH2 0x505 JUMP JUMPDEST PUSH0 ADD PUSH0 PUSH2 0x100 EXP DUP2 SLOAD DUP2 PUSH20 0xFFFFFFFFFFFFFFFFFFFFFFFFFFFFFFFFFFFFFFFF MUL NOT AND SWAP1 DUP4 PUSH20 0xFFFFFFFFFFFFFFFFFFFFFFFFFFFFFFFFFFFFFFFF AND MUL OR SWAP1 SSTORE POP POP JUMP JUMPDEST PUSH0 DUP2 PUSH20 0xFFFFFFFFFFFFFFFFFFFFFFFFFFFFFFFFFFFFFFFF AND EXTCODESIZE GT PUSH2 0x489 JUMPI PUSH1 0x40 MLOAD PUSH32 0x8C379A000000000000000000000000000000000000000000000000000000000 DUP2 MSTORE PUSH1 0x4 ADD PUSH2 0x480 SWAP1 PUSH2 0x6EA JUMP JUMPDEST PUSH1 0x40 MLOAD DUP1 SWAP2 SUB SWAP1 REVERT JUMPDEST DUP1 PUSH2 0x4C3 PUSH1 0x1 PUSH32 0x360894A13BA1A3210667C828492DB98DCA3E2076CC3735A920A3CA505D382BBD PUSH0 SHR PUSH2 0x4BC SWAP2 SWAP1 PUSH2 0x5F5 JUMP JUMPDEST PUSH0 SHL PUSH2 0x505 JUMP JUMPDEST PUSH0 ADD PUSH0 PUSH2 0x100 EXP DUP2 SLOAD DUP2 PUSH20 0xFFFFFFFFFFFFFFFFFFFFFFFFFFFFFFFFFFFFFFFF MUL NOT AND SWAP1 DUP4 PUSH20 0xFFFFFFFFFFFFFFFFFFFFFFFFFFFFFFFFFFFFFFFF AND MUL OR SWAP1 SSTORE POP POP JUMP JUMPDEST PUSH0 DUP2 SWAP1 POP SWAP2 SWAP1 POP JUMP JUMPDEST PUSH0 PUSH20 0xFFFFFFFFFFFFFFFFFFFFFFFFFFFFFFFFFFFFFFFF DUP3 AND SWAP1 POP SWAP2 SWAP1 POP JUMP JUMPDEST PUSH0 PUSH2 0x537 DUP3 PUSH2 0x50E JUMP JUMPDEST SWAP1 POP SWAP2 SWAP1 POP JUMP JUMPDEST PUSH2 0x547 DUP2 PUSH2 0x52D JUMP JUMPDEST DUP3 MSTORE POP POP JUMP JUMPDEST PUSH0 PUSH1 0x20 DUP3 ADD SWAP1 POP PUSH2 0x560 PUSH0 DUP4 ADD DUP5 PUSH2 0x53E JUMP JUMPDEST SWAP3 SWAP2 POP POP JUMP JUMPDEST PUSH0 PUSH0 REVERT JUMPDEST PUSH2 0x573 DUP2 PUSH2 0x52D JUMP JUMPDEST DUP2 EQ PUSH2 0x57D JUMPI PUSH0 PUSH0 REVERT JUMPDEST POP JUMP JUMPDEST PUSH0 DUP2 CALLDATALOAD SWAP1 POP PUSH2 0x58E DUP2 PUSH2 0x56A JUMP JUMPDEST SWAP3 SWAP2 POP POP JUMP JUMPDEST PUSH0 PUSH1 0x20 DUP3 DUP5 SUB SLT ISZERO PUSH2 0x5A9 JUMPI PUSH2 0x5A8 PUSH2 0x566 JUMP JUMPDEST JUMPDEST PUSH0 PUSH2 0x5B6 DUP5 DUP3 DUP6 ADD PUSH2 0x580 JUMP JUMPDEST SWAP2 POP POP SWAP3 SWAP2 POP POP JUMP JUMPDEST PUSH0 DUP2 SWAP1 POP SWAP2 SWAP1 POP JUMP JUMPDEST PUSH32 0x4E487B7100000000000000000000000000000000000000000000000000000000 PUSH0 MSTORE PUSH1 0x11 PUSH1 0x4 MSTORE PUSH1 0x24 PUSH0 REVERT JUMPDEST PUSH0 PUSH2 0x5FF DUP3 PUSH2 0x5BF JUMP JUMPDEST SWAP2 POP PUSH2 0x60A DUP4 PUSH2 0x5BF JUMP JUMPDEST SWAP3 POP DUP3 DUP3 SUB SWAP1 POP DUP2 DUP2 GT ISZERO PUSH2 0x622 JUMPI PUSH2 0x621 PUSH2 0x5C8 JUMP JUMPDEST JUMPDEST SWAP3 SWAP2 POP POP JUMP JUMPDEST PUSH0 DUP3 DUP3 MSTORE PUSH1 0x20 DUP3 ADD SWAP1 POP SWAP3 SWAP2 POP POP JUMP JUMPDEST PUSH32 0x496E76616C696420616464726573730000000000000000000000000000000000 PUSH0 DUP3 ADD MSTORE POP JUMP JUMPDEST PUSH0 PUSH2 0x66C PUSH1 0xF DUP4 PUSH2 0x628 JUMP JUMPDEST SWAP2 POP PUSH2 0x677 DUP3 PUSH2 0x638 JUMP JUMPDEST PUSH1 0x20 DUP3 ADD SWAP1 POP SWAP2 SWAP1 POP JUMP JUMPDEST PUSH0 PUSH1 0x20 DUP3 ADD SWAP1 POP DUP2 DUP2 SUB PUSH0 DUP4 ADD MSTORE PUSH2 0x699 DUP2 PUSH2 0x660 JUMP JUMPDEST SWAP1 POP SWAP2 SWAP1 POP JUMP JUMPDEST PUSH32 0x41646472657373206973206E6F74206120636F6E747261637400000000000000 PUSH0 DUP3 ADD MSTORE POP JUMP JUMPDEST PUSH0 PUSH2 0x6D4 PUSH1 0x19 DUP4 PUSH2 0x628 JUMP JUMPDEST SWAP2 POP PUSH2 0x6DF DUP3 PUSH2 0x6A0 JUMP JUMPDEST PUSH1 0x20 DUP3 ADD SWAP1 POP SWAP2 SWAP1 POP JUMP JUMPDEST PUSH0 PUSH1 0x20 DUP3 ADD SWAP1 POP DUP2 DUP2 SUB PUSH0 DUP4 ADD MSTORE PUSH2 0x701 DUP2 PUSH2 0x6C8 JUMP JUMPDEST SWAP1 POP SWAP2 SWAP1 POP JUMP INVALID LOG2 PUSH5 0x6970667358 0x22 SLT KECCAK256 PUSH24 0xDC103C47BF9E3254ADEE8338916FD6B8DF46E2D2F257C3E4 0xDF PUSH21 0x5029A615E64736F6C634300081E00330000000000 "
				},
				"gasEstimates": {
					"creation": {
						"codeDepositCost": "370800",
						"executionCost": "infinite",
						"totalCost": "infinite"
					},
					"external": {
						"": "infinite",
						"changeAdmin(address)": "infinite",
						"readAdmin()": "infinite",
						"readImpl()": "infinite",
						"updateImpl(address)": "infinite"
					},
					"internal": {
						"_delegate(address)": "infinite",
						"_fallback()": "infinite",
						"getAdmin()": "infinite",
						"getImpl()": "infinite",
						"setAdmin(address)": "infinite",
						"setImpl(address)": "infinite"
					}
				},
				"methodIdentifiers": {
					"changeAdmin(address)": "8f283970",
					"readAdmin()": "2865667f",
					"readImpl()": "5ec5fd19",
					"updateImpl(address)": "fcf1e009"
				}
			},
			"storageLayout": {
				"storage": [],
				"types": null
			},
			"userdoc": {
				"kind": "user",
				"methods": {},
				"version": 1
			}
		}
	}
}