{
	"Logic.sol": {
		"nameRegistry2": {
			"abi": [
				{
					"inputs": [
						{
							"internalType": "string",
							"name": "newName",
							"type": "string"
						}
					],
					"name": "changeName",
					"outputs": [],
					"stateMutability": "nonpayable",
					"type": "function"
				},
				{
					"inputs": [],
					"name": "getName",
					"outputs": [
						{
							"internalType": "string",
							"name": "",
							"type": "string"
						}
					],
					"stateMutability": "view",
					"type": "function"
				},
				{
					"inputs": [
						{
							"internalType": "string",
							"name": "name",
							"type": "string"
						}
					],
					"name": "setName",
					"outputs": [],
					"stateMutability": "nonpayable",
					"type": "function"
				},
				{
					"inputs": [
						{
							"internalType": "address",
							"name": "_user",
							"type": "address"
						}
					],
					"name": "showNameOf",
					"outputs": [
						{
							"internalType": "string",
							"name": "",
							"type": "string"
						}
					],
					"stateMutability": "view",
					"type": "function"
				}
			],
			"devdoc": {
				"kind": "dev",
				"methods": {},
				"version": 1
			},
			"evm": {
				"assembly": "    /* \"Logic.sol\":741:984  contract nameRegistry2 is nameRegistry{ //update for the first contract... */\n  mstore(0x40, 0x80)\n  callvalue\n  dup1\n  iszero\n  tag_1\n  jumpi\n  revert(0x00, 0x00)\ntag_1:\n  pop\n  dataSize(sub_0)\n  dup1\n  dataOffset(sub_0)\n  0x00\n  codecopy\n  0x00\n  return\nstop\n\nsub_0: assembly {\n        /* \"Logic.sol\":741:984  contract nameRegistry2 is nameRegistry{ //update for the first contract... */\n      mstore(0x40, 0x80)\n      callvalue\n      dup1\n      iszero\n      tag_1\n      jumpi\n      revert(0x00, 0x00)\n    tag_1:\n      pop\n      jumpi(tag_2, lt(calldatasize, 0x04))\n      shr(0xe0, calldataload(0x00))\n      dup1\n      0x17d7de7c\n      eq\n      tag_3\n      jumpi\n      dup1\n      0x3e5ce937\n      eq\n      tag_4\n      jumpi\n      dup1\n      0x5353a2d8\n      eq\n      tag_5\n      jumpi\n      dup1\n      0xc47f0027\n      eq\n      tag_6\n      jumpi\n    tag_2:\n      revert(0x00, 0x00)\n        /* \"Logic.sol\":461:557  function getName() public view returns(string memory){... */\n    tag_3:\n      tag_7\n      tag_8\n      jump\t// in\n    tag_7:\n      mload(0x40)\n      tag_9\n      swap2\n      swap1\n      tag_10\n      jump\t// in\n    tag_9:\n      mload(0x40)\n      dup1\n      swap2\n      sub\n      swap1\n      return\n        /* \"Logic.sol\":623:732  function showNameOf(address _user) public view  returns (string memory){... */\n    tag_4:\n      tag_11\n      0x04\n      dup1\n      calldatasize\n      sub\n      dup2\n      add\n      swap1\n      tag_12\n      swap2\n      swap1\n      tag_13\n      jump\t// in\n    tag_12:\n      tag_14\n      jump\t// in\n    tag_11:\n      mload(0x40)\n      tag_15\n      swap2\n      swap1\n      tag_10\n      jump\t// in\n    tag_15:\n      mload(0x40)\n      dup1\n      swap2\n      sub\n      swap1\n      return\n        /* \"Logic.sol\":884:981  function changeName (string memory newName) public {... */\n    tag_5:\n      tag_16\n      0x04\n      dup1\n      calldatasize\n      sub\n      dup2\n      add\n      swap1\n      tag_17\n      swap2\n      swap1\n      tag_18\n      jump\t// in\n    tag_17:\n      tag_19\n      jump\t// in\n    tag_16:\n      stop\n        /* \"Logic.sol\":306:421  function setName(string memory name) public {... */\n    tag_6:\n      tag_20\n      0x04\n      dup1\n      calldatasize\n      sub\n      dup2\n      add\n      swap1\n      tag_21\n      swap2\n      swap1\n      tag_18\n      jump\t// in\n    tag_21:\n      tag_22\n      jump\t// in\n    tag_20:\n      stop\n        /* \"Logic.sol\":461:557  function getName() public view returns(string memory){... */\n    tag_8:\n        /* \"Logic.sol\":500:513  string memory */\n      0x60\n        /* \"Logic.sol\":532:537  names */\n      0x01\n        /* \"Logic.sol\":532:549  names[msg.sender] */\n      0x00\n        /* \"Logic.sol\":538:548  msg.sender */\n      caller\n        /* \"Logic.sol\":532:549  names[msg.sender] */\n      0xffffffffffffffffffffffffffffffffffffffff\n      and\n      0xffffffffffffffffffffffffffffffffffffffff\n      and\n      dup2\n      mstore\n      0x20\n      add\n      swap1\n      dup2\n      mstore\n      0x20\n      add\n      0x00\n      keccak256\n        /* \"Logic.sol\":525:549  return names[msg.sender] */\n      dup1\n      sload\n      tag_24\n      swap1\n      tag_25\n      jump\t// in\n    tag_24:\n      dup1\n      0x1f\n      add\n      0x20\n      dup1\n      swap2\n      div\n      mul\n      0x20\n      add\n      mload(0x40)\n      swap1\n      dup2\n      add\n      0x40\n      mstore\n      dup1\n      swap3\n      swap2\n      swap1\n      dup2\n      dup2\n      mstore\n      0x20\n      add\n      dup3\n      dup1\n      sload\n      tag_26\n      swap1\n      tag_25\n      jump\t// in\n    tag_26:\n      dup1\n      iszero\n      tag_27\n      jumpi\n      dup1\n      0x1f\n      lt\n      tag_28\n      jumpi\n      0x0100\n      dup1\n      dup4\n      sload\n      div\n      mul\n      dup4\n      mstore\n      swap2\n      0x20\n      add\n      swap2\n      jump(tag_27)\n    tag_28:\n      dup3\n      add\n      swap2\n      swap1\n      0x00\n      mstore\n      keccak256(0x00, 0x20)\n      swap1\n    tag_29:\n      dup2\n      sload\n      dup2\n      mstore\n      swap1\n      0x01\n      add\n      swap1\n      0x20\n      add\n      dup1\n      dup4\n      gt\n      tag_29\n      jumpi\n      dup3\n      swap1\n      sub\n      0x1f\n      and\n      dup3\n      add\n      swap2\n    tag_27:\n      pop\n      pop\n      pop\n      pop\n      pop\n      swap1\n      pop\n        /* \"Logic.sol\":461:557  function getName() public view returns(string memory){... */\n      swap1\n      jump\t// out\n        /* \"Logic.sol\":623:732  function showNameOf(address _user) public view  returns (string memory){... */\n    tag_14:\n        /* \"Logic.sol\":680:693  string memory */\n      0x60\n        /* \"Logic.sol\":712:717  names */\n      0x01\n        /* \"Logic.sol\":712:724  names[_user] */\n      0x00\n        /* \"Logic.sol\":718:723  _user */\n      dup4\n        /* \"Logic.sol\":712:724  names[_user] */\n      0xffffffffffffffffffffffffffffffffffffffff\n      and\n      0xffffffffffffffffffffffffffffffffffffffff\n      and\n      dup2\n      mstore\n      0x20\n      add\n      swap1\n      dup2\n      mstore\n      0x20\n      add\n      0x00\n      keccak256\n        /* \"Logic.sol\":705:724  return names[_user] */\n      dup1\n      sload\n      tag_31\n      swap1\n      tag_25\n      jump\t// in\n    tag_31:\n      dup1\n      0x1f\n      add\n      0x20\n      dup1\n      swap2\n      div\n      mul\n      0x20\n      add\n      mload(0x40)\n      swap1\n      dup2\n      add\n      0x40\n      mstore\n      dup1\n      swap3\n      swap2\n      swap1\n      dup2\n      dup2\n      mstore\n      0x20\n      add\n      dup3\n      dup1\n      sload\n      tag_32\n      swap1\n      tag_25\n      jump\t// in\n    tag_32:\n      dup1\n      iszero\n      tag_33\n      jumpi\n      dup1\n      0x1f\n      lt\n      tag_34\n      jumpi\n      0x0100\n      dup1\n      dup4\n      sload\n      div\n      mul\n      dup4\n      mstore\n      swap2\n      0x20\n      add\n      swap2\n      jump(tag_33)\n    tag_34:\n      dup3\n      add\n      swap2\n      swap1\n      0x00\n      mstore\n      keccak256(0x00, 0x20)\n      swap1\n    tag_35:\n      dup2\n      sload\n      dup2\n      mstore\n      swap1\n      0x01\n      add\n      swap1\n      0x20\n      add\n      dup1\n      dup4\n      gt\n      tag_35\n      jumpi\n      dup3\n      swap1\n      sub\n      0x1f\n      and\n      dup3\n      add\n      swap2\n    tag_33:\n      pop\n      pop\n      pop\n      pop\n      pop\n      swap1\n      pop\n        /* \"Logic.sol\":623:732  function showNameOf(address _user) public view  returns (string memory){... */\n      swap2\n      swap1\n      pop\n      jump\t// out\n        /* \"Logic.sol\":884:981  function changeName (string memory newName) public {... */\n    tag_19:\n        /* \"Logic.sol\":966:973  newName */\n      dup1\n        /* \"Logic.sol\":946:951  names */\n      0x01\n        /* \"Logic.sol\":946:963  names[msg.sender] */\n      0x00\n        /* \"Logic.sol\":952:962  msg.sender */\n      caller\n        /* \"Logic.sol\":946:963  names[msg.sender] */\n      0xffffffffffffffffffffffffffffffffffffffff\n      and\n      0xffffffffffffffffffffffffffffffffffffffff\n      and\n      dup2\n      mstore\n      0x20\n      add\n      swap1\n      dup2\n      mstore\n      0x20\n      add\n      0x00\n      keccak256\n        /* \"Logic.sol\":946:973  names[msg.sender] = newName */\n      swap1\n      dup2\n      tag_37\n      swap2\n      swap1\n      tag_38\n      jump\t// in\n    tag_37:\n      pop\n        /* \"Logic.sol\":884:981  function changeName (string memory newName) public {... */\n      pop\n      jump\t// out\n        /* \"Logic.sol\":306:421  function setName(string memory name) public {... */\n    tag_22:\n        /* \"Logic.sol\":368:378  msg.sender */\n      caller\n        /* \"Logic.sol\":361:365  user */\n      0x00\n      0x00\n        /* \"Logic.sol\":361:378  user = msg.sender */\n      0x0100\n      exp\n      dup2\n      sload\n      dup2\n      0xffffffffffffffffffffffffffffffffffffffff\n      mul\n      not\n      and\n      swap1\n      dup4\n      0xffffffffffffffffffffffffffffffffffffffff\n      and\n      mul\n      or\n      swap1\n      sstore\n      pop\n        /* \"Logic.sol\":409:413  name */\n      dup1\n        /* \"Logic.sol\":389:394  names */\n      0x01\n        /* \"Logic.sol\":389:406  names[msg.sender] */\n      0x00\n        /* \"Logic.sol\":395:405  msg.sender */\n      caller\n        /* \"Logic.sol\":389:406  names[msg.sender] */\n      0xffffffffffffffffffffffffffffffffffffffff\n      and\n      0xffffffffffffffffffffffffffffffffffffffff\n      and\n      dup2\n      mstore\n      0x20\n      add\n      swap1\n      dup2\n      mstore\n      0x20\n      add\n      0x00\n      keccak256\n        /* \"Logic.sol\":389:413  names[msg.sender] = name */\n      swap1\n      dup2\n      tag_40\n      swap2\n      swap1\n      tag_38\n      jump\t// in\n    tag_40:\n      pop\n        /* \"Logic.sol\":306:421  function setName(string memory name) public {... */\n      pop\n      jump\t// out\n        /* \"#utility.yul\":7:106   */\n    tag_41:\n        /* \"#utility.yul\":59:65   */\n      0x00\n        /* \"#utility.yul\":93:98   */\n      dup2\n        /* \"#utility.yul\":87:99   */\n      mload\n        /* \"#utility.yul\":77:99   */\n      swap1\n      pop\n        /* \"#utility.yul\":7:106   */\n      swap2\n      swap1\n      pop\n      jump\t// out\n        /* \"#utility.yul\":112:281   */\n    tag_42:\n        /* \"#utility.yul\":196:207   */\n      0x00\n        /* \"#utility.yul\":230:236   */\n      dup3\n        /* \"#utility.yul\":225:228   */\n      dup3\n        /* \"#utility.yul\":218:237   */\n      mstore\n        /* \"#utility.yul\":270:274   */\n      0x20\n        /* \"#utility.yul\":265:268   */\n      dup3\n        /* \"#utility.yul\":261:275   */\n      add\n        /* \"#utility.yul\":246:275   */\n      swap1\n      pop\n        /* \"#utility.yul\":112:281   */\n      swap3\n      swap2\n      pop\n      pop\n      jump\t// out\n        /* \"#utility.yul\":287:426   */\n    tag_43:\n        /* \"#utility.yul\":376:382   */\n      dup3\n        /* \"#utility.yul\":371:374   */\n      dup2\n        /* \"#utility.yul\":366:369   */\n      dup4\n        /* \"#utility.yul\":360:383   */\n      mcopy\n        /* \"#utility.yul\":417:418   */\n      0x00\n        /* \"#utility.yul\":408:414   */\n      dup4\n        /* \"#utility.yul\":403:406   */\n      dup4\n        /* \"#utility.yul\":399:415   */\n      add\n        /* \"#utility.yul\":392:419   */\n      mstore\n        /* \"#utility.yul\":287:426   */\n      pop\n      pop\n      pop\n      jump\t// out\n        /* \"#utility.yul\":432:534   */\n    tag_44:\n        /* \"#utility.yul\":473:479   */\n      0x00\n        /* \"#utility.yul\":524:526   */\n      0x1f\n        /* \"#utility.yul\":520:527   */\n      not\n        /* \"#utility.yul\":515:517   */\n      0x1f\n        /* \"#utility.yul\":508:513   */\n      dup4\n        /* \"#utility.yul\":504:518   */\n      add\n        /* \"#utility.yul\":500:528   */\n      and\n        /* \"#utility.yul\":490:528   */\n      swap1\n      pop\n        /* \"#utility.yul\":432:534   */\n      swap2\n      swap1\n      pop\n      jump\t// out\n        /* \"#utility.yul\":540:917   */\n    tag_45:\n        /* \"#utility.yul\":628:631   */\n      0x00\n        /* \"#utility.yul\":656:695   */\n      tag_85\n        /* \"#utility.yul\":689:694   */\n      dup3\n        /* \"#utility.yul\":656:695   */\n      tag_41\n      jump\t// in\n    tag_85:\n        /* \"#utility.yul\":711:782   */\n      tag_86\n        /* \"#utility.yul\":775:781   */\n      dup2\n        /* \"#utility.yul\":770:773   */\n      dup6\n        /* \"#utility.yul\":711:782   */\n      tag_42\n      jump\t// in\n    tag_86:\n        /* \"#utility.yul\":704:782   */\n      swap4\n      pop\n        /* \"#utility.yul\":791:856   */\n      tag_87\n        /* \"#utility.yul\":849:855   */\n      dup2\n        /* \"#utility.yul\":844:847   */\n      dup6\n        /* \"#utility.yul\":837:841   */\n      0x20\n        /* \"#utility.yul\":830:835   */\n      dup7\n        /* \"#utility.yul\":826:842   */\n      add\n        /* \"#utility.yul\":791:856   */\n      tag_43\n      jump\t// in\n    tag_87:\n        /* \"#utility.yul\":881:910   */\n      tag_88\n        /* \"#utility.yul\":903:909   */\n      dup2\n        /* \"#utility.yul\":881:910   */\n      tag_44\n      jump\t// in\n    tag_88:\n        /* \"#utility.yul\":876:879   */\n      dup5\n        /* \"#utility.yul\":872:911   */\n      add\n        /* \"#utility.yul\":865:911   */\n      swap2\n      pop\n        /* \"#utility.yul\":632:917   */\n      pop\n        /* \"#utility.yul\":540:917   */\n      swap3\n      swap2\n      pop\n      pop\n      jump\t// out\n        /* \"#utility.yul\":923:1236   */\n    tag_10:\n        /* \"#utility.yul\":1036:1040   */\n      0x00\n        /* \"#utility.yul\":1074:1076   */\n      0x20\n        /* \"#utility.yul\":1063:1072   */\n      dup3\n        /* \"#utility.yul\":1059:1077   */\n      add\n        /* \"#utility.yul\":1051:1077   */\n      swap1\n      pop\n        /* \"#utility.yul\":1123:1132   */\n      dup2\n        /* \"#utility.yul\":1117:1121   */\n      dup2\n        /* \"#utility.yul\":1113:1133   */\n      sub\n        /* \"#utility.yul\":1109:1110   */\n      0x00\n        /* \"#utility.yul\":1098:1107   */\n      dup4\n        /* \"#utility.yul\":1094:1111   */\n      add\n        /* \"#utility.yul\":1087:1134   */\n      mstore\n        /* \"#utility.yul\":1151:1229   */\n      tag_90\n        /* \"#utility.yul\":1224:1228   */\n      dup2\n        /* \"#utility.yul\":1215:1221   */\n      dup5\n        /* \"#utility.yul\":1151:1229   */\n      tag_45\n      jump\t// in\n    tag_90:\n        /* \"#utility.yul\":1143:1229   */\n      swap1\n      pop\n        /* \"#utility.yul\":923:1236   */\n      swap3\n      swap2\n      pop\n      pop\n      jump\t// out\n        /* \"#utility.yul\":1242:1317   */\n    tag_46:\n        /* \"#utility.yul\":1275:1281   */\n      0x00\n        /* \"#utility.yul\":1308:1310   */\n      0x40\n        /* \"#utility.yul\":1302:1311   */\n      mload\n        /* \"#utility.yul\":1292:1311   */\n      swap1\n      pop\n        /* \"#utility.yul\":1242:1317   */\n      swap1\n      jump\t// out\n        /* \"#utility.yul\":1323:1440   */\n    tag_47:\n        /* \"#utility.yul\":1432:1433   */\n      0x00\n        /* \"#utility.yul\":1429:1430   */\n      0x00\n        /* \"#utility.yul\":1422:1434   */\n      revert\n        /* \"#utility.yul\":1446:1563   */\n    tag_48:\n        /* \"#utility.yul\":1555:1556   */\n      0x00\n        /* \"#utility.yul\":1552:1553   */\n      0x00\n        /* \"#utility.yul\":1545:1557   */\n      revert\n        /* \"#utility.yul\":1569:1695   */\n    tag_49:\n        /* \"#utility.yul\":1606:1613   */\n      0x00\n        /* \"#utility.yul\":1646:1688   */\n      0xffffffffffffffffffffffffffffffffffffffff\n        /* \"#utility.yul\":1639:1644   */\n      dup3\n        /* \"#utility.yul\":1635:1689   */\n      and\n        /* \"#utility.yul\":1624:1689   */\n      swap1\n      pop\n        /* \"#utility.yul\":1569:1695   */\n      swap2\n      swap1\n      pop\n      jump\t// out\n        /* \"#utility.yul\":1701:1797   */\n    tag_50:\n        /* \"#utility.yul\":1738:1745   */\n      0x00\n        /* \"#utility.yul\":1767:1791   */\n      tag_96\n        /* \"#utility.yul\":1785:1790   */\n      dup3\n        /* \"#utility.yul\":1767:1791   */\n      tag_49\n      jump\t// in\n    tag_96:\n        /* \"#utility.yul\":1756:1791   */\n      swap1\n      pop\n        /* \"#utility.yul\":1701:1797   */\n      swap2\n      swap1\n      pop\n      jump\t// out\n        /* \"#utility.yul\":1803:1925   */\n    tag_51:\n        /* \"#utility.yul\":1876:1900   */\n      tag_98\n        /* \"#utility.yul\":1894:1899   */\n      dup2\n        /* \"#utility.yul\":1876:1900   */\n      tag_50\n      jump\t// in\n    tag_98:\n        /* \"#utility.yul\":1869:1874   */\n      dup2\n        /* \"#utility.yul\":1866:1901   */\n      eq\n        /* \"#utility.yul\":1856:1919   */\n      tag_99\n      jumpi\n        /* \"#utility.yul\":1915:1916   */\n      0x00\n        /* \"#utility.yul\":1912:1913   */\n      0x00\n        /* \"#utility.yul\":1905:1917   */\n      revert\n        /* \"#utility.yul\":1856:1919   */\n    tag_99:\n        /* \"#utility.yul\":1803:1925   */\n      pop\n      jump\t// out\n        /* \"#utility.yul\":1931:2070   */\n    tag_52:\n        /* \"#utility.yul\":1977:1982   */\n      0x00\n        /* \"#utility.yul\":2015:2021   */\n      dup2\n        /* \"#utility.yul\":2002:2022   */\n      calldataload\n        /* \"#utility.yul\":1993:2022   */\n      swap1\n      pop\n        /* \"#utility.yul\":2031:2064   */\n      tag_101\n        /* \"#utility.yul\":2058:2063   */\n      dup2\n        /* \"#utility.yul\":2031:2064   */\n      tag_51\n      jump\t// in\n    tag_101:\n        /* \"#utility.yul\":1931:2070   */\n      swap3\n      swap2\n      pop\n      pop\n      jump\t// out\n        /* \"#utility.yul\":2076:2405   */\n    tag_13:\n        /* \"#utility.yul\":2135:2141   */\n      0x00\n        /* \"#utility.yul\":2184:2186   */\n      0x20\n        /* \"#utility.yul\":2172:2181   */\n      dup3\n        /* \"#utility.yul\":2163:2170   */\n      dup5\n        /* \"#utility.yul\":2159:2182   */\n      sub\n        /* \"#utility.yul\":2155:2187   */\n      slt\n        /* \"#utility.yul\":2152:2271   */\n      iszero\n      tag_103\n      jumpi\n        /* \"#utility.yul\":2190:2269   */\n      tag_104\n      tag_47\n      jump\t// in\n    tag_104:\n        /* \"#utility.yul\":2152:2271   */\n    tag_103:\n        /* \"#utility.yul\":2310:2311   */\n      0x00\n        /* \"#utility.yul\":2335:2388   */\n      tag_105\n        /* \"#utility.yul\":2380:2387   */\n      dup5\n        /* \"#utility.yul\":2371:2377   */\n      dup3\n        /* \"#utility.yul\":2360:2369   */\n      dup6\n        /* \"#utility.yul\":2356:2378   */\n      add\n        /* \"#utility.yul\":2335:2388   */\n      tag_52\n      jump\t// in\n    tag_105:\n        /* \"#utility.yul\":2325:2388   */\n      swap2\n      pop\n        /* \"#utility.yul\":2281:2398   */\n      pop\n        /* \"#utility.yul\":2076:2405   */\n      swap3\n      swap2\n      pop\n      pop\n      jump\t// out\n        /* \"#utility.yul\":2411:2528   */\n    tag_53:\n        /* \"#utility.yul\":2520:2521   */\n      0x00\n        /* \"#utility.yul\":2517:2518   */\n      0x00\n        /* \"#utility.yul\":2510:2522   */\n      revert\n        /* \"#utility.yul\":2534:2651   */\n    tag_54:\n        /* \"#utility.yul\":2643:2644   */\n      0x00\n        /* \"#utility.yul\":2640:2641   */\n      0x00\n        /* \"#utility.yul\":2633:2645   */\n      revert\n        /* \"#utility.yul\":2657:2837   */\n    tag_55:\n        /* \"#utility.yul\":2705:2782   */\n      0x4e487b7100000000000000000000000000000000000000000000000000000000\n        /* \"#utility.yul\":2702:2703   */\n      0x00\n        /* \"#utility.yul\":2695:2783   */\n      mstore\n        /* \"#utility.yul\":2802:2806   */\n      0x41\n        /* \"#utility.yul\":2799:2800   */\n      0x04\n        /* \"#utility.yul\":2792:2807   */\n      mstore\n        /* \"#utility.yul\":2826:2830   */\n      0x24\n        /* \"#utility.yul\":2823:2824   */\n      0x00\n        /* \"#utility.yul\":2816:2831   */\n      revert\n        /* \"#utility.yul\":2843:3124   */\n    tag_56:\n        /* \"#utility.yul\":2926:2953   */\n      tag_110\n        /* \"#utility.yul\":2948:2952   */\n      dup3\n        /* \"#utility.yul\":2926:2953   */\n      tag_44\n      jump\t// in\n    tag_110:\n        /* \"#utility.yul\":2918:2924   */\n      dup2\n        /* \"#utility.yul\":2914:2954   */\n      add\n        /* \"#utility.yul\":3056:3062   */\n      dup2\n        /* \"#utility.yul\":3044:3054   */\n      dup2\n        /* \"#utility.yul\":3041:3063   */\n      lt\n        /* \"#utility.yul\":3020:3038   */\n      0xffffffffffffffff\n        /* \"#utility.yul\":3008:3018   */\n      dup3\n        /* \"#utility.yul\":3005:3039   */\n      gt\n        /* \"#utility.yul\":3002:3064   */\n      or\n        /* \"#utility.yul\":2999:3087   */\n      iszero\n      tag_111\n      jumpi\n        /* \"#utility.yul\":3067:3085   */\n      tag_112\n      tag_55\n      jump\t// in\n    tag_112:\n        /* \"#utility.yul\":2999:3087   */\n    tag_111:\n        /* \"#utility.yul\":3107:3117   */\n      dup1\n        /* \"#utility.yul\":3103:3105   */\n      0x40\n        /* \"#utility.yul\":3096:3118   */\n      mstore\n        /* \"#utility.yul\":2886:3124   */\n      pop\n        /* \"#utility.yul\":2843:3124   */\n      pop\n      pop\n      jump\t// out\n        /* \"#utility.yul\":3130:3259   */\n    tag_57:\n        /* \"#utility.yul\":3164:3170   */\n      0x00\n        /* \"#utility.yul\":3191:3211   */\n      tag_114\n      tag_46\n      jump\t// in\n    tag_114:\n        /* \"#utility.yul\":3181:3211   */\n      swap1\n      pop\n        /* \"#utility.yul\":3220:3253   */\n      tag_115\n        /* \"#utility.yul\":3248:3252   */\n      dup3\n        /* \"#utility.yul\":3240:3246   */\n      dup3\n        /* \"#utility.yul\":3220:3253   */\n      tag_56\n      jump\t// in\n    tag_115:\n        /* \"#utility.yul\":3130:3259   */\n      swap2\n      swap1\n      pop\n      jump\t// out\n        /* \"#utility.yul\":3265:3573   */\n    tag_58:\n        /* \"#utility.yul\":3327:3331   */\n      0x00\n        /* \"#utility.yul\":3417:3435   */\n      0xffffffffffffffff\n        /* \"#utility.yul\":3409:3415   */\n      dup3\n        /* \"#utility.yul\":3406:3436   */\n      gt\n        /* \"#utility.yul\":3403:3459   */\n      iszero\n      tag_117\n      jumpi\n        /* \"#utility.yul\":3439:3457   */\n      tag_118\n      tag_55\n      jump\t// in\n    tag_118:\n        /* \"#utility.yul\":3403:3459   */\n    tag_117:\n        /* \"#utility.yul\":3477:3506   */\n      tag_119\n        /* \"#utility.yul\":3499:3505   */\n      dup3\n        /* \"#utility.yul\":3477:3506   */\n      tag_44\n      jump\t// in\n    tag_119:\n        /* \"#utility.yul\":3469:3506   */\n      swap1\n      pop\n        /* \"#utility.yul\":3561:3565   */\n      0x20\n        /* \"#utility.yul\":3555:3559   */\n      dup2\n        /* \"#utility.yul\":3551:3566   */\n      add\n        /* \"#utility.yul\":3543:3566   */\n      swap1\n      pop\n        /* \"#utility.yul\":3265:3573   */\n      swap2\n      swap1\n      pop\n      jump\t// out\n        /* \"#utility.yul\":3579:3727   */\n    tag_59:\n        /* \"#utility.yul\":3677:3683   */\n      dup3\n        /* \"#utility.yul\":3672:3675   */\n      dup2\n        /* \"#utility.yul\":3667:3670   */\n      dup4\n        /* \"#utility.yul\":3654:3684   */\n      calldatacopy\n        /* \"#utility.yul\":3718:3719   */\n      0x00\n        /* \"#utility.yul\":3709:3715   */\n      dup4\n        /* \"#utility.yul\":3704:3707   */\n      dup4\n        /* \"#utility.yul\":3700:3716   */\n      add\n        /* \"#utility.yul\":3693:3720   */\n      mstore\n        /* \"#utility.yul\":3579:3727   */\n      pop\n      pop\n      pop\n      jump\t// out\n        /* \"#utility.yul\":3733:4158   */\n    tag_60:\n        /* \"#utility.yul\":3811:3816   */\n      0x00\n        /* \"#utility.yul\":3836:3902   */\n      tag_122\n        /* \"#utility.yul\":3852:3901   */\n      tag_123\n        /* \"#utility.yul\":3894:3900   */\n      dup5\n        /* \"#utility.yul\":3852:3901   */\n      tag_58\n      jump\t// in\n    tag_123:\n        /* \"#utility.yul\":3836:3902   */\n      tag_57\n      jump\t// in\n    tag_122:\n        /* \"#utility.yul\":3827:3902   */\n      swap1\n      pop\n        /* \"#utility.yul\":3925:3931   */\n      dup3\n        /* \"#utility.yul\":3918:3923   */\n      dup2\n        /* \"#utility.yul\":3911:3932   */\n      mstore\n        /* \"#utility.yul\":3963:3967   */\n      0x20\n        /* \"#utility.yul\":3956:3961   */\n      dup2\n        /* \"#utility.yul\":3952:3968   */\n      add\n        /* \"#utility.yul\":4001:4004   */\n      dup5\n        /* \"#utility.yul\":3992:3998   */\n      dup5\n        /* \"#utility.yul\":3987:3990   */\n      dup5\n        /* \"#utility.yul\":3983:3999   */\n      add\n        /* \"#utility.yul\":3980:4005   */\n      gt\n        /* \"#utility.yul\":3977:4089   */\n      iszero\n      tag_124\n      jumpi\n        /* \"#utility.yul\":4008:4087   */\n      tag_125\n      tag_54\n      jump\t// in\n    tag_125:\n        /* \"#utility.yul\":3977:4089   */\n    tag_124:\n        /* \"#utility.yul\":4098:4152   */\n      tag_126\n        /* \"#utility.yul\":4145:4151   */\n      dup5\n        /* \"#utility.yul\":4140:4143   */\n      dup3\n        /* \"#utility.yul\":4135:4138   */\n      dup6\n        /* \"#utility.yul\":4098:4152   */\n      tag_59\n      jump\t// in\n    tag_126:\n        /* \"#utility.yul\":3817:4158   */\n      pop\n        /* \"#utility.yul\":3733:4158   */\n      swap4\n      swap3\n      pop\n      pop\n      pop\n      jump\t// out\n        /* \"#utility.yul\":4178:4518   */\n    tag_61:\n        /* \"#utility.yul\":4234:4239   */\n      0x00\n        /* \"#utility.yul\":4283:4286   */\n      dup3\n        /* \"#utility.yul\":4276:4280   */\n      0x1f\n        /* \"#utility.yul\":4268:4274   */\n      dup4\n        /* \"#utility.yul\":4264:4281   */\n      add\n        /* \"#utility.yul\":4260:4287   */\n      slt\n        /* \"#utility.yul\":4250:4372   */\n      tag_128\n      jumpi\n        /* \"#utility.yul\":4291:4370   */\n      tag_129\n      tag_53\n      jump\t// in\n    tag_129:\n        /* \"#utility.yul\":4250:4372   */\n    tag_128:\n        /* \"#utility.yul\":4408:4414   */\n      dup2\n        /* \"#utility.yul\":4395:4415   */\n      calldataload\n        /* \"#utility.yul\":4433:4512   */\n      tag_130\n        /* \"#utility.yul\":4508:4511   */\n      dup5\n        /* \"#utility.yul\":4500:4506   */\n      dup3\n        /* \"#utility.yul\":4493:4497   */\n      0x20\n        /* \"#utility.yul\":4485:4491   */\n      dup7\n        /* \"#utility.yul\":4481:4498   */\n      add\n        /* \"#utility.yul\":4433:4512   */\n      tag_60\n      jump\t// in\n    tag_130:\n        /* \"#utility.yul\":4424:4512   */\n      swap2\n      pop\n        /* \"#utility.yul\":4240:4518   */\n      pop\n        /* \"#utility.yul\":4178:4518   */\n      swap3\n      swap2\n      pop\n      pop\n      jump\t// out\n        /* \"#utility.yul\":4524:5033   */\n    tag_18:\n        /* \"#utility.yul\":4593:4599   */\n      0x00\n        /* \"#utility.yul\":4642:4644   */\n      0x20\n        /* \"#utility.yul\":4630:4639   */\n      dup3\n        /* \"#utility.yul\":4621:4628   */\n      dup5\n        /* \"#utility.yul\":4617:4640   */\n      sub\n        /* \"#utility.yul\":4613:4645   */\n      slt\n        /* \"#utility.yul\":4610:4729   */\n      iszero\n      tag_132\n      jumpi\n        /* \"#utility.yul\":4648:4727   */\n      tag_133\n      tag_47\n      jump\t// in\n    tag_133:\n        /* \"#utility.yul\":4610:4729   */\n    tag_132:\n        /* \"#utility.yul\":4796:4797   */\n      0x00\n        /* \"#utility.yul\":4785:4794   */\n      dup3\n        /* \"#utility.yul\":4781:4798   */\n      add\n        /* \"#utility.yul\":4768:4799   */\n      calldataload\n        /* \"#utility.yul\":4826:4844   */\n      0xffffffffffffffff\n        /* \"#utility.yul\":4818:4824   */\n      dup2\n        /* \"#utility.yul\":4815:4845   */\n      gt\n        /* \"#utility.yul\":4812:4929   */\n      iszero\n      tag_134\n      jumpi\n        /* \"#utility.yul\":4848:4927   */\n      tag_135\n      tag_48\n      jump\t// in\n    tag_135:\n        /* \"#utility.yul\":4812:4929   */\n    tag_134:\n        /* \"#utility.yul\":4953:5016   */\n      tag_136\n        /* \"#utility.yul\":5008:5015   */\n      dup5\n        /* \"#utility.yul\":4999:5005   */\n      dup3\n        /* \"#utility.yul\":4988:4997   */\n      dup6\n        /* \"#utility.yul\":4984:5006   */\n      add\n        /* \"#utility.yul\":4953:5016   */\n      tag_61\n      jump\t// in\n    tag_136:\n        /* \"#utility.yul\":4943:5016   */\n      swap2\n      pop\n        /* \"#utility.yul\":4739:5026   */\n      pop\n        /* \"#utility.yul\":4524:5033   */\n      swap3\n      swap2\n      pop\n      pop\n      jump\t// out\n        /* \"#utility.yul\":5039:5219   */\n    tag_62:\n        /* \"#utility.yul\":5087:5164   */\n      0x4e487b7100000000000000000000000000000000000000000000000000000000\n        /* \"#utility.yul\":5084:5085   */\n      0x00\n        /* \"#utility.yul\":5077:5165   */\n      mstore\n        /* \"#utility.yul\":5184:5188   */\n      0x22\n        /* \"#utility.yul\":5181:5182   */\n      0x04\n        /* \"#utility.yul\":5174:5189   */\n      mstore\n        /* \"#utility.yul\":5208:5212   */\n      0x24\n        /* \"#utility.yul\":5205:5206   */\n      0x00\n        /* \"#utility.yul\":5198:5213   */\n      revert\n        /* \"#utility.yul\":5225:5545   */\n    tag_25:\n        /* \"#utility.yul\":5269:5275   */\n      0x00\n        /* \"#utility.yul\":5306:5307   */\n      0x02\n        /* \"#utility.yul\":5300:5304   */\n      dup3\n        /* \"#utility.yul\":5296:5308   */\n      div\n        /* \"#utility.yul\":5286:5308   */\n      swap1\n      pop\n        /* \"#utility.yul\":5353:5354   */\n      0x01\n        /* \"#utility.yul\":5347:5351   */\n      dup3\n        /* \"#utility.yul\":5343:5355   */\n      and\n        /* \"#utility.yul\":5374:5392   */\n      dup1\n        /* \"#utility.yul\":5364:5445   */\n      tag_139\n      jumpi\n        /* \"#utility.yul\":5430:5434   */\n      0x7f\n        /* \"#utility.yul\":5422:5428   */\n      dup3\n        /* \"#utility.yul\":5418:5435   */\n      and\n        /* \"#utility.yul\":5408:5435   */\n      swap2\n      pop\n        /* \"#utility.yul\":5364:5445   */\n    tag_139:\n        /* \"#utility.yul\":5492:5494   */\n      0x20\n        /* \"#utility.yul\":5484:5490   */\n      dup3\n        /* \"#utility.yul\":5481:5495   */\n      lt\n        /* \"#utility.yul\":5461:5479   */\n      dup2\n        /* \"#utility.yul\":5458:5496   */\n      sub\n        /* \"#utility.yul\":5455:5539   */\n      tag_140\n      jumpi\n        /* \"#utility.yul\":5511:5529   */\n      tag_141\n      tag_62\n      jump\t// in\n    tag_141:\n        /* \"#utility.yul\":5455:5539   */\n    tag_140:\n        /* \"#utility.yul\":5276:5545   */\n      pop\n        /* \"#utility.yul\":5225:5545   */\n      swap2\n      swap1\n      pop\n      jump\t// out\n        /* \"#utility.yul\":5551:5692   */\n    tag_63:\n        /* \"#utility.yul\":5600:5604   */\n      0x00\n        /* \"#utility.yul\":5623:5626   */\n      dup2\n        /* \"#utility.yul\":5615:5626   */\n      swap1\n      pop\n        /* \"#utility.yul\":5646:5649   */\n      dup2\n        /* \"#utility.yul\":5643:5644   */\n      0x00\n        /* \"#utility.yul\":5636:5650   */\n      mstore\n        /* \"#utility.yul\":5680:5684   */\n      0x20\n        /* \"#utility.yul\":5677:5678   */\n      0x00\n        /* \"#utility.yul\":5667:5685   */\n      keccak256\n        /* \"#utility.yul\":5659:5685   */\n      swap1\n      pop\n        /* \"#utility.yul\":5551:5692   */\n      swap2\n      swap1\n      pop\n      jump\t// out\n        /* \"#utility.yul\":5698:5791   */\n    tag_64:\n        /* \"#utility.yul\":5735:5741   */\n      0x00\n        /* \"#utility.yul\":5782:5784   */\n      0x20\n        /* \"#utility.yul\":5777:5779   */\n      0x1f\n        /* \"#utility.yul\":5770:5775   */\n      dup4\n        /* \"#utility.yul\":5766:5780   */\n      add\n        /* \"#utility.yul\":5762:5785   */\n      div\n        /* \"#utility.yul\":5752:5785   */\n      swap1\n      pop\n        /* \"#utility.yul\":5698:5791   */\n      swap2\n      swap1\n      pop\n      jump\t// out\n        /* \"#utility.yul\":5797:5904   */\n    tag_65:\n        /* \"#utility.yul\":5841:5849   */\n      0x00\n        /* \"#utility.yul\":5891:5896   */\n      dup3\n        /* \"#utility.yul\":5885:5889   */\n      dup3\n        /* \"#utility.yul\":5881:5897   */\n      shl\n        /* \"#utility.yul\":5860:5897   */\n      swap1\n      pop\n        /* \"#utility.yul\":5797:5904   */\n      swap3\n      swap2\n      pop\n      pop\n      jump\t// out\n        /* \"#utility.yul\":5910:6303   */\n    tag_66:\n        /* \"#utility.yul\":5979:5985   */\n      0x00\n        /* \"#utility.yul\":6029:6030   */\n      0x08\n        /* \"#utility.yul\":6017:6027   */\n      dup4\n        /* \"#utility.yul\":6013:6031   */\n      mul\n        /* \"#utility.yul\":6052:6149   */\n      tag_146\n        /* \"#utility.yul\":6082:6148   */\n      0xffffffffffffffffffffffffffffffffffffffffffffffffffffffffffffffff\n        /* \"#utility.yul\":6071:6080   */\n      dup3\n        /* \"#utility.yul\":6052:6149   */\n      tag_65\n      jump\t// in\n    tag_146:\n        /* \"#utility.yul\":6170:6209   */\n      tag_147\n        /* \"#utility.yul\":6200:6208   */\n      dup7\n        /* \"#utility.yul\":6189:6198   */\n      dup4\n        /* \"#utility.yul\":6170:6209   */\n      tag_65\n      jump\t// in\n    tag_147:\n        /* \"#utility.yul\":6158:6209   */\n      swap6\n      pop\n        /* \"#utility.yul\":6242:6246   */\n      dup1\n        /* \"#utility.yul\":6238:6247   */\n      not\n        /* \"#utility.yul\":6231:6236   */\n      dup5\n        /* \"#utility.yul\":6227:6248   */\n      and\n        /* \"#utility.yul\":6218:6248   */\n      swap4\n      pop\n        /* \"#utility.yul\":6291:6295   */\n      dup1\n        /* \"#utility.yul\":6281:6289   */\n      dup7\n        /* \"#utility.yul\":6277:6296   */\n      and\n        /* \"#utility.yul\":6270:6275   */\n      dup5\n        /* \"#utility.yul\":6267:6297   */\n      or\n        /* \"#utility.yul\":6257:6297   */\n      swap3\n      pop\n        /* \"#utility.yul\":5986:6303   */\n      pop\n      pop\n        /* \"#utility.yul\":5910:6303   */\n      swap4\n      swap3\n      pop\n      pop\n      pop\n      jump\t// out\n        /* \"#utility.yul\":6309:6386   */\n    tag_67:\n        /* \"#utility.yul\":6346:6353   */\n      0x00\n        /* \"#utility.yul\":6375:6380   */\n      dup2\n        /* \"#utility.yul\":6364:6380   */\n      swap1\n      pop\n        /* \"#utility.yul\":6309:6386   */\n      swap2\n      swap1\n      pop\n      jump\t// out\n        /* \"#utility.yul\":6392:6452   */\n    tag_68:\n        /* \"#utility.yul\":6420:6423   */\n      0x00\n        /* \"#utility.yul\":6441:6446   */\n      dup2\n        /* \"#utility.yul\":6434:6446   */\n      swap1\n      pop\n        /* \"#utility.yul\":6392:6452   */\n      swap2\n      swap1\n      pop\n      jump\t// out\n        /* \"#utility.yul\":6458:6600   */\n    tag_69:\n        /* \"#utility.yul\":6508:6517   */\n      0x00\n        /* \"#utility.yul\":6541:6594   */\n      tag_151\n        /* \"#utility.yul\":6559:6593   */\n      tag_152\n        /* \"#utility.yul\":6568:6592   */\n      tag_153\n        /* \"#utility.yul\":6586:6591   */\n      dup5\n        /* \"#utility.yul\":6568:6592   */\n      tag_67\n      jump\t// in\n    tag_153:\n        /* \"#utility.yul\":6559:6593   */\n      tag_68\n      jump\t// in\n    tag_152:\n        /* \"#utility.yul\":6541:6594   */\n      tag_67\n      jump\t// in\n    tag_151:\n        /* \"#utility.yul\":6528:6594   */\n      swap1\n      pop\n        /* \"#utility.yul\":6458:6600   */\n      swap2\n      swap1\n      pop\n      jump\t// out\n        /* \"#utility.yul\":6606:6681   */\n    tag_70:\n        /* \"#utility.yul\":6649:6652   */\n      0x00\n        /* \"#utility.yul\":6670:6675   */\n      dup2\n        /* \"#utility.yul\":6663:6675   */\n      swap1\n      pop\n        /* \"#utility.yul\":6606:6681   */\n      swap2\n      swap1\n      pop\n      jump\t// out\n        /* \"#utility.yul\":6687:6956   */\n    tag_71:\n        /* \"#utility.yul\":6797:6836   */\n      tag_156\n        /* \"#utility.yul\":6828:6835   */\n      dup4\n        /* \"#utility.yul\":6797:6836   */\n      tag_69\n      jump\t// in\n    tag_156:\n        /* \"#utility.yul\":6858:6949   */\n      tag_157\n        /* \"#utility.yul\":6907:6948   */\n      tag_158\n        /* \"#utility.yul\":6931:6947   */\n      dup3\n        /* \"#utility.yul\":6907:6948   */\n      tag_70\n      jump\t// in\n    tag_158:\n        /* \"#utility.yul\":6899:6905   */\n      dup5\n        /* \"#utility.yul\":6892:6896   */\n      dup5\n        /* \"#utility.yul\":6886:6897   */\n      sload\n        /* \"#utility.yul\":6858:6949   */\n      tag_66\n      jump\t// in\n    tag_157:\n        /* \"#utility.yul\":6852:6856   */\n      dup3\n        /* \"#utility.yul\":6845:6950   */\n      sstore\n        /* \"#utility.yul\":6763:6956   */\n      pop\n        /* \"#utility.yul\":6687:6956   */\n      pop\n      pop\n      pop\n      jump\t// out\n        /* \"#utility.yul\":6962:7035   */\n    tag_72:\n        /* \"#utility.yul\":7007:7010   */\n      0x00\n        /* \"#utility.yul\":7028:7029   */\n      0x00\n        /* \"#utility.yul\":7021:7029   */\n      swap1\n      pop\n        /* \"#utility.yul\":6962:7035   */\n      swap1\n      jump\t// out\n        /* \"#utility.yul\":7041:7230   */\n    tag_73:\n        /* \"#utility.yul\":7118:7150   */\n      tag_161\n      tag_72\n      jump\t// in\n    tag_161:\n        /* \"#utility.yul\":7159:7224   */\n      tag_162\n        /* \"#utility.yul\":7217:7223   */\n      dup2\n        /* \"#utility.yul\":7209:7215   */\n      dup5\n        /* \"#utility.yul\":7203:7207   */\n      dup5\n        /* \"#utility.yul\":7159:7224   */\n      tag_71\n      jump\t// in\n    tag_162:\n        /* \"#utility.yul\":7094:7230   */\n      pop\n        /* \"#utility.yul\":7041:7230   */\n      pop\n      pop\n      jump\t// out\n        /* \"#utility.yul\":7236:7422   */\n    tag_74:\n        /* \"#utility.yul\":7296:7416   */\n    tag_164:\n        /* \"#utility.yul\":7313:7316   */\n      dup2\n        /* \"#utility.yul\":7306:7311   */\n      dup2\n        /* \"#utility.yul\":7303:7317   */\n      lt\n        /* \"#utility.yul\":7296:7416   */\n      iszero\n      tag_166\n      jumpi\n        /* \"#utility.yul\":7367:7406   */\n      tag_167\n        /* \"#utility.yul\":7404:7405   */\n      0x00\n        /* \"#utility.yul\":7397:7402   */\n      dup3\n        /* \"#utility.yul\":7367:7406   */\n      tag_73\n      jump\t// in\n    tag_167:\n        /* \"#utility.yul\":7340:7341   */\n      0x01\n        /* \"#utility.yul\":7333:7338   */\n      dup2\n        /* \"#utility.yul\":7329:7342   */\n      add\n        /* \"#utility.yul\":7320:7342   */\n      swap1\n      pop\n        /* \"#utility.yul\":7296:7416   */\n      jump(tag_164)\n    tag_166:\n        /* \"#utility.yul\":7236:7422   */\n      pop\n      pop\n      jump\t// out\n        /* \"#utility.yul\":7428:7971   */\n    tag_75:\n        /* \"#utility.yul\":7529:7531   */\n      0x1f\n        /* \"#utility.yul\":7524:7527   */\n      dup3\n        /* \"#utility.yul\":7521:7532   */\n      gt\n        /* \"#utility.yul\":7518:7964   */\n      iszero\n      tag_169\n      jumpi\n        /* \"#utility.yul\":7563:7601   */\n      tag_170\n        /* \"#utility.yul\":7595:7600   */\n      dup2\n        /* \"#utility.yul\":7563:7601   */\n      tag_63\n      jump\t// in\n    tag_170:\n        /* \"#utility.yul\":7647:7676   */\n      tag_171\n        /* \"#utility.yul\":7665:7675   */\n      dup5\n        /* \"#utility.yul\":7647:7676   */\n      tag_64\n      jump\t// in\n    tag_171:\n        /* \"#utility.yul\":7637:7645   */\n      dup2\n        /* \"#utility.yul\":7633:7677   */\n      add\n        /* \"#utility.yul\":7830:7832   */\n      0x20\n        /* \"#utility.yul\":7818:7828   */\n      dup6\n        /* \"#utility.yul\":7815:7833   */\n      lt\n        /* \"#utility.yul\":7812:7861   */\n      iszero\n      tag_172\n      jumpi\n        /* \"#utility.yul\":7851:7859   */\n      dup2\n        /* \"#utility.yul\":7836:7859   */\n      swap1\n      pop\n        /* \"#utility.yul\":7812:7861   */\n    tag_172:\n        /* \"#utility.yul\":7874:7954   */\n      tag_173\n        /* \"#utility.yul\":7930:7952   */\n      tag_174\n        /* \"#utility.yul\":7948:7951   */\n      dup6\n        /* \"#utility.yul\":7930:7952   */\n      tag_64\n      jump\t// in\n    tag_174:\n        /* \"#utility.yul\":7920:7928   */\n      dup4\n        /* \"#utility.yul\":7916:7953   */\n      add\n        /* \"#utility.yul\":7903:7914   */\n      dup3\n        /* \"#utility.yul\":7874:7954   */\n      tag_74\n      jump\t// in\n    tag_173:\n        /* \"#utility.yul\":7533:7964   */\n      pop\n      pop\n        /* \"#utility.yul\":7518:7964   */\n    tag_169:\n        /* \"#utility.yul\":7428:7971   */\n      pop\n      pop\n      pop\n      jump\t// out\n        /* \"#utility.yul\":7977:8094   */\n    tag_76:\n        /* \"#utility.yul\":8031:8039   */\n      0x00\n        /* \"#utility.yul\":8081:8086   */\n      dup3\n        /* \"#utility.yul\":8075:8079   */\n      dup3\n        /* \"#utility.yul\":8071:8087   */\n      shr\n        /* \"#utility.yul\":8050:8087   */\n      swap1\n      pop\n        /* \"#utility.yul\":7977:8094   */\n      swap3\n      swap2\n      pop\n      pop\n      jump\t// out\n        /* \"#utility.yul\":8100:8269   */\n    tag_77:\n        /* \"#utility.yul\":8144:8150   */\n      0x00\n        /* \"#utility.yul\":8177:8228   */\n      tag_177\n        /* \"#utility.yul\":8225:8226   */\n      0x00\n        /* \"#utility.yul\":8221:8227   */\n      not\n        /* \"#utility.yul\":8213:8218   */\n      dup5\n        /* \"#utility.yul\":8210:8211   */\n      0x08\n        /* \"#utility.yul\":8206:8219   */\n      mul\n        /* \"#utility.yul\":8177:8228   */\n      tag_76\n      jump\t// in\n    tag_177:\n        /* \"#utility.yul\":8173:8229   */\n      not\n        /* \"#utility.yul\":8258:8262   */\n      dup1\n        /* \"#utility.yul\":8252:8256   */\n      dup4\n        /* \"#utility.yul\":8248:8263   */\n      and\n        /* \"#utility.yul\":8238:8263   */\n      swap2\n      pop\n        /* \"#utility.yul\":8151:8269   */\n      pop\n        /* \"#utility.yul\":8100:8269   */\n      swap3\n      swap2\n      pop\n      pop\n      jump\t// out\n        /* \"#utility.yul\":8274:8569   */\n    tag_78:\n        /* \"#utility.yul\":8350:8354   */\n      0x00\n        /* \"#utility.yul\":8496:8525   */\n      tag_179\n        /* \"#utility.yul\":8521:8524   */\n      dup4\n        /* \"#utility.yul\":8515:8519   */\n      dup4\n        /* \"#utility.yul\":8496:8525   */\n      tag_77\n      jump\t// in\n    tag_179:\n        /* \"#utility.yul\":8488:8525   */\n      swap2\n      pop\n        /* \"#utility.yul\":8558:8561   */\n      dup3\n        /* \"#utility.yul\":8555:8556   */\n      0x02\n        /* \"#utility.yul\":8551:8562   */\n      mul\n        /* \"#utility.yul\":8545:8549   */\n      dup3\n        /* \"#utility.yul\":8542:8563   */\n      or\n        /* \"#utility.yul\":8534:8563   */\n      swap1\n      pop\n        /* \"#utility.yul\":8274:8569   */\n      swap3\n      swap2\n      pop\n      pop\n      jump\t// out\n        /* \"#utility.yul\":8574:9969   */\n    tag_38:\n        /* \"#utility.yul\":8691:8728   */\n      tag_181\n        /* \"#utility.yul\":8724:8727   */\n      dup3\n        /* \"#utility.yul\":8691:8728   */\n      tag_41\n      jump\t// in\n    tag_181:\n        /* \"#utility.yul\":8793:8811   */\n      0xffffffffffffffff\n        /* \"#utility.yul\":8785:8791   */\n      dup2\n        /* \"#utility.yul\":8782:8812   */\n      gt\n        /* \"#utility.yul\":8779:8835   */\n      iszero\n      tag_182\n      jumpi\n        /* \"#utility.yul\":8815:8833   */\n      tag_183\n      tag_55\n      jump\t// in\n    tag_183:\n        /* \"#utility.yul\":8779:8835   */\n    tag_182:\n        /* \"#utility.yul\":8859:8897   */\n      tag_184\n        /* \"#utility.yul\":8891:8895   */\n      dup3\n        /* \"#utility.yul\":8885:8896   */\n      sload\n        /* \"#utility.yul\":8859:8897   */\n      tag_25\n      jump\t// in\n    tag_184:\n        /* \"#utility.yul\":8944:9011   */\n      tag_185\n        /* \"#utility.yul\":9004:9010   */\n      dup3\n        /* \"#utility.yul\":8996:9002   */\n      dup3\n        /* \"#utility.yul\":8990:8994   */\n      dup6\n        /* \"#utility.yul\":8944:9011   */\n      tag_75\n      jump\t// in\n    tag_185:\n        /* \"#utility.yul\":9038:9039   */\n      0x00\n        /* \"#utility.yul\":9062:9066   */\n      0x20\n        /* \"#utility.yul\":9049:9066   */\n      swap1\n      pop\n        /* \"#utility.yul\":9094:9096   */\n      0x1f\n        /* \"#utility.yul\":9086:9092   */\n      dup4\n        /* \"#utility.yul\":9083:9097   */\n      gt\n        /* \"#utility.yul\":9111:9112   */\n      0x01\n        /* \"#utility.yul\":9106:9724   */\n      dup2\n      eq\n      tag_187\n      jumpi\n        /* \"#utility.yul\":9768:9769   */\n      0x00\n        /* \"#utility.yul\":9785:9791   */\n      dup5\n        /* \"#utility.yul\":9782:9859   */\n      iszero\n      tag_188\n      jumpi\n        /* \"#utility.yul\":9834:9843   */\n      dup3\n        /* \"#utility.yul\":9829:9832   */\n      dup8\n        /* \"#utility.yul\":9825:9844   */\n      add\n        /* \"#utility.yul\":9819:9845   */\n      mload\n        /* \"#utility.yul\":9810:9845   */\n      swap1\n      pop\n        /* \"#utility.yul\":9782:9859   */\n    tag_188:\n        /* \"#utility.yul\":9885:9952   */\n      tag_189\n        /* \"#utility.yul\":9945:9951   */\n      dup6\n        /* \"#utility.yul\":9938:9943   */\n      dup3\n        /* \"#utility.yul\":9885:9952   */\n      tag_78\n      jump\t// in\n    tag_189:\n        /* \"#utility.yul\":9879:9883   */\n      dup7\n        /* \"#utility.yul\":9872:9953   */\n      sstore\n        /* \"#utility.yul\":9741:9963   */\n      pop\n        /* \"#utility.yul\":9076:9963   */\n      jump(tag_186)\n        /* \"#utility.yul\":9106:9724   */\n    tag_187:\n        /* \"#utility.yul\":9158:9162   */\n      0x1f\n        /* \"#utility.yul\":9154:9163   */\n      not\n        /* \"#utility.yul\":9146:9152   */\n      dup5\n        /* \"#utility.yul\":9142:9164   */\n      and\n        /* \"#utility.yul\":9192:9229   */\n      tag_190\n        /* \"#utility.yul\":9224:9228   */\n      dup7\n        /* \"#utility.yul\":9192:9229   */\n      tag_63\n      jump\t// in\n    tag_190:\n        /* \"#utility.yul\":9251:9252   */\n      0x00\n        /* \"#utility.yul\":9265:9473   */\n    tag_191:\n        /* \"#utility.yul\":9279:9286   */\n      dup3\n        /* \"#utility.yul\":9276:9277   */\n      dup2\n        /* \"#utility.yul\":9273:9287   */\n      lt\n        /* \"#utility.yul\":9265:9473   */\n      iszero\n      tag_193\n      jumpi\n        /* \"#utility.yul\":9358:9367   */\n      dup5\n        /* \"#utility.yul\":9353:9356   */\n      dup10\n        /* \"#utility.yul\":9349:9368   */\n      add\n        /* \"#utility.yul\":9343:9369   */\n      mload\n        /* \"#utility.yul\":9335:9341   */\n      dup3\n        /* \"#utility.yul\":9328:9370   */\n      sstore\n        /* \"#utility.yul\":9409:9410   */\n      0x01\n        /* \"#utility.yul\":9401:9407   */\n      dup3\n        /* \"#utility.yul\":9397:9411   */\n      add\n        /* \"#utility.yul\":9387:9411   */\n      swap2\n      pop\n        /* \"#utility.yul\":9456:9458   */\n      0x20\n        /* \"#utility.yul\":9445:9454   */\n      dup6\n        /* \"#utility.yul\":9441:9459   */\n      add\n        /* \"#utility.yul\":9428:9459   */\n      swap5\n      pop\n        /* \"#utility.yul\":9302:9306   */\n      0x20\n        /* \"#utility.yul\":9299:9300   */\n      dup2\n        /* \"#utility.yul\":9295:9307   */\n      add\n        /* \"#utility.yul\":9290:9307   */\n      swap1\n      pop\n        /* \"#utility.yul\":9265:9473   */\n      jump(tag_191)\n    tag_193:\n        /* \"#utility.yul\":9501:9507   */\n      dup7\n        /* \"#utility.yul\":9492:9499   */\n      dup4\n        /* \"#utility.yul\":9489:9508   */\n      lt\n        /* \"#utility.yul\":9486:9665   */\n      iszero\n      tag_194\n      jumpi\n        /* \"#utility.yul\":9559:9568   */\n      dup5\n        /* \"#utility.yul\":9554:9557   */\n      dup10\n        /* \"#utility.yul\":9550:9569   */\n      add\n        /* \"#utility.yul\":9544:9570   */\n      mload\n        /* \"#utility.yul\":9602:9650   */\n      tag_195\n        /* \"#utility.yul\":9644:9648   */\n      0x1f\n        /* \"#utility.yul\":9636:9642   */\n      dup10\n        /* \"#utility.yul\":9632:9649   */\n      and\n        /* \"#utility.yul\":9621:9630   */\n      dup3\n        /* \"#utility.yul\":9602:9650   */\n      tag_77\n      jump\t// in\n    tag_195:\n        /* \"#utility.yul\":9594:9600   */\n      dup4\n        /* \"#utility.yul\":9587:9651   */\n      sstore\n        /* \"#utility.yul\":9509:9665   */\n      pop\n        /* \"#utility.yul\":9486:9665   */\n    tag_194:\n        /* \"#utility.yul\":9711:9712   */\n      0x01\n        /* \"#utility.yul\":9707:9708   */\n      0x02\n        /* \"#utility.yul\":9699:9705   */\n      dup9\n        /* \"#utility.yul\":9695:9709   */\n      mul\n        /* \"#utility.yul\":9691:9713   */\n      add\n        /* \"#utility.yul\":9685:9689   */\n      dup9\n        /* \"#utility.yul\":9678:9714   */\n      sstore\n        /* \"#utility.yul\":9113:9724   */\n      pop\n      pop\n      pop\n        /* \"#utility.yul\":9076:9963   */\n    tag_186:\n      pop\n        /* \"#utility.yul\":8666:9969   */\n      pop\n      pop\n      pop\n        /* \"#utility.yul\":8574:9969   */\n      pop\n      pop\n      jump\t// out\n\n    auxdata: 0xa2646970667358221220b7c98b26bd13b8395d372c4e1d20eb865d61bf1658026f42b0d452b0e80ef08264736f6c634300081e0033\n}\n",
				"bytecode": {
					"linkReferences": {},
					"object": "6080604052348015600e575f5ffd5b506108eb8061001c5f395ff3fe608060405234801561000f575f5ffd5b506004361061004a575f3560e01c806317d7de7c1461004e5780633e5ce9371461006c5780635353a2d81461009c578063c47f0027146100b8575b5f5ffd5b6100566100d4565b60405161006391906103b7565b60405180910390f35b61008660048036038101906100819190610442565b61019f565b60405161009391906103b7565b60405180910390f35b6100b660048036038101906100b19190610599565b61026c565b005b6100d260048036038101906100cd9190610599565b6102ba565b005b606060015f3373ffffffffffffffffffffffffffffffffffffffff1673ffffffffffffffffffffffffffffffffffffffff1681526020019081526020015f20805461011e9061060d565b80601f016020809104026020016040519081016040528092919081815260200182805461014a9061060d565b80156101955780601f1061016c57610100808354040283529160200191610195565b820191905f5260205f20905b81548152906001019060200180831161017857829003601f168201915b5050505050905090565b606060015f8373ffffffffffffffffffffffffffffffffffffffff1673ffffffffffffffffffffffffffffffffffffffff1681526020019081526020015f2080546101e99061060d565b80601f01602080910402602001604051908101604052809291908181526020018280546102159061060d565b80156102605780601f1061023757610100808354040283529160200191610260565b820191905f5260205f20905b81548152906001019060200180831161024357829003601f168201915b50505050509050919050565b8060015f3373ffffffffffffffffffffffffffffffffffffffff1673ffffffffffffffffffffffffffffffffffffffff1681526020019081526020015f2090816102b691906107e6565b5050565b335f5f6101000a81548173ffffffffffffffffffffffffffffffffffffffff021916908373ffffffffffffffffffffffffffffffffffffffff1602179055508060015f3373ffffffffffffffffffffffffffffffffffffffff1673ffffffffffffffffffffffffffffffffffffffff1681526020019081526020015f20908161034391906107e6565b5050565b5f81519050919050565b5f82825260208201905092915050565b8281835e5f83830152505050565b5f601f19601f8301169050919050565b5f61038982610347565b6103938185610351565b93506103a3818560208601610361565b6103ac8161036f565b840191505092915050565b5f6020820190508181035f8301526103cf818461037f565b905092915050565b5f604051905090565b5f5ffd5b5f5ffd5b5f73ffffffffffffffffffffffffffffffffffffffff82169050919050565b5f610411826103e8565b9050919050565b61042181610407565b811461042b575f5ffd5b50565b5f8135905061043c81610418565b92915050565b5f60208284031215610457576104566103e0565b5b5f6104648482850161042e565b91505092915050565b5f5ffd5b5f5ffd5b7f4e487b71000000000000000000000000000000000000000000000000000000005f52604160045260245ffd5b6104ab8261036f565b810181811067ffffffffffffffff821117156104ca576104c9610475565b5b80604052505050565b5f6104dc6103d7565b90506104e882826104a2565b919050565b5f67ffffffffffffffff82111561050757610506610475565b5b6105108261036f565b9050602081019050919050565b828183375f83830152505050565b5f61053d610538846104ed565b6104d3565b90508281526020810184848401111561055957610558610471565b5b61056484828561051d565b509392505050565b5f82601f8301126105805761057f61046d565b5b813561059084826020860161052b565b91505092915050565b5f602082840312156105ae576105ad6103e0565b5b5f82013567ffffffffffffffff8111156105cb576105ca6103e4565b5b6105d78482850161056c565b91505092915050565b7f4e487b71000000000000000000000000000000000000000000000000000000005f52602260045260245ffd5b5f600282049050600182168061062457607f821691505b602082108103610637576106366105e0565b5b50919050565b5f819050815f5260205f209050919050565b5f6020601f8301049050919050565b5f82821b905092915050565b5f600883026106997fffffffffffffffffffffffffffffffffffffffffffffffffffffffffffffffff8261065e565b6106a3868361065e565b95508019841693508086168417925050509392505050565b5f819050919050565b5f819050919050565b5f6106e76106e26106dd846106bb565b6106c4565b6106bb565b9050919050565b5f819050919050565b610700836106cd565b61071461070c826106ee565b84845461066a565b825550505050565b5f5f905090565b61072b61071c565b6107368184846106f7565b505050565b5b818110156107595761074e5f82610723565b60018101905061073c565b5050565b601f82111561079e5761076f8161063d565b6107788461064f565b81016020851015610787578190505b61079b6107938561064f565b83018261073b565b50505b505050565b5f82821c905092915050565b5f6107be5f19846008026107a3565b1980831691505092915050565b5f6107d683836107af565b9150826002028217905092915050565b6107ef82610347565b67ffffffffffffffff81111561080857610807610475565b5b610812825461060d565b61081d82828561075d565b5f60209050601f83116001811461084e575f841561083c578287015190505b61084685826107cb565b8655506108ad565b601f19841661085c8661063d565b5f5b828110156108835784890151825560018201915060208501945060208101905061085e565b868310156108a0578489015161089c601f8916826107af565b8355505b6001600288020188555050505b50505050505056fea2646970667358221220b7c98b26bd13b8395d372c4e1d20eb865d61bf1658026f42b0d452b0e80ef08264736f6c634300081e0033",
					"opcodes": "PUSH1 0x80 PUSH1 0x40 MSTORE CALLVALUE DUP1 ISZERO PUSH1 0xE JUMPI PUSH0 PUSH0 REVERT JUMPDEST POP PUSH2 0x8EB DUP1 PUSH2 0x1C PUSH0 CODECOPY PUSH0 RETURN INVALID PUSH1 0x80 PUSH1 0x40 MSTORE CALLVALUE DUP1 ISZERO PUSH2 0xF JUMPI PUSH0 PUSH0 REVERT JUMPDEST POP PUSH1 0x4 CALLDATASIZE LT PUSH2 0x4A JUMPI PUSH0 CALLDATALOAD PUSH1 0xE0 SHR DUP1 PUSH4 0x17D7DE7C EQ PUSH2 0x4E JUMPI DUP1 PUSH4 0x3E5CE937 EQ PUSH2 0x6C JUMPI DUP1 PUSH4 0x5353A2D8 EQ PUSH2 0x9C JUMPI DUP1 PUSH4 0xC47F0027 EQ PUSH2 0xB8 JUMPI JUMPDEST PUSH0 PUSH0 REVERT JUMPDEST PUSH2 0x56 PUSH2 0xD4 JUMP JUMPDEST PUSH1 0x40 MLOAD PUSH2 0x63 SWAP2 SWAP1 PUSH2 0x3B7 JUMP JUMPDEST PUSH1 0x40 MLOAD DUP1 SWAP2 SUB SWAP1 RETURN JUMPDEST PUSH2 0x86 PUSH1 0x4 DUP1 CALLDATASIZE SUB DUP2 ADD SWAP1 PUSH2 0x81 SWAP2 SWAP1 PUSH2 0x442 JUMP JUMPDEST PUSH2 0x19F JUMP JUMPDEST PUSH1 0x40 MLOAD PUSH2 0x93 SWAP2 SWAP1 PUSH2 0x3B7 JUMP JUMPDEST PUSH1 0x40 MLOAD DUP1 SWAP2 SUB SWAP1 RETURN JUMPDEST PUSH2 0xB6 PUSH1 0x4 DUP1 CALLDATASIZE SUB DUP2 ADD SWAP1 PUSH2 0xB1 SWAP2 SWAP1 PUSH2 0x599 JUMP JUMPDEST PUSH2 0x26C JUMP JUMPDEST STOP JUMPDEST PUSH2 0xD2 PUSH1 0x4 DUP1 CALLDATASIZE SUB DUP2 ADD SWAP1 PUSH2 0xCD SWAP2 SWAP1 PUSH2 0x599 JUMP JUMPDEST PUSH2 0x2BA JUMP JUMPDEST STOP JUMPDEST PUSH1 0x60 PUSH1 0x1 PUSH0 CALLER PUSH20 0xFFFFFFFFFFFFFFFFFFFFFFFFFFFFFFFFFFFFFFFF AND PUSH20 0xFFFFFFFFFFFFFFFFFFFFFFFFFFFFFFFFFFFFFFFF AND DUP2 MSTORE PUSH1 0x20 ADD SWAP1 DUP2 MSTORE PUSH1 0x20 ADD PUSH0 KECCAK256 DUP1 SLOAD PUSH2 0x11E SWAP1 PUSH2 0x60D JUMP JUMPDEST DUP1 PUSH1 0x1F ADD PUSH1 0x20 DUP1 SWAP2 DIV MUL PUSH1 0x20 ADD PUSH1 0x40 MLOAD SWAP1 DUP2 ADD PUSH1 0x40 MSTORE DUP1 SWAP3 SWAP2 SWAP1 DUP2 DUP2 MSTORE PUSH1 0x20 ADD DUP3 DUP1 SLOAD PUSH2 0x14A SWAP1 PUSH2 0x60D JUMP JUMPDEST DUP1 ISZERO PUSH2 0x195 JUMPI DUP1 PUSH1 0x1F LT PUSH2 0x16C JUMPI PUSH2 0x100 DUP1 DUP4 SLOAD DIV MUL DUP4 MSTORE SWAP2 PUSH1 0x20 ADD SWAP2 PUSH2 0x195 JUMP JUMPDEST DUP3 ADD SWAP2 SWAP1 PUSH0 MSTORE PUSH1 0x20 PUSH0 KECCAK256 SWAP1 JUMPDEST DUP2 SLOAD DUP2 MSTORE SWAP1 PUSH1 0x1 ADD SWAP1 PUSH1 0x20 ADD DUP1 DUP4 GT PUSH2 0x178 JUMPI DUP3 SWAP1 SUB PUSH1 0x1F AND DUP3 ADD SWAP2 JUMPDEST POP POP POP POP POP SWAP1 POP SWAP1 JUMP JUMPDEST PUSH1 0x60 PUSH1 0x1 PUSH0 DUP4 PUSH20 0xFFFFFFFFFFFFFFFFFFFFFFFFFFFFFFFFFFFFFFFF AND PUSH20 0xFFFFFFFFFFFFFFFFFFFFFFFFFFFFFFFFFFFFFFFF AND DUP2 MSTORE PUSH1 0x20 ADD SWAP1 DUP2 MSTORE PUSH1 0x20 ADD PUSH0 KECCAK256 DUP1 SLOAD PUSH2 0x1E9 SWAP1 PUSH2 0x60D JUMP JUMPDEST DUP1 PUSH1 0x1F ADD PUSH1 0x20 DUP1 SWAP2 DIV MUL PUSH1 0x20 ADD PUSH1 0x40 MLOAD SWAP1 DUP2 ADD PUSH1 0x40 MSTORE DUP1 SWAP3 SWAP2 SWAP1 DUP2 DUP2 MSTORE PUSH1 0x20 ADD DUP3 DUP1 SLOAD PUSH2 0x215 SWAP1 PUSH2 0x60D JUMP JUMPDEST DUP1 ISZERO PUSH2 0x260 JUMPI DUP1 PUSH1 0x1F LT PUSH2 0x237 JUMPI PUSH2 0x100 DUP1 DUP4 SLOAD DIV MUL DUP4 MSTORE SWAP2 PUSH1 0x20 ADD SWAP2 PUSH2 0x260 JUMP JUMPDEST DUP3 ADD SWAP2 SWAP1 PUSH0 MSTORE PUSH1 0x20 PUSH0 KECCAK256 SWAP1 JUMPDEST DUP2 SLOAD DUP2 MSTORE SWAP1 PUSH1 0x1 ADD SWAP1 PUSH1 0x20 ADD DUP1 DUP4 GT PUSH2 0x243 JUMPI DUP3 SWAP1 SUB PUSH1 0x1F AND DUP3 ADD SWAP2 JUMPDEST POP POP POP POP POP SWAP1 POP SWAP2 SWAP1 POP JUMP JUMPDEST DUP1 PUSH1 0x1 PUSH0 CALLER PUSH20 0xFFFFFFFFFFFFFFFFFFFFFFFFFFFFFFFFFFFFFFFF AND PUSH20 0xFFFFFFFFFFFFFFFFFFFFFFFFFFFFFFFFFFFFFFFF AND DUP2 MSTORE PUSH1 0x20 ADD SWAP1 DUP2 MSTORE PUSH1 0x20 ADD PUSH0 KECCAK256 SWAP1 DUP2 PUSH2 0x2B6 SWAP2 SWAP1 PUSH2 0x7E6 JUMP JUMPDEST POP POP JUMP JUMPDEST CALLER PUSH0 PUSH0 PUSH2 0x100 EXP DUP2 SLOAD DUP2 PUSH20 0xFFFFFFFFFFFFFFFFFFFFFFFFFFFFFFFFFFFFFFFF MUL NOT AND SWAP1 DUP4 PUSH20 0xFFFFFFFFFFFFFFFFFFFFFFFFFFFFFFFFFFFFFFFF AND MUL OR SWAP1 SSTORE POP DUP1 PUSH1 0x1 PUSH0 CALLER PUSH20 0xFFFFFFFFFFFFFFFFFFFFFFFFFFFFFFFFFFFFFFFF AND PUSH20 0xFFFFFFFFFFFFFFFFFFFFFFFFFFFFFFFFFFFFFFFF AND DUP2 MSTORE PUSH1 0x20 ADD SWAP1 DUP2 MSTORE PUSH1 0x20 ADD PUSH0 KECCAK256 SWAP1 DUP2 PUSH2 0x343 SWAP2 SWAP1 PUSH2 0x7E6 JUMP JUMPDEST POP POP JUMP JUMPDEST PUSH0 DUP2 MLOAD SWAP1 POP SWAP2 SWAP1 POP JUMP JUMPDEST PUSH0 DUP3 DUP3 MSTORE PUSH1 0x20 DUP3 ADD SWAP1 POP SWAP3 SWAP2 POP POP JUMP JUMPDEST DUP3 DUP2 DUP4 MCOPY PUSH0 DUP4 DUP4 ADD MSTORE POP POP POP JUMP JUMPDEST PUSH0 PUSH1 0x1F NOT PUSH1 0x1F DUP4 ADD AND SWAP1 POP SWAP2 SWAP1 POP JUMP JUMPDEST PUSH0 PUSH2 0x389 DUP3 PUSH2 0x347 JUMP JUMPDEST PUSH2 0x393 DUP2 DUP6 PUSH2 0x351 JUMP JUMPDEST SWAP4 POP PUSH2 0x3A3 DUP2 DUP6 PUSH1 0x20 DUP7 ADD PUSH2 0x361 JUMP JUMPDEST PUSH2 0x3AC DUP2 PUSH2 0x36F JUMP JUMPDEST DUP5 ADD SWAP2 POP POP SWAP3 SWAP2 POP POP JUMP JUMPDEST PUSH0 PUSH1 0x20 DUP3 ADD SWAP1 POP DUP2 DUP2 SUB PUSH0 DUP4 ADD MSTORE PUSH2 0x3CF DUP2 DUP5 PUSH2 0x37F JUMP JUMPDEST SWAP1 POP SWAP3 SWAP2 POP POP JUMP JUMPDEST PUSH0 PUSH1 0x40 MLOAD SWAP1 POP SWAP1 JUMP JUMPDEST PUSH0 PUSH0 REVERT JUMPDEST PUSH0 PUSH0 REVERT JUMPDEST PUSH0 PUSH20 0xFFFFFFFFFFFFFFFFFFFFFFFFFFFFFFFFFFFFFFFF DUP3 AND SWAP1 POP SWAP2 SWAP1 POP JUMP JUMPDEST PUSH0 PUSH2 0x411 DUP3 PUSH2 0x3E8 JUMP JUMPDEST SWAP1 POP SWAP2 SWAP1 POP JUMP JUMPDEST PUSH2 0x421 DUP2 PUSH2 0x407 JUMP JUMPDEST DUP2 EQ PUSH2 0x42B JUMPI PUSH0 PUSH0 REVERT JUMPDEST POP JUMP JUMPDEST PUSH0 DUP2 CALLDATALOAD SWAP1 POP PUSH2 0x43C DUP2 PUSH2 0x418 JUMP JUMPDEST SWAP3 SWAP2 POP POP JUMP JUMPDEST PUSH0 PUSH1 0x20 DUP3 DUP5 SUB SLT ISZERO PUSH2 0x457 JUMPI PUSH2 0x456 PUSH2 0x3E0 JUMP JUMPDEST JUMPDEST PUSH0 PUSH2 0x464 DUP5 DUP3 DUP6 ADD PUSH2 0x42E JUMP JUMPDEST SWAP2 POP POP SWAP3 SWAP2 POP POP JUMP JUMPDEST PUSH0 PUSH0 REVERT JUMPDEST PUSH0 PUSH0 REVERT JUMPDEST PUSH32 0x4E487B7100000000000000000000000000000000000000000000000000000000 PUSH0 MSTORE PUSH1 0x41 PUSH1 0x4 MSTORE PUSH1 0x24 PUSH0 REVERT JUMPDEST PUSH2 0x4AB DUP3 PUSH2 0x36F JUMP JUMPDEST DUP2 ADD DUP2 DUP2 LT PUSH8 0xFFFFFFFFFFFFFFFF DUP3 GT OR ISZERO PUSH2 0x4CA JUMPI PUSH2 0x4C9 PUSH2 0x475 JUMP JUMPDEST JUMPDEST DUP1 PUSH1 0x40 MSTORE POP POP POP JUMP JUMPDEST PUSH0 PUSH2 0x4DC PUSH2 0x3D7 JUMP JUMPDEST SWAP1 POP PUSH2 0x4E8 DUP3 DUP3 PUSH2 0x4A2 JUMP JUMPDEST SWAP2 SWAP1 POP JUMP JUMPDEST PUSH0 PUSH8 0xFFFFFFFFFFFFFFFF DUP3 GT ISZERO PUSH2 0x507 JUMPI PUSH2 0x506 PUSH2 0x475 JUMP JUMPDEST JUMPDEST PUSH2 0x510 DUP3 PUSH2 0x36F JUMP JUMPDEST SWAP1 POP PUSH1 0x20 DUP2 ADD SWAP1 POP SWAP2 SWAP1 POP JUMP JUMPDEST DUP3 DUP2 DUP4 CALLDATACOPY PUSH0 DUP4 DUP4 ADD MSTORE POP POP POP JUMP JUMPDEST PUSH0 PUSH2 0x53D PUSH2 0x538 DUP5 PUSH2 0x4ED JUMP JUMPDEST PUSH2 0x4D3 JUMP JUMPDEST SWAP1 POP DUP3 DUP2 MSTORE PUSH1 0x20 DUP2 ADD DUP5 DUP5 DUP5 ADD GT ISZERO PUSH2 0x559 JUMPI PUSH2 0x558 PUSH2 0x471 JUMP JUMPDEST JUMPDEST PUSH2 0x564 DUP5 DUP3 DUP6 PUSH2 0x51D JUMP JUMPDEST POP SWAP4 SWAP3 POP POP POP JUMP JUMPDEST PUSH0 DUP3 PUSH1 0x1F DUP4 ADD SLT PUSH2 0x580 JUMPI PUSH2 0x57F PUSH2 0x46D JUMP JUMPDEST JUMPDEST DUP2 CALLDATALOAD PUSH2 0x590 DUP5 DUP3 PUSH1 0x20 DUP7 ADD PUSH2 0x52B JUMP JUMPDEST SWAP2 POP POP SWAP3 SWAP2 POP POP JUMP JUMPDEST PUSH0 PUSH1 0x20 DUP3 DUP5 SUB SLT ISZERO PUSH2 0x5AE JUMPI PUSH2 0x5AD PUSH2 0x3E0 JUMP JUMPDEST JUMPDEST PUSH0 DUP3 ADD CALLDATALOAD PUSH8 0xFFFFFFFFFFFFFFFF DUP2 GT ISZERO PUSH2 0x5CB JUMPI PUSH2 0x5CA PUSH2 0x3E4 JUMP JUMPDEST JUMPDEST PUSH2 0x5D7 DUP5 DUP3 DUP6 ADD PUSH2 0x56C JUMP JUMPDEST SWAP2 POP POP SWAP3 SWAP2 POP POP JUMP JUMPDEST PUSH32 0x4E487B7100000000000000000000000000000000000000000000000000000000 PUSH0 MSTORE PUSH1 0x22 PUSH1 0x4 MSTORE PUSH1 0x24 PUSH0 REVERT JUMPDEST PUSH0 PUSH1 0x2 DUP3 DIV SWAP1 POP PUSH1 0x1 DUP3 AND DUP1 PUSH2 0x624 JUMPI PUSH1 0x7F DUP3 AND SWAP2 POP JUMPDEST PUSH1 0x20 DUP3 LT DUP2 SUB PUSH2 0x637 JUMPI PUSH2 0x636 PUSH2 0x5E0 JUMP JUMPDEST JUMPDEST POP SWAP2 SWAP1 POP JUMP JUMPDEST PUSH0 DUP2 SWAP1 POP DUP2 PUSH0 MSTORE PUSH1 0x20 PUSH0 KECCAK256 SWAP1 POP SWAP2 SWAP1 POP JUMP JUMPDEST PUSH0 PUSH1 0x20 PUSH1 0x1F DUP4 ADD DIV SWAP1 POP SWAP2 SWAP1 POP JUMP JUMPDEST PUSH0 DUP3 DUP3 SHL SWAP1 POP SWAP3 SWAP2 POP POP JUMP JUMPDEST PUSH0 PUSH1 0x8 DUP4 MUL PUSH2 0x699 PUSH32 0xFFFFFFFFFFFFFFFFFFFFFFFFFFFFFFFFFFFFFFFFFFFFFFFFFFFFFFFFFFFFFFFF DUP3 PUSH2 0x65E JUMP JUMPDEST PUSH2 0x6A3 DUP7 DUP4 PUSH2 0x65E JUMP JUMPDEST SWAP6 POP DUP1 NOT DUP5 AND SWAP4 POP DUP1 DUP7 AND DUP5 OR SWAP3 POP POP POP SWAP4 SWAP3 POP POP POP JUMP JUMPDEST PUSH0 DUP2 SWAP1 POP SWAP2 SWAP1 POP JUMP JUMPDEST PUSH0 DUP2 SWAP1 POP SWAP2 SWAP1 POP JUMP JUMPDEST PUSH0 PUSH2 0x6E7 PUSH2 0x6E2 PUSH2 0x6DD DUP5 PUSH2 0x6BB JUMP JUMPDEST PUSH2 0x6C4 JUMP JUMPDEST PUSH2 0x6BB JUMP JUMPDEST SWAP1 POP SWAP2 SWAP1 POP JUMP JUMPDEST PUSH0 DUP2 SWAP1 POP SWAP2 SWAP1 POP JUMP JUMPDEST PUSH2 0x700 DUP4 PUSH2 0x6CD JUMP JUMPDEST PUSH2 0x714 PUSH2 0x70C DUP3 PUSH2 0x6EE JUMP JUMPDEST DUP5 DUP5 SLOAD PUSH2 0x66A JUMP JUMPDEST DUP3 SSTORE POP POP POP POP JUMP JUMPDEST PUSH0 PUSH0 SWAP1 POP SWAP1 JUMP JUMPDEST PUSH2 0x72B PUSH2 0x71C JUMP JUMPDEST PUSH2 0x736 DUP2 DUP5 DUP5 PUSH2 0x6F7 JUMP JUMPDEST POP POP POP JUMP JUMPDEST JUMPDEST DUP2 DUP2 LT ISZERO PUSH2 0x759 JUMPI PUSH2 0x74E PUSH0 DUP3 PUSH2 0x723 JUMP JUMPDEST PUSH1 0x1 DUP2 ADD SWAP1 POP PUSH2 0x73C JUMP JUMPDEST POP POP JUMP JUMPDEST PUSH1 0x1F DUP3 GT ISZERO PUSH2 0x79E JUMPI PUSH2 0x76F DUP2 PUSH2 0x63D JUMP JUMPDEST PUSH2 0x778 DUP5 PUSH2 0x64F JUMP JUMPDEST DUP2 ADD PUSH1 0x20 DUP6 LT ISZERO PUSH2 0x787 JUMPI DUP2 SWAP1 POP JUMPDEST PUSH2 0x79B PUSH2 0x793 DUP6 PUSH2 0x64F JUMP JUMPDEST DUP4 ADD DUP3 PUSH2 0x73B JUMP JUMPDEST POP POP JUMPDEST POP POP POP JUMP JUMPDEST PUSH0 DUP3 DUP3 SHR SWAP1 POP SWAP3 SWAP2 POP POP JUMP JUMPDEST PUSH0 PUSH2 0x7BE PUSH0 NOT DUP5 PUSH1 0x8 MUL PUSH2 0x7A3 JUMP JUMPDEST NOT DUP1 DUP4 AND SWAP2 POP POP SWAP3 SWAP2 POP POP JUMP JUMPDEST PUSH0 PUSH2 0x7D6 DUP4 DUP4 PUSH2 0x7AF JUMP JUMPDEST SWAP2 POP DUP3 PUSH1 0x2 MUL DUP3 OR SWAP1 POP SWAP3 SWAP2 POP POP JUMP JUMPDEST PUSH2 0x7EF DUP3 PUSH2 0x347 JUMP JUMPDEST PUSH8 0xFFFFFFFFFFFFFFFF DUP2 GT ISZERO PUSH2 0x808 JUMPI PUSH2 0x807 PUSH2 0x475 JUMP JUMPDEST JUMPDEST PUSH2 0x812 DUP3 SLOAD PUSH2 0x60D JUMP JUMPDEST PUSH2 0x81D DUP3 DUP3 DUP6 PUSH2 0x75D JUMP JUMPDEST PUSH0 PUSH1 0x20 SWAP1 POP PUSH1 0x1F DUP4 GT PUSH1 0x1 DUP2 EQ PUSH2 0x84E JUMPI PUSH0 DUP5 ISZERO PUSH2 0x83C JUMPI DUP3 DUP8 ADD MLOAD SWAP1 POP JUMPDEST PUSH2 0x846 DUP6 DUP3 PUSH2 0x7CB JUMP JUMPDEST DUP7 SSTORE POP PUSH2 0x8AD JUMP JUMPDEST PUSH1 0x1F NOT DUP5 AND PUSH2 0x85C DUP7 PUSH2 0x63D JUMP JUMPDEST PUSH0 JUMPDEST DUP3 DUP2 LT ISZERO PUSH2 0x883 JUMPI DUP5 DUP10 ADD MLOAD DUP3 SSTORE PUSH1 0x1 DUP3 ADD SWAP2 POP PUSH1 0x20 DUP6 ADD SWAP5 POP PUSH1 0x20 DUP2 ADD SWAP1 POP PUSH2 0x85E JUMP JUMPDEST DUP7 DUP4 LT ISZERO PUSH2 0x8A0 JUMPI DUP5 DUP10 ADD MLOAD PUSH2 0x89C PUSH1 0x1F DUP10 AND DUP3 PUSH2 0x7AF JUMP JUMPDEST DUP4 SSTORE POP JUMPDEST PUSH1 0x1 PUSH1 0x2 DUP9 MUL ADD DUP9 SSTORE POP POP POP JUMPDEST POP POP POP POP POP POP JUMP INVALID LOG2 PUSH5 0x6970667358 0x22 SLT KECCAK256 0xB7 0xC9 DUP12 0x26 0xBD SGT 0xB8 CODECOPY TSTORE CALLDATACOPY 0x2C 0x4E SAR KECCAK256 0xEB DUP7 TSTORE PUSH2 0xBF16 PC MUL PUSH16 0x42B0D452B0E80EF08264736F6C634300 ADDMOD 0x1E STOP CALLER "
				},
				"gasEstimates": {
					"creation": {
						"codeDepositCost": "456600",
						"executionCost": "491",
						"totalCost": "457091"
					},
					"external": {
						"changeName(string)": "infinite",
						"getName()": "infinite",
						"setName(string)": "infinite",
						"showNameOf(address)": "infinite"
					}
				},
				"methodIdentifiers": {
					"changeName(string)": "5353a2d8",
					"getName()": "17d7de7c",
					"setName(string)": "c47f0027",
					"showNameOf(address)": "3e5ce937"
				}
			},
			"storageLayout": {
				"storage": [
					{
						"astId": 3,
						"contract": "Logic.sol:nameRegistry2",
						"label": "user",
						"offset": 0,
						"slot": "0",
						"type": "t_address"
					},
					{
						"astId": 7,
						"contract": "Logic.sol:nameRegistry2",
						"label": "names",
						"offset": 0,
						"slot": "1",
						"type": "t_mapping(t_address,t_string_storage)"
					}
				],
				"types": {
					"t_address": {
						"encoding": "inplace",
						"label": "address",
						"numberOfBytes": "20"
					},
					"t_mapping(t_address,t_string_storage)": {
						"encoding": "mapping",
						"key": "t_address",
						"label": "mapping(address => string)",
						"numberOfBytes": "32",
						"value": "t_string_storage"
					},
					"t_string_storage": {
						"encoding": "bytes",
						"label": "string",
						"numberOfBytes": "32"
					}
				}
			},
			"userdoc": {
				"kind": "user",
				"methods": {},
				"version": 1
			}
		}
	}
}