{
	"data": {
		"bytecode": {
			"linkReferences": {},
			"object": "6080604052348015600e575f5ffd5b506108768061001c5f395ff3fe608060405234801561000f575f5ffd5b506004361061003f575f3560e01c806317d7de7c146100435780633e5ce93714610061578063c47f002714610091575b5f5ffd5b61004b6100ad565b6040516100589190610342565b60405180910390f35b61007b600480360381019061007691906103cd565b610178565b6040516100889190610342565b60405180910390f35b6100ab60048036038101906100a69190610524565b610245565b005b606060015f3373ffffffffffffffffffffffffffffffffffffffff1673ffffffffffffffffffffffffffffffffffffffff1681526020019081526020015f2080546100f790610598565b80601f016020809104026020016040519081016040528092919081815260200182805461012390610598565b801561016e5780601f106101455761010080835404028352916020019161016e565b820191905f5260205f20905b81548152906001019060200180831161015157829003601f168201915b5050505050905090565b606060015f8373ffffffffffffffffffffffffffffffffffffffff1673ffffffffffffffffffffffffffffffffffffffff1681526020019081526020015f2080546101c290610598565b80601f01602080910402602001604051908101604052809291908181526020018280546101ee90610598565b80156102395780601f1061021057610100808354040283529160200191610239565b820191905f5260205f20905b81548152906001019060200180831161021c57829003601f168201915b50505050509050919050565b335f5f6101000a81548173ffffffffffffffffffffffffffffffffffffffff021916908373ffffffffffffffffffffffffffffffffffffffff1602179055508060015f3373ffffffffffffffffffffffffffffffffffffffff1673ffffffffffffffffffffffffffffffffffffffff1681526020019081526020015f2090816102ce9190610771565b5050565b5f81519050919050565b5f82825260208201905092915050565b8281835e5f83830152505050565b5f601f19601f8301169050919050565b5f610314826102d2565b61031e81856102dc565b935061032e8185602086016102ec565b610337816102fa565b840191505092915050565b5f6020820190508181035f83015261035a818461030a565b905092915050565b5f604051905090565b5f5ffd5b5f5ffd5b5f73ffffffffffffffffffffffffffffffffffffffff82169050919050565b5f61039c82610373565b9050919050565b6103ac81610392565b81146103b6575f5ffd5b50565b5f813590506103c7816103a3565b92915050565b5f602082840312156103e2576103e161036b565b5b5f6103ef848285016103b9565b91505092915050565b5f5ffd5b5f5ffd5b7f4e487b71000000000000000000000000000000000000000000000000000000005f52604160045260245ffd5b610436826102fa565b810181811067ffffffffffffffff8211171561045557610454610400565b5b80604052505050565b5f610467610362565b9050610473828261042d565b919050565b5f67ffffffffffffffff82111561049257610491610400565b5b61049b826102fa565b9050602081019050919050565b828183375f83830152505050565b5f6104c86104c384610478565b61045e565b9050828152602081018484840111156104e4576104e36103fc565b5b6104ef8482856104a8565b509392505050565b5f82601f83011261050b5761050a6103f8565b5b813561051b8482602086016104b6565b91505092915050565b5f602082840312156105395761053861036b565b5b5f82013567ffffffffffffffff8111156105565761055561036f565b5b610562848285016104f7565b91505092915050565b7f4e487b71000000000000000000000000000000000000000000000000000000005f52602260045260245ffd5b5f60028204905060018216806105af57607f821691505b6020821081036105c2576105c161056b565b5b50919050565b5f819050815f5260205f209050919050565b5f6020601f8301049050919050565b5f82821b905092915050565b5f600883026106247fffffffffffffffffffffffffffffffffffffffffffffffffffffffffffffffff826105e9565b61062e86836105e9565b95508019841693508086168417925050509392505050565b5f819050919050565b5f819050919050565b5f61067261066d61066884610646565b61064f565b610646565b9050919050565b5f819050919050565b61068b83610658565b61069f61069782610679565b8484546105f5565b825550505050565b5f5f905090565b6106b66106a7565b6106c1818484610682565b505050565b5b818110156106e4576106d95f826106ae565b6001810190506106c7565b5050565b601f821115610729576106fa816105c8565b610703846105da565b81016020851015610712578190505b61072661071e856105da565b8301826106c6565b50505b505050565b5f82821c905092915050565b5f6107495f198460080261072e565b1980831691505092915050565b5f610761838361073a565b9150826002028217905092915050565b61077a826102d2565b67ffffffffffffffff81111561079357610792610400565b5b61079d8254610598565b6107a88282856106e8565b5f60209050601f8311600181146107d9575f84156107c7578287015190505b6107d18582610756565b865550610838565b601f1984166107e7866105c8565b5f5b8281101561080e578489015182556001820191506020850194506020810190506107e9565b8683101561082b5784890151610827601f89168261073a565b8355505b6001600288020188555050505b50505050505056fea264697066735822122085fe1dcefcf6fd3539b1fe160da6a5e381a50f726dc8bb57af5136849f5d5bd564736f6c634300081e0033",
			"opcodes": "PUSH1 0x80 PUSH1 0x40 MSTORE CALLVALUE DUP1 ISZERO PUSH1 0xE JUMPI PUSH0 PUSH0 REVERT JUMPDEST POP PUSH2 0x876 DUP1 PUSH2 0x1C PUSH0 CODECOPY PUSH0 RETURN INVALID PUSH1 0x80 PUSH1 0x40 MSTORE CALLVALUE DUP1 ISZERO PUSH2 0xF JUMPI PUSH0 PUSH0 REVERT JUMPDEST POP PUSH1 0x4 CALLDATASIZE LT PUSH2 0x3F JUMPI PUSH0 CALLDATALOAD PUSH1 0xE0 SHR DUP1 PUSH4 0x17D7DE7C EQ PUSH2 0x43 JUMPI DUP1 PUSH4 0x3E5CE937 EQ PUSH2 0x61 JUMPI DUP1 PUSH4 0xC47F0027 EQ PUSH2 0x91 JUMPI JUMPDEST PUSH0 PUSH0 REVERT JUMPDEST PUSH2 0x4B PUSH2 0xAD JUMP JUMPDEST PUSH1 0x40 MLOAD PUSH2 0x58 SWAP2 SWAP1 PUSH2 0x342 JUMP JUMPDEST PUSH1 0x40 MLOAD DUP1 SWAP2 SUB SWAP1 RETURN JUMPDEST PUSH2 0x7B PUSH1 0x4 DUP1 CALLDATASIZE SUB DUP2 ADD SWAP1 PUSH2 0x76 SWAP2 SWAP1 PUSH2 0x3CD JUMP JUMPDEST PUSH2 0x178 JUMP JUMPDEST PUSH1 0x40 MLOAD PUSH2 0x88 SWAP2 SWAP1 PUSH2 0x342 JUMP JUMPDEST PUSH1 0x40 MLOAD DUP1 SWAP2 SUB SWAP1 RETURN JUMPDEST PUSH2 0xAB PUSH1 0x4 DUP1 CALLDATASIZE SUB DUP2 ADD SWAP1 PUSH2 0xA6 SWAP2 SWAP1 PUSH2 0x524 JUMP JUMPDEST PUSH2 0x245 JUMP JUMPDEST STOP JUMPDEST PUSH1 0x60 PUSH1 0x1 PUSH0 CALLER PUSH20 0xFFFFFFFFFFFFFFFFFFFFFFFFFFFFFFFFFFFFFFFF AND PUSH20 0xFFFFFFFFFFFFFFFFFFFFFFFFFFFFFFFFFFFFFFFF AND DUP2 MSTORE PUSH1 0x20 ADD SWAP1 DUP2 MSTORE PUSH1 0x20 ADD PUSH0 KECCAK256 DUP1 SLOAD PUSH2 0xF7 SWAP1 PUSH2 0x598 JUMP JUMPDEST DUP1 PUSH1 0x1F ADD PUSH1 0x20 DUP1 SWAP2 DIV MUL PUSH1 0x20 ADD PUSH1 0x40 MLOAD SWAP1 DUP2 ADD PUSH1 0x40 MSTORE DUP1 SWAP3 SWAP2 SWAP1 DUP2 DUP2 MSTORE PUSH1 0x20 ADD DUP3 DUP1 SLOAD PUSH2 0x123 SWAP1 PUSH2 0x598 JUMP JUMPDEST DUP1 ISZERO PUSH2 0x16E JUMPI DUP1 PUSH1 0x1F LT PUSH2 0x145 JUMPI PUSH2 0x100 DUP1 DUP4 SLOAD DIV MUL DUP4 MSTORE SWAP2 PUSH1 0x20 ADD SWAP2 PUSH2 0x16E JUMP JUMPDEST DUP3 ADD SWAP2 SWAP1 PUSH0 MSTORE PUSH1 0x20 PUSH0 KECCAK256 SWAP1 JUMPDEST DUP2 SLOAD DUP2 MSTORE SWAP1 PUSH1 0x1 ADD SWAP1 PUSH1 0x20 ADD DUP1 DUP4 GT PUSH2 0x151 JUMPI DUP3 SWAP1 SUB PUSH1 0x1F AND DUP3 ADD SWAP2 JUMPDEST POP POP POP POP POP SWAP1 POP SWAP1 JUMP JUMPDEST PUSH1 0x60 PUSH1 0x1 PUSH0 DUP4 PUSH20 0xFFFFFFFFFFFFFFFFFFFFFFFFFFFFFFFFFFFFFFFF AND PUSH20 0xFFFFFFFFFFFFFFFFFFFFFFFFFFFFFFFFFFFFFFFF AND DUP2 MSTORE PUSH1 0x20 ADD SWAP1 DUP2 MSTORE PUSH1 0x20 ADD PUSH0 KECCAK256 DUP1 SLOAD PUSH2 0x1C2 SWAP1 PUSH2 0x598 JUMP JUMPDEST DUP1 PUSH1 0x1F ADD PUSH1 0x20 DUP1 SWAP2 DIV MUL PUSH1 0x20 ADD PUSH1 0x40 MLOAD SWAP1 DUP2 ADD PUSH1 0x40 MSTORE DUP1 SWAP3 SWAP2 SWAP1 DUP2 DUP2 MSTORE PUSH1 0x20 ADD DUP3 DUP1 SLOAD PUSH2 0x1EE SWAP1 PUSH2 0x598 JUMP JUMPDEST DUP1 ISZERO PUSH2 0x239 JUMPI DUP1 PUSH1 0x1F LT PUSH2 0x210 JUMPI PUSH2 0x100 DUP1 DUP4 SLOAD DIV MUL DUP4 MSTORE SWAP2 PUSH1 0x20 ADD SWAP2 PUSH2 0x239 JUMP JUMPDEST DUP3 ADD SWAP2 SWAP1 PUSH0 MSTORE PUSH1 0x20 PUSH0 KECCAK256 SWAP1 JUMPDEST DUP2 SLOAD DUP2 MSTORE SWAP1 PUSH1 0x1 ADD SWAP1 PUSH1 0x20 ADD DUP1 DUP4 GT PUSH2 0x21C JUMPI DUP3 SWAP1 SUB PUSH1 0x1F AND DUP3 ADD SWAP2 JUMPDEST POP POP POP POP POP SWAP1 POP SWAP2 SWAP1 POP JUMP JUMPDEST CALLER PUSH0 PUSH0 PUSH2 0x100 EXP DUP2 SLOAD DUP2 PUSH20 0xFFFFFFFFFFFFFFFFFFFFFFFFFFFFFFFFFFFFFFFF MUL NOT AND SWAP1 DUP4 PUSH20 0xFFFFFFFFFFFFFFFFFFFFFFFFFFFFFFFFFFFFFFFF AND MUL OR SWAP1 SSTORE POP DUP1 PUSH1 0x1 PUSH0 CALLER PUSH20 0xFFFFFFFFFFFFFFFFFFFFFFFFFFFFFFFFFFFFFFFF AND PUSH20 0xFFFFFFFFFFFFFFFFFFFFFFFFFFFFFFFFFFFFFFFF AND DUP2 MSTORE PUSH1 0x20 ADD SWAP1 DUP2 MSTORE PUSH1 0x20 ADD PUSH0 KECCAK256 SWAP1 DUP2 PUSH2 0x2CE SWAP2 SWAP1 PUSH2 0x771 JUMP JUMPDEST POP POP JUMP JUMPDEST PUSH0 DUP2 MLOAD SWAP1 POP SWAP2 SWAP1 POP JUMP JUMPDEST PUSH0 DUP3 DUP3 MSTORE PUSH1 0x20 DUP3 ADD SWAP1 POP SWAP3 SWAP2 POP POP JUMP JUMPDEST DUP3 DUP2 DUP4 MCOPY PUSH0 DUP4 DUP4 ADD MSTORE POP POP POP JUMP JUMPDEST PUSH0 PUSH1 0x1F NOT PUSH1 0x1F DUP4 ADD AND SWAP1 POP SWAP2 SWAP1 POP JUMP JUMPDEST PUSH0 PUSH2 0x314 DUP3 PUSH2 0x2D2 JUMP JUMPDEST PUSH2 0x31E DUP2 DUP6 PUSH2 0x2DC JUMP JUMPDEST SWAP4 POP PUSH2 0x32E DUP2 DUP6 PUSH1 0x20 DUP7 ADD PUSH2 0x2EC JUMP JUMPDEST PUSH2 0x337 DUP2 PUSH2 0x2FA JUMP JUMPDEST DUP5 ADD SWAP2 POP POP SWAP3 SWAP2 POP POP JUMP JUMPDEST PUSH0 PUSH1 0x20 DUP3 ADD SWAP1 POP DUP2 DUP2 SUB PUSH0 DUP4 ADD MSTORE PUSH2 0x35A DUP2 DUP5 PUSH2 0x30A JUMP JUMPDEST SWAP1 POP SWAP3 SWAP2 POP POP JUMP JUMPDEST PUSH0 PUSH1 0x40 MLOAD SWAP1 POP SWAP1 JUMP JUMPDEST PUSH0 PUSH0 REVERT JUMPDEST PUSH0 PUSH0 REVERT JUMPDEST PUSH0 PUSH20 0xFFFFFFFFFFFFFFFFFFFFFFFFFFFFFFFFFFFFFFFF DUP3 AND SWAP1 POP SWAP2 SWAP1 POP JUMP JUMPDEST PUSH0 PUSH2 0x39C DUP3 PUSH2 0x373 JUMP JUMPDEST SWAP1 POP SWAP2 SWAP1 POP JUMP JUMPDEST PUSH2 0x3AC DUP2 PUSH2 0x392 JUMP JUMPDEST DUP2 EQ PUSH2 0x3B6 JUMPI PUSH0 PUSH0 REVERT JUMPDEST POP JUMP JUMPDEST PUSH0 DUP2 CALLDATALOAD SWAP1 POP PUSH2 0x3C7 DUP2 PUSH2 0x3A3 JUMP JUMPDEST SWAP3 SWAP2 POP POP JUMP JUMPDEST PUSH0 PUSH1 0x20 DUP3 DUP5 SUB SLT ISZERO PUSH2 0x3E2 JUMPI PUSH2 0x3E1 PUSH2 0x36B JUMP JUMPDEST JUMPDEST PUSH0 PUSH2 0x3EF DUP5 DUP3 DUP6 ADD PUSH2 0x3B9 JUMP JUMPDEST SWAP2 POP POP SWAP3 SWAP2 POP POP JUMP JUMPDEST PUSH0 PUSH0 REVERT JUMPDEST PUSH0 PUSH0 REVERT JUMPDEST PUSH32 0x4E487B7100000000000000000000000000000000000000000000000000000000 PUSH0 MSTORE PUSH1 0x41 PUSH1 0x4 MSTORE PUSH1 0x24 PUSH0 REVERT JUMPDEST PUSH2 0x436 DUP3 PUSH2 0x2FA JUMP JUMPDEST DUP2 ADD DUP2 DUP2 LT PUSH8 0xFFFFFFFFFFFFFFFF DUP3 GT OR ISZERO PUSH2 0x455 JUMPI PUSH2 0x454 PUSH2 0x400 JUMP JUMPDEST JUMPDEST DUP1 PUSH1 0x40 MSTORE POP POP POP JUMP JUMPDEST PUSH0 PUSH2 0x467 PUSH2 0x362 JUMP JUMPDEST SWAP1 POP PUSH2 0x473 DUP3 DUP3 PUSH2 0x42D JUMP JUMPDEST SWAP2 SWAP1 POP JUMP JUMPDEST PUSH0 PUSH8 0xFFFFFFFFFFFFFFFF DUP3 GT ISZERO PUSH2 0x492 JUMPI PUSH2 0x491 PUSH2 0x400 JUMP JUMPDEST JUMPDEST PUSH2 0x49B DUP3 PUSH2 0x2FA JUMP JUMPDEST SWAP1 POP PUSH1 0x20 DUP2 ADD SWAP1 POP SWAP2 SWAP1 POP JUMP JUMPDEST DUP3 DUP2 DUP4 CALLDATACOPY PUSH0 DUP4 DUP4 ADD MSTORE POP POP POP JUMP JUMPDEST PUSH0 PUSH2 0x4C8 PUSH2 0x4C3 DUP5 PUSH2 0x478 JUMP JUMPDEST PUSH2 0x45E JUMP JUMPDEST SWAP1 POP DUP3 DUP2 MSTORE PUSH1 0x20 DUP2 ADD DUP5 DUP5 DUP5 ADD GT ISZERO PUSH2 0x4E4 JUMPI PUSH2 0x4E3 PUSH2 0x3FC JUMP JUMPDEST JUMPDEST PUSH2 0x4EF DUP5 DUP3 DUP6 PUSH2 0x4A8 JUMP JUMPDEST POP SWAP4 SWAP3 POP POP POP JUMP JUMPDEST PUSH0 DUP3 PUSH1 0x1F DUP4 ADD SLT PUSH2 0x50B JUMPI PUSH2 0x50A PUSH2 0x3F8 JUMP JUMPDEST JUMPDEST DUP2 CALLDATALOAD PUSH2 0x51B DUP5 DUP3 PUSH1 0x20 DUP7 ADD PUSH2 0x4B6 JUMP JUMPDEST SWAP2 POP POP SWAP3 SWAP2 POP POP JUMP JUMPDEST PUSH0 PUSH1 0x20 DUP3 DUP5 SUB SLT ISZERO PUSH2 0x539 JUMPI PUSH2 0x538 PUSH2 0x36B JUMP JUMPDEST JUMPDEST PUSH0 DUP3 ADD CALLDATALOAD PUSH8 0xFFFFFFFFFFFFFFFF DUP2 GT ISZERO PUSH2 0x556 JUMPI PUSH2 0x555 PUSH2 0x36F JUMP JUMPDEST JUMPDEST PUSH2 0x562 DUP5 DUP3 DUP6 ADD PUSH2 0x4F7 JUMP JUMPDEST SWAP2 POP POP SWAP3 SWAP2 POP POP JUMP JUMPDEST PUSH32 0x4E487B7100000000000000000000000000000000000000000000000000000000 PUSH0 MSTORE PUSH1 0x22 PUSH1 0x4 MSTORE PUSH1 0x24 PUSH0 REVERT JUMPDEST PUSH0 PUSH1 0x2 DUP3 DIV SWAP1 POP PUSH1 0x1 DUP3 AND DUP1 PUSH2 0x5AF JUMPI PUSH1 0x7F DUP3 AND SWAP2 POP JUMPDEST PUSH1 0x20 DUP3 LT DUP2 SUB PUSH2 0x5C2 JUMPI PUSH2 0x5C1 PUSH2 0x56B JUMP JUMPDEST JUMPDEST POP SWAP2 SWAP1 POP JUMP JUMPDEST PUSH0 DUP2 SWAP1 POP DUP2 PUSH0 MSTORE PUSH1 0x20 PUSH0 KECCAK256 SWAP1 POP SWAP2 SWAP1 POP JUMP JUMPDEST PUSH0 PUSH1 0x20 PUSH1 0x1F DUP4 ADD DIV SWAP1 POP SWAP2 SWAP1 POP JUMP JUMPDEST PUSH0 DUP3 DUP3 SHL SWAP1 POP SWAP3 SWAP2 POP POP JUMP JUMPDEST PUSH0 PUSH1 0x8 DUP4 MUL PUSH2 0x624 PUSH32 0xFFFFFFFFFFFFFFFFFFFFFFFFFFFFFFFFFFFFFFFFFFFFFFFFFFFFFFFFFFFFFFFF DUP3 PUSH2 0x5E9 JUMP JUMPDEST PUSH2 0x62E DUP7 DUP4 PUSH2 0x5E9 JUMP JUMPDEST SWAP6 POP DUP1 NOT DUP5 AND SWAP4 POP DUP1 DUP7 AND DUP5 OR SWAP3 POP POP POP SWAP4 SWAP3 POP POP POP JUMP JUMPDEST PUSH0 DUP2 SWAP1 POP SWAP2 SWAP1 POP JUMP JUMPDEST PUSH0 DUP2 SWAP1 POP SWAP2 SWAP1 POP JUMP JUMPDEST PUSH0 PUSH2 0x672 PUSH2 0x66D PUSH2 0x668 DUP5 PUSH2 0x646 JUMP JUMPDEST PUSH2 0x64F JUMP JUMPDEST PUSH2 0x646 JUMP JUMPDEST SWAP1 POP SWAP2 SWAP1 POP JUMP JUMPDEST PUSH0 DUP2 SWAP1 POP SWAP2 SWAP1 POP JUMP JUMPDEST PUSH2 0x68B DUP4 PUSH2 0x658 JUMP JUMPDEST PUSH2 0x69F PUSH2 0x697 DUP3 PUSH2 0x679 JUMP JUMPDEST DUP5 DUP5 SLOAD PUSH2 0x5F5 JUMP JUMPDEST DUP3 SSTORE POP POP POP POP JUMP JUMPDEST PUSH0 PUSH0 SWAP1 POP SWAP1 JUMP JUMPDEST PUSH2 0x6B6 PUSH2 0x6A7 JUMP JUMPDEST PUSH2 0x6C1 DUP2 DUP5 DUP5 PUSH2 0x682 JUMP JUMPDEST POP POP POP JUMP JUMPDEST JUMPDEST DUP2 DUP2 LT ISZERO PUSH2 0x6E4 JUMPI PUSH2 0x6D9 PUSH0 DUP3 PUSH2 0x6AE JUMP JUMPDEST PUSH1 0x1 DUP2 ADD SWAP1 POP PUSH2 0x6C7 JUMP JUMPDEST POP POP JUMP JUMPDEST PUSH1 0x1F DUP3 GT ISZERO PUSH2 0x729 JUMPI PUSH2 0x6FA DUP2 PUSH2 0x5C8 JUMP JUMPDEST PUSH2 0x703 DUP5 PUSH2 0x5DA JUMP JUMPDEST DUP2 ADD PUSH1 0x20 DUP6 LT ISZERO PUSH2 0x712 JUMPI DUP2 SWAP1 POP JUMPDEST PUSH2 0x726 PUSH2 0x71E DUP6 PUSH2 0x5DA JUMP JUMPDEST DUP4 ADD DUP3 PUSH2 0x6C6 JUMP JUMPDEST POP POP JUMPDEST POP POP POP JUMP JUMPDEST PUSH0 DUP3 DUP3 SHR SWAP1 POP SWAP3 SWAP2 POP POP JUMP JUMPDEST PUSH0 PUSH2 0x749 PUSH0 NOT DUP5 PUSH1 0x8 MUL PUSH2 0x72E JUMP JUMPDEST NOT DUP1 DUP4 AND SWAP2 POP POP SWAP3 SWAP2 POP POP JUMP JUMPDEST PUSH0 PUSH2 0x761 DUP4 DUP4 PUSH2 0x73A JUMP JUMPDEST SWAP2 POP DUP3 PUSH1 0x2 MUL DUP3 OR SWAP1 POP SWAP3 SWAP2 POP POP JUMP JUMPDEST PUSH2 0x77A DUP3 PUSH2 0x2D2 JUMP JUMPDEST PUSH8 0xFFFFFFFFFFFFFFFF DUP2 GT ISZERO PUSH2 0x793 JUMPI PUSH2 0x792 PUSH2 0x400 JUMP JUMPDEST JUMPDEST PUSH2 0x79D DUP3 SLOAD PUSH2 0x598 JUMP JUMPDEST PUSH2 0x7A8 DUP3 DUP3 DUP6 PUSH2 0x6E8 JUMP JUMPDEST PUSH0 PUSH1 0x20 SWAP1 POP PUSH1 0x1F DUP4 GT PUSH1 0x1 DUP2 EQ PUSH2 0x7D9 JUMPI PUSH0 DUP5 ISZERO PUSH2 0x7C7 JUMPI DUP3 DUP8 ADD MLOAD SWAP1 POP JUMPDEST PUSH2 0x7D1 DUP6 DUP3 PUSH2 0x756 JUMP JUMPDEST DUP7 SSTORE POP PUSH2 0x838 JUMP JUMPDEST PUSH1 0x1F NOT DUP5 AND PUSH2 0x7E7 DUP7 PUSH2 0x5C8 JUMP JUMPDEST PUSH0 JUMPDEST DUP3 DUP2 LT ISZERO PUSH2 0x80E JUMPI DUP5 DUP10 ADD MLOAD DUP3 SSTORE PUSH1 0x1 DUP3 ADD SWAP2 POP PUSH1 0x20 DUP6 ADD SWAP5 POP PUSH1 0x20 DUP2 ADD SWAP1 POP PUSH2 0x7E9 JUMP JUMPDEST DUP7 DUP4 LT ISZERO PUSH2 0x82B JUMPI DUP5 DUP10 ADD MLOAD PUSH2 0x827 PUSH1 0x1F DUP10 AND DUP3 PUSH2 0x73A JUMP JUMPDEST DUP4 SSTORE POP JUMPDEST PUSH1 0x1 PUSH1 0x2 DUP9 MUL ADD DUP9 SSTORE POP POP POP JUMPDEST POP POP POP POP POP POP JUMP INVALID LOG2 PUSH5 0x6970667358 0x22 SLT KECCAK256 DUP6 INVALID SAR 0xCE 0xFC 0xF6 REVERT CALLDATALOAD CODECOPY 0xB1 INVALID AND 0xD 0xA6 0xA5 CALLF 0x81A5 0xF PUSH19 0x6DC8BB57AF5136849F5D5BD564736F6C634300 ADDMOD 0x1E STOP CALLER "
		},
		"gasEstimates": {
			"creation": {
				"codeDepositCost": "433200",
				"executionCost": "466",
				"totalCost": "433666"
			},
			"external": {
				"getName()": "infinite",
				"setName(string)": "infinite",
				"showNameOf(address)": "infinite"
			}
		},
		"methodIdentifiers": {
			"getName()": "17d7de7c",
			"setName(string)": "c47f0027",
			"showNameOf(address)": "3e5ce937"
		}
	},
	"abi": [
		{
			"inputs": [],
			"name": "getName",
			"outputs": [
				{
					"internalType": "string",
					"name": "",
					"type": "string"
				}
			],
			"stateMutability": "view",
			"type": "function"
		},
		{
			"inputs": [
				{
					"internalType": "string",
					"name": "name",
					"type": "string"
				}
			],
			"name": "setName",
			"outputs": [],
			"stateMutability": "nonpayable",
			"type": "function"
		},
		{
			"inputs": [
				{
					"internalType": "address",
					"name": "_user",
					"type": "address"
				}
			],
			"name": "showNameOf",
			"outputs": [
				{
					"internalType": "string",
					"name": "",
					"type": "string"
				}
			],
			"stateMutability": "view",
			"type": "function"
		}
	]
}