{
	"data": {
		"bytecode": {
			"linkReferences": {},
			"object": "608060405234801561000f575f5ffd5b5061001f3361002460201b60201c565b6101fe565b5f73ffffffffffffffffffffffffffffffffffffffff168173ffffffffffffffffffffffffffffffffffffffff1603610092576040517f08c379a000000000000000000000000000000000000000000000000000000000815260040161008990610177565b60405180910390fd5b806100d260017fb53127684a568b3173ae13b9f8a6016e243e63b6e8ee1178d6a717850b5d61045f1c6100c591906101cb565b5f1b61011460201b60201c565b5f015f6101000a81548173ffffffffffffffffffffffffffffffffffffffff021916908373ffffffffffffffffffffffffffffffffffffffff16021790555050565b5f819050919050565b5f82825260208201905092915050565b7f496e76616c6964206164647265737300000000000000000000000000000000005f82015250565b5f610161600f8361011d565b915061016c8261012d565b602082019050919050565b5f6020820190508181035f83015261018e81610155565b9050919050565b5f819050919050565b7f4e487b71000000000000000000000000000000000000000000000000000000005f52601160045260245ffd5b5f6101d582610195565b91506101e083610195565b92508282039050818111156101f8576101f761019e565b5b92915050565b61073e8061020b5f395ff3fe608060405260043610610042575f3560e01c80632865667f1461005b5780635ec5fd19146100855780638f283970146100af578063fcf1e009146100d757610051565b366100515761004f6100ff565b005b6100596100ff565b005b348015610066575f5ffd5b5061006f610111565b60405161007c919061054d565b60405180910390f35b348015610090575f5ffd5b50610099610167565b6040516100a6919061054d565b60405180910390f35b3480156100ba575f5ffd5b506100d560048036038101906100d09190610594565b6101bd565b005b3480156100e2575f5ffd5b506100fd60048036038101906100f89190610594565b610211565b005b61010f61010a610265565b6102c6565b565b5f61011a6102e5565b73ffffffffffffffffffffffffffffffffffffffff163373ffffffffffffffffffffffffffffffffffffffff160361015b576101546102e5565b9050610164565b6101636100ff565b5b90565b5f6101706102e5565b73ffffffffffffffffffffffffffffffffffffffff163373ffffffffffffffffffffffffffffffffffffffff16036101b1576101aa610265565b90506101ba565b6101b96100ff565b5b90565b6101c56102e5565b73ffffffffffffffffffffffffffffffffffffffff163373ffffffffffffffffffffffffffffffffffffffff16036102055761020081610346565b61020e565b61020d6100ff565b5b50565b6102196102e5565b73ffffffffffffffffffffffffffffffffffffffff163373ffffffffffffffffffffffffffffffffffffffff16036102595761025481610430565b610262565b6102616100ff565b5b50565b5f61029f60017f360894a13ba1a3210667c828492db98dca3e2076cc3735a920a3ca505d382bbd5f1c61029891906105f5565b5f1b610505565b5f015f9054906101000a900473ffffffffffffffffffffffffffffffffffffffff16905090565b365f5f375f5f365f845af43d5f5f3e805f81146102e1573d5ff35b3d5ffd5b5f61031f60017fb53127684a568b3173ae13b9f8a6016e243e63b6e8ee1178d6a717850b5d61045f1c61031891906105f5565b5f1b610505565b5f015f9054906101000a900473ffffffffffffffffffffffffffffffffffffffff16905090565b5f73ffffffffffffffffffffffffffffffffffffffff168173ffffffffffffffffffffffffffffffffffffffff16036103b4576040517f08c379a00000000000000000000000000000000000000000000000000000000081526004016103ab90610682565b60405180910390fd5b806103ee60017fb53127684a568b3173ae13b9f8a6016e243e63b6e8ee1178d6a717850b5d61045f1c6103e791906105f5565b5f1b610505565b5f015f6101000a81548173ffffffffffffffffffffffffffffffffffffffff021916908373ffffffffffffffffffffffffffffffffffffffff16021790555050565b5f8173ffffffffffffffffffffffffffffffffffffffff163b11610489576040517f08c379a0000000000000000000000000000000000000000000000000000000008152600401610480906106ea565b60405180910390fd5b806104c360017f360894a13ba1a3210667c828492db98dca3e2076cc3735a920a3ca505d382bbd5f1c6104bc91906105f5565b5f1b610505565b5f015f6101000a81548173ffffffffffffffffffffffffffffffffffffffff021916908373ffffffffffffffffffffffffffffffffffffffff16021790555050565b5f819050919050565b5f73ffffffffffffffffffffffffffffffffffffffff82169050919050565b5f6105378261050e565b9050919050565b6105478161052d565b82525050565b5f6020820190506105605f83018461053e565b92915050565b5f5ffd5b6105738161052d565b811461057d575f5ffd5b50565b5f8135905061058e8161056a565b92915050565b5f602082840312156105a9576105a8610566565b5b5f6105b684828501610580565b91505092915050565b5f819050919050565b7f4e487b71000000000000000000000000000000000000000000000000000000005f52601160045260245ffd5b5f6105ff826105bf565b915061060a836105bf565b9250828203905081811115610622576106216105c8565b5b92915050565b5f82825260208201905092915050565b7f496e76616c6964206164647265737300000000000000000000000000000000005f82015250565b5f61066c600f83610628565b915061067782610638565b602082019050919050565b5f6020820190508181035f83015261069981610660565b9050919050565b7f41646472657373206973206e6f74206120636f6e7472616374000000000000005f82015250565b5f6106d4601983610628565b91506106df826106a0565b602082019050919050565b5f6020820190508181035f830152610701816106c8565b905091905056fea264697066735822122077dc103c47bf9e3254adee8338916fd6b8df46e2d2f257c3e4df7405029a615e64736f6c634300081e0033",
			"opcodes": "PUSH1 0x80 PUSH1 0x40 MSTORE CALLVALUE DUP1 ISZERO PUSH2 0xF JUMPI PUSH0 PUSH0 REVERT JUMPDEST POP PUSH2 0x1F CALLER PUSH2 0x24 PUSH1 0x20 SHL PUSH1 0x20 SHR JUMP JUMPDEST PUSH2 0x1FE JUMP JUMPDEST PUSH0 PUSH20 0xFFFFFFFFFFFFFFFFFFFFFFFFFFFFFFFFFFFFFFFF AND DUP2 PUSH20 0xFFFFFFFFFFFFFFFFFFFFFFFFFFFFFFFFFFFFFFFF AND SUB PUSH2 0x92 JUMPI PUSH1 0x40 MLOAD PUSH32 0x8C379A000000000000000000000000000000000000000000000000000000000 DUP2 MSTORE PUSH1 0x4 ADD PUSH2 0x89 SWAP1 PUSH2 0x177 JUMP JUMPDEST PUSH1 0x40 MLOAD DUP1 SWAP2 SUB SWAP1 REVERT JUMPDEST DUP1 PUSH2 0xD2 PUSH1 0x1 PUSH32 0xB53127684A568B3173AE13B9F8A6016E243E63B6E8EE1178D6A717850B5D6104 PUSH0 SHR PUSH2 0xC5 SWAP2 SWAP1 PUSH2 0x1CB JUMP JUMPDEST PUSH0 SHL PUSH2 0x114 PUSH1 0x20 SHL PUSH1 0x20 SHR JUMP JUMPDEST PUSH0 ADD PUSH0 PUSH2 0x100 EXP DUP2 SLOAD DUP2 PUSH20 0xFFFFFFFFFFFFFFFFFFFFFFFFFFFFFFFFFFFFFFFF MUL NOT AND SWAP1 DUP4 PUSH20 0xFFFFFFFFFFFFFFFFFFFFFFFFFFFFFFFFFFFFFFFF AND MUL OR SWAP1 SSTORE POP POP JUMP JUMPDEST PUSH0 DUP2 SWAP1 POP SWAP2 SWAP1 POP JUMP JUMPDEST PUSH0 DUP3 DUP3 MSTORE PUSH1 0x20 DUP3 ADD SWAP1 POP SWAP3 SWAP2 POP POP JUMP JUMPDEST PUSH32 0x496E76616C696420616464726573730000000000000000000000000000000000 PUSH0 DUP3 ADD MSTORE POP JUMP JUMPDEST PUSH0 PUSH2 0x161 PUSH1 0xF DUP4 PUSH2 0x11D JUMP JUMPDEST SWAP2 POP PUSH2 0x16C DUP3 PUSH2 0x12D JUMP JUMPDEST PUSH1 0x20 DUP3 ADD SWAP1 POP SWAP2 SWAP1 POP JUMP JUMPDEST PUSH0 PUSH1 0x20 DUP3 ADD SWAP1 POP DUP2 DUP2 SUB PUSH0 DUP4 ADD MSTORE PUSH2 0x18E DUP2 PUSH2 0x155 JUMP JUMPDEST SWAP1 POP SWAP2 SWAP1 POP JUMP JUMPDEST PUSH0 DUP2 SWAP1 POP SWAP2 SWAP1 POP JUMP JUMPDEST PUSH32 0x4E487B7100000000000000000000000000000000000000000000000000000000 PUSH0 MSTORE PUSH1 0x11 PUSH1 0x4 MSTORE PUSH1 0x24 PUSH0 REVERT JUMPDEST PUSH0 PUSH2 0x1D5 DUP3 PUSH2 0x195 JUMP JUMPDEST SWAP2 POP PUSH2 0x1E0 DUP4 PUSH2 0x195 JUMP JUMPDEST SWAP3 POP DUP3 DUP3 SUB SWAP1 POP DUP2 DUP2 GT ISZERO PUSH2 0x1F8 JUMPI PUSH2 0x1F7 PUSH2 0x19E JUMP JUMPDEST JUMPDEST SWAP3 SWAP2 POP POP JUMP JUMPDEST PUSH2 0x73E DUP1 PUSH2 0x20B PUSH0 CODECOPY PUSH0 RETURN INVALID PUSH1 0x80 PUSH1 0x40 MSTORE PUSH1 0x4 CALLDATASIZE LT PUSH2 0x42 JUMPI PUSH0 CALLDATALOAD PUSH1 0xE0 SHR DUP1 PUSH4 0x2865667F EQ PUSH2 0x5B JUMPI DUP1 PUSH4 0x5EC5FD19 EQ PUSH2 0x85 JUMPI DUP1 PUSH4 0x8F283970 EQ PUSH2 0xAF JUMPI DUP1 PUSH4 0xFCF1E009 EQ PUSH2 0xD7 JUMPI PUSH2 0x51 JUMP JUMPDEST CALLDATASIZE PUSH2 0x51 JUMPI PUSH2 0x4F PUSH2 0xFF JUMP JUMPDEST STOP JUMPDEST PUSH2 0x59 PUSH2 0xFF JUMP JUMPDEST STOP JUMPDEST CALLVALUE DUP1 ISZERO PUSH2 0x66 JUMPI PUSH0 PUSH0 REVERT JUMPDEST POP PUSH2 0x6F PUSH2 0x111 JUMP JUMPDEST PUSH1 0x40 MLOAD PUSH2 0x7C SWAP2 SWAP1 PUSH2 0x54D JUMP JUMPDEST PUSH1 0x40 MLOAD DUP1 SWAP2 SUB SWAP1 RETURN JUMPDEST CALLVALUE DUP1 ISZERO PUSH2 0x90 JUMPI PUSH0 PUSH0 REVERT JUMPDEST POP PUSH2 0x99 PUSH2 0x167 JUMP JUMPDEST PUSH1 0x40 MLOAD PUSH2 0xA6 SWAP2 SWAP1 PUSH2 0x54D JUMP JUMPDEST PUSH1 0x40 MLOAD DUP1 SWAP2 SUB SWAP1 RETURN JUMPDEST CALLVALUE DUP1 ISZERO PUSH2 0xBA JUMPI PUSH0 PUSH0 REVERT JUMPDEST POP PUSH2 0xD5 PUSH1 0x4 DUP1 CALLDATASIZE SUB DUP2 ADD SWAP1 PUSH2 0xD0 SWAP2 SWAP1 PUSH2 0x594 JUMP JUMPDEST PUSH2 0x1BD JUMP JUMPDEST STOP JUMPDEST CALLVALUE DUP1 ISZERO PUSH2 0xE2 JUMPI PUSH0 PUSH0 REVERT JUMPDEST POP PUSH2 0xFD PUSH1 0x4 DUP1 CALLDATASIZE SUB DUP2 ADD SWAP1 PUSH2 0xF8 SWAP2 SWAP1 PUSH2 0x594 JUMP JUMPDEST PUSH2 0x211 JUMP JUMPDEST STOP JUMPDEST PUSH2 0x10F PUSH2 0x10A PUSH2 0x265 JUMP JUMPDEST PUSH2 0x2C6 JUMP JUMPDEST JUMP JUMPDEST PUSH0 PUSH2 0x11A PUSH2 0x2E5 JUMP JUMPDEST PUSH20 0xFFFFFFFFFFFFFFFFFFFFFFFFFFFFFFFFFFFFFFFF AND CALLER PUSH20 0xFFFFFFFFFFFFFFFFFFFFFFFFFFFFFFFFFFFFFFFF AND SUB PUSH2 0x15B JUMPI PUSH2 0x154 PUSH2 0x2E5 JUMP JUMPDEST SWAP1 POP PUSH2 0x164 JUMP JUMPDEST PUSH2 0x163 PUSH2 0xFF JUMP JUMPDEST JUMPDEST SWAP1 JUMP JUMPDEST PUSH0 PUSH2 0x170 PUSH2 0x2E5 JUMP JUMPDEST PUSH20 0xFFFFFFFFFFFFFFFFFFFFFFFFFFFFFFFFFFFFFFFF AND CALLER PUSH20 0xFFFFFFFFFFFFFFFFFFFFFFFFFFFFFFFFFFFFFFFF AND SUB PUSH2 0x1B1 JUMPI PUSH2 0x1AA PUSH2 0x265 JUMP JUMPDEST SWAP1 POP PUSH2 0x1BA JUMP JUMPDEST PUSH2 0x1B9 PUSH2 0xFF JUMP JUMPDEST JUMPDEST SWAP1 JUMP JUMPDEST PUSH2 0x1C5 PUSH2 0x2E5 JUMP JUMPDEST PUSH20 0xFFFFFFFFFFFFFFFFFFFFFFFFFFFFFFFFFFFFFFFF AND CALLER PUSH20 0xFFFFFFFFFFFFFFFFFFFFFFFFFFFFFFFFFFFFFFFF AND SUB PUSH2 0x205 JUMPI PUSH2 0x200 DUP2 PUSH2 0x346 JUMP JUMPDEST PUSH2 0x20E JUMP JUMPDEST PUSH2 0x20D PUSH2 0xFF JUMP JUMPDEST JUMPDEST POP JUMP JUMPDEST PUSH2 0x219 PUSH2 0x2E5 JUMP JUMPDEST PUSH20 0xFFFFFFFFFFFFFFFFFFFFFFFFFFFFFFFFFFFFFFFF AND CALLER PUSH20 0xFFFFFFFFFFFFFFFFFFFFFFFFFFFFFFFFFFFFFFFF AND SUB PUSH2 0x259 JUMPI PUSH2 0x254 DUP2 PUSH2 0x430 JUMP JUMPDEST PUSH2 0x262 JUMP JUMPDEST PUSH2 0x261 PUSH2 0xFF JUMP JUMPDEST JUMPDEST POP JUMP JUMPDEST PUSH0 PUSH2 0x29F PUSH1 0x1 PUSH32 0x360894A13BA1A3210667C828492DB98DCA3E2076CC3735A920A3CA505D382BBD PUSH0 SHR PUSH2 0x298 SWAP2 SWAP1 PUSH2 0x5F5 JUMP JUMPDEST PUSH0 SHL PUSH2 0x505 JUMP JUMPDEST PUSH0 ADD PUSH0 SWAP1 SLOAD SWAP1 PUSH2 0x100 EXP SWAP1 DIV PUSH20 0xFFFFFFFFFFFFFFFFFFFFFFFFFFFFFFFFFFFFFFFF AND SWAP1 POP SWAP1 JUMP JUMPDEST CALLDATASIZE PUSH0 PUSH0 CALLDATACOPY PUSH0 PUSH0 CALLDATASIZE PUSH0 DUP5 GAS DELEGATECALL RETURNDATASIZE PUSH0 PUSH0 RETURNDATACOPY DUP1 PUSH0 DUP2 EQ PUSH2 0x2E1 JUMPI RETURNDATASIZE PUSH0 RETURN JUMPDEST RETURNDATASIZE PUSH0 REVERT JUMPDEST PUSH0 PUSH2 0x31F PUSH1 0x1 PUSH32 0xB53127684A568B3173AE13B9F8A6016E243E63B6E8EE1178D6A717850B5D6104 PUSH0 SHR PUSH2 0x318 SWAP2 SWAP1 PUSH2 0x5F5 JUMP JUMPDEST PUSH0 SHL PUSH2 0x505 JUMP JUMPDEST PUSH0 ADD PUSH0 SWAP1 SLOAD SWAP1 PUSH2 0x100 EXP SWAP1 DIV PUSH20 0xFFFFFFFFFFFFFFFFFFFFFFFFFFFFFFFFFFFFFFFF AND SWAP1 POP SWAP1 JUMP JUMPDEST PUSH0 PUSH20 0xFFFFFFFFFFFFFFFFFFFFFFFFFFFFFFFFFFFFFFFF AND DUP2 PUSH20 0xFFFFFFFFFFFFFFFFFFFFFFFFFFFFFFFFFFFFFFFF AND SUB PUSH2 0x3B4 JUMPI PUSH1 0x40 MLOAD PUSH32 0x8C379A000000000000000000000000000000000000000000000000000000000 DUP2 MSTORE PUSH1 0x4 ADD PUSH2 0x3AB SWAP1 PUSH2 0x682 JUMP JUMPDEST PUSH1 0x40 MLOAD DUP1 SWAP2 SUB SWAP1 REVERT JUMPDEST DUP1 PUSH2 0x3EE PUSH1 0x1 PUSH32 0xB53127684A568B3173AE13B9F8A6016E243E63B6E8EE1178D6A717850B5D6104 PUSH0 SHR PUSH2 0x3E7 SWAP2 SWAP1 PUSH2 0x5F5 JUMP JUMPDEST PUSH0 SHL PUSH2 0x505 JUMP JUMPDEST PUSH0 ADD PUSH0 PUSH2 0x100 EXP DUP2 SLOAD DUP2 PUSH20 0xFFFFFFFFFFFFFFFFFFFFFFFFFFFFFFFFFFFFFFFF MUL NOT AND SWAP1 DUP4 PUSH20 0xFFFFFFFFFFFFFFFFFFFFFFFFFFFFFFFFFFFFFFFF AND MUL OR SWAP1 SSTORE POP POP JUMP JUMPDEST PUSH0 DUP2 PUSH20 0xFFFFFFFFFFFFFFFFFFFFFFFFFFFFFFFFFFFFFFFF AND EXTCODESIZE GT PUSH2 0x489 JUMPI PUSH1 0x40 MLOAD PUSH32 0x8C379A000000000000000000000000000000000000000000000000000000000 DUP2 MSTORE PUSH1 0x4 ADD PUSH2 0x480 SWAP1 PUSH2 0x6EA JUMP JUMPDEST PUSH1 0x40 MLOAD DUP1 SWAP2 SUB SWAP1 REVERT JUMPDEST DUP1 PUSH2 0x4C3 PUSH1 0x1 PUSH32 0x360894A13BA1A3210667C828492DB98DCA3E2076CC3735A920A3CA505D382BBD PUSH0 SHR PUSH2 0x4BC SWAP2 SWAP1 PUSH2 0x5F5 JUMP JUMPDEST PUSH0 SHL PUSH2 0x505 JUMP JUMPDEST PUSH0 ADD PUSH0 PUSH2 0x100 EXP DUP2 SLOAD DUP2 PUSH20 0xFFFFFFFFFFFFFFFFFFFFFFFFFFFFFFFFFFFFFFFF MUL NOT AND SWAP1 DUP4 PUSH20 0xFFFFFFFFFFFFFFFFFFFFFFFFFFFFFFFFFFFFFFFF AND MUL OR SWAP1 SSTORE POP POP JUMP JUMPDEST PUSH0 DUP2 SWAP1 POP SWAP2 SWAP1 POP JUMP JUMPDEST PUSH0 PUSH20 0xFFFFFFFFFFFFFFFFFFFFFFFFFFFFFFFFFFFFFFFF DUP3 AND SWAP1 POP SWAP2 SWAP1 POP JUMP JUMPDEST PUSH0 PUSH2 0x537 DUP3 PUSH2 0x50E JUMP JUMPDEST SWAP1 POP SWAP2 SWAP1 POP JUMP JUMPDEST PUSH2 0x547 DUP2 PUSH2 0x52D JUMP JUMPDEST DUP3 MSTORE POP POP JUMP JUMPDEST PUSH0 PUSH1 0x20 DUP3 ADD SWAP1 POP PUSH2 0x560 PUSH0 DUP4 ADD DUP5 PUSH2 0x53E JUMP JUMPDEST SWAP3 SWAP2 POP POP JUMP JUMPDEST PUSH0 PUSH0 REVERT JUMPDEST PUSH2 0x573 DUP2 PUSH2 0x52D JUMP JUMPDEST DUP2 EQ PUSH2 0x57D JUMPI PUSH0 PUSH0 REVERT JUMPDEST POP JUMP JUMPDEST PUSH0 DUP2 CALLDATALOAD SWAP1 POP PUSH2 0x58E DUP2 PUSH2 0x56A JUMP JUMPDEST SWAP3 SWAP2 POP POP JUMP JUMPDEST PUSH0 PUSH1 0x20 DUP3 DUP5 SUB SLT ISZERO PUSH2 0x5A9 JUMPI PUSH2 0x5A8 PUSH2 0x566 JUMP JUMPDEST JUMPDEST PUSH0 PUSH2 0x5B6 DUP5 DUP3 DUP6 ADD PUSH2 0x580 JUMP JUMPDEST SWAP2 POP POP SWAP3 SWAP2 POP POP JUMP JUMPDEST PUSH0 DUP2 SWAP1 POP SWAP2 SWAP1 POP JUMP JUMPDEST PUSH32 0x4E487B7100000000000000000000000000000000000000000000000000000000 PUSH0 MSTORE PUSH1 0x11 PUSH1 0x4 MSTORE PUSH1 0x24 PUSH0 REVERT JUMPDEST PUSH0 PUSH2 0x5FF DUP3 PUSH2 0x5BF JUMP JUMPDEST SWAP2 POP PUSH2 0x60A DUP4 PUSH2 0x5BF JUMP JUMPDEST SWAP3 POP DUP3 DUP3 SUB SWAP1 POP DUP2 DUP2 GT ISZERO PUSH2 0x622 JUMPI PUSH2 0x621 PUSH2 0x5C8 JUMP JUMPDEST JUMPDEST SWAP3 SWAP2 POP POP JUMP JUMPDEST PUSH0 DUP3 DUP3 MSTORE PUSH1 0x20 DUP3 ADD SWAP1 POP SWAP3 SWAP2 POP POP JUMP JUMPDEST PUSH32 0x496E76616C696420616464726573730000000000000000000000000000000000 PUSH0 DUP3 ADD MSTORE POP JUMP JUMPDEST PUSH0 PUSH2 0x66C PUSH1 0xF DUP4 PUSH2 0x628 JUMP JUMPDEST SWAP2 POP PUSH2 0x677 DUP3 PUSH2 0x638 JUMP JUMPDEST PUSH1 0x20 DUP3 ADD SWAP1 POP SWAP2 SWAP1 POP JUMP JUMPDEST PUSH0 PUSH1 0x20 DUP3 ADD SWAP1 POP DUP2 DUP2 SUB PUSH0 DUP4 ADD MSTORE PUSH2 0x699 DUP2 PUSH2 0x660 JUMP JUMPDEST SWAP1 POP SWAP2 SWAP1 POP JUMP JUMPDEST PUSH32 0x41646472657373206973206E6F74206120636F6E747261637400000000000000 PUSH0 DUP3 ADD MSTORE POP JUMP JUMPDEST PUSH0 PUSH2 0x6D4 PUSH1 0x19 DUP4 PUSH2 0x628 JUMP JUMPDEST SWAP2 POP PUSH2 0x6DF DUP3 PUSH2 0x6A0 JUMP JUMPDEST PUSH1 0x20 DUP3 ADD SWAP1 POP SWAP2 SWAP1 POP JUMP JUMPDEST PUSH0 PUSH1 0x20 DUP3 ADD SWAP1 POP DUP2 DUP2 SUB PUSH0 DUP4 ADD MSTORE PUSH2 0x701 DUP2 PUSH2 0x6C8 JUMP JUMPDEST SWAP1 POP SWAP2 SWAP1 POP JUMP INVALID LOG2 PUSH5 0x6970667358 0x22 SLT KECCAK256 PUSH24 0xDC103C47BF9E3254ADEE8338916FD6B8DF46E2D2F257C3E4 0xDF PUSH21 0x5029A615E64736F6C634300081E00330000000000 "
		},
		"gasEstimates": {
			"creation": {
				"codeDepositCost": "370800",
				"executionCost": "infinite",
				"totalCost": "infinite"
			},
			"external": {
				"": "infinite",
				"changeAdmin(address)": "infinite",
				"readAdmin()": "infinite",
				"readImpl()": "infinite",
				"updateImpl(address)": "infinite"
			},
			"internal": {
				"_delegate(address)": "infinite",
				"_fallback()": "infinite",
				"getAdmin()": "infinite",
				"getImpl()": "infinite",
				"setAdmin(address)": "infinite",
				"setImpl(address)": "infinite"
			}
		},
		"methodIdentifiers": {
			"changeAdmin(address)": "8f283970",
			"readAdmin()": "2865667f",
			"readImpl()": "5ec5fd19",
			"updateImpl(address)": "fcf1e009"
		}
	},
	"abi": [
		{
			"inputs": [],
			"stateMutability": "nonpayable",
			"type": "constructor"
		},
		{
			"stateMutability": "payable",
			"type": "fallback"
		},
		{
			"inputs": [
				{
					"internalType": "address",
					"name": "_admin",
					"type": "address"
				}
			],
			"name": "changeAdmin",
			"outputs": [],
			"stateMutability": "nonpayable",
			"type": "function"
		},
		{
			"inputs": [],
			"name": "readAdmin",
			"outputs": [
				{
					"internalType": "address",
					"name": "",
					"type": "address"
				}
			],
			"stateMutability": "nonpayable",
			"type": "function"
		},
		{
			"inputs": [],
			"name": "readImpl",
			"outputs": [
				{
					"internalType": "address",
					"name": "",
					"type": "address"
				}
			],
			"stateMutability": "nonpayable",
			"type": "function"
		},
		{
			"inputs": [
				{
					"internalType": "address",
					"name": "_impl",
					"type": "address"
				}
			],
			"name": "updateImpl",
			"outputs": [],
			"stateMutability": "nonpayable",
			"type": "function"
		},
		{
			"stateMutability": "payable",
			"type": "receive"
		}
	]
}